{
	"contracts/AIModelRegistry.sol": {
		"AIModelRegistry": {
			"abi": [
				{
					"inputs": [
						{
							"internalType": "uint256",
							"name": "_index",
							"type": "uint256"
						}
					],
					"name": "getModelByIndex",
					"outputs": [
						{
							"internalType": "address",
							"name": "",
							"type": "address"
						},
						{
							"internalType": "string",
							"name": "",
							"type": "string"
						},
						{
							"internalType": "string",
							"name": "",
							"type": "string"
						},
						{
							"internalType": "string",
							"name": "",
							"type": "string"
						},
						{
							"internalType": "string",
							"name": "",
							"type": "string"
						},
						{
							"internalType": "uint256",
							"name": "",
							"type": "uint256"
						}
					],
					"stateMutability": "view",
					"type": "function"
				},
				{
					"inputs": [
						{
							"internalType": "string",
							"name": "_modelType",
							"type": "string"
						}
					],
					"name": "getModelsByType",
					"outputs": [
						{
							"internalType": "uint256[]",
							"name": "",
							"type": "uint256[]"
						}
					],
					"stateMutability": "view",
					"type": "function"
				},
				{
					"inputs": [],
					"name": "modelCount",
					"outputs": [
						{
							"internalType": "uint256",
							"name": "",
							"type": "uint256"
						}
					],
					"stateMutability": "view",
					"type": "function"
				},
				{
					"inputs": [
						{
							"internalType": "uint256",
							"name": "",
							"type": "uint256"
						}
					],
					"name": "models",
					"outputs": [
						{
							"internalType": "address",
							"name": "clientAddress",
							"type": "address"
						},
						{
							"internalType": "string",
							"name": "modelType",
							"type": "string"
						},
						{
							"internalType": "string",
							"name": "hash1",
							"type": "string"
						},
						{
							"internalType": "string",
							"name": "hash2",
							"type": "string"
						},
						{
							"internalType": "string",
							"name": "hash3",
							"type": "string"
						},
						{
							"internalType": "uint256",
							"name": "timestamp",
							"type": "uint256"
						}
					],
					"stateMutability": "view",
					"type": "function"
				},
				{
					"inputs": [
						{
							"internalType": "string",
							"name": "_modelType",
							"type": "string"
						},
						{
							"internalType": "string",
							"name": "_hash1",
							"type": "string"
						},
						{
							"internalType": "string",
							"name": "_hash2",
							"type": "string"
						},
						{
							"internalType": "string",
							"name": "_hash3",
							"type": "string"
						}
					],
					"name": "registerModel",
					"outputs": [],
					"stateMutability": "nonpayable",
					"type": "function"
				}
			],
			"devdoc": {
				"kind": "dev",
				"methods": {},
				"version": 1
			},
			"evm": {
				"assembly": "    /* \"contracts/AIModelRegistry.sol\":64:2479  contract AIModelRegistry {... */\n  mstore(0x40, 0x80)\n  callvalue\n  dup1\n  iszero\n  tag_1\n  jumpi\n  0x00\n  dup1\n  revert\ntag_1:\n  pop\n  dataSize(sub_0)\n  dup1\n  dataOffset(sub_0)\n  0x00\n  codecopy\n  0x00\n  return\nstop\n\nsub_0: assembly {\n        /* \"contracts/AIModelRegistry.sol\":64:2479  contract AIModelRegistry {... */\n      mstore(0x40, 0x80)\n      callvalue\n      dup1\n      iszero\n      tag_1\n      jumpi\n      0x00\n      dup1\n      revert\n    tag_1:\n      pop\n      jumpi(tag_2, lt(calldatasize, 0x04))\n      shr(0xe0, calldataload(0x00))\n      dup1\n      0x4a23f10e\n      eq\n      tag_3\n      jumpi\n      dup1\n      0x4d5af350\n      eq\n      tag_4\n      jumpi\n      dup1\n      0x6a030ca9\n      eq\n      tag_5\n      jumpi\n      dup1\n      0xc6a645fe\n      eq\n      tag_6\n      jumpi\n      dup1\n      0xc6b959a3\n      eq\n      tag_7\n      jumpi\n    tag_2:\n      0x00\n      dup1\n      revert\n        /* \"contracts/AIModelRegistry.sol\":786:1273  function getModelByIndex(uint256 _index)... */\n    tag_3:\n      tag_8\n      0x04\n      dup1\n      calldatasize\n      sub\n      dup2\n      add\n      swap1\n      tag_9\n      swap2\n      swap1\n      tag_10\n      jump\t// in\n    tag_9:\n      tag_11\n      jump\t// in\n    tag_8:\n      mload(0x40)\n      tag_12\n      swap7\n      swap6\n      swap5\n      swap4\n      swap3\n      swap2\n      swap1\n      tag_13\n      jump\t// in\n    tag_12:\n      mload(0x40)\n      dup1\n      swap2\n      sub\n      swap1\n      return\n        /* \"contracts/AIModelRegistry.sol\":1281:2285  function getModelsByType(string memory _modelType) public view returns (uint256[] memory) {... */\n    tag_4:\n      tag_14\n      0x04\n      dup1\n      calldatasize\n      sub\n      dup2\n      add\n      swap1\n      tag_15\n      swap2\n      swap1\n      tag_16\n      jump\t// in\n    tag_15:\n      tag_17\n      jump\t// in\n    tag_14:\n      mload(0x40)\n      tag_18\n      swap2\n      swap1\n      tag_19\n      jump\t// in\n    tag_18:\n      mload(0x40)\n      dup1\n      swap2\n      sub\n      swap1\n      return\n        /* \"contracts/AIModelRegistry.sol\":283:324  mapping(uint256 => AIModel) public models */\n    tag_5:\n      tag_20\n      0x04\n      dup1\n      calldatasize\n      sub\n      dup2\n      add\n      swap1\n      tag_21\n      swap2\n      swap1\n      tag_10\n      jump\t// in\n    tag_21:\n      tag_22\n      jump\t// in\n    tag_20:\n      mload(0x40)\n      tag_23\n      swap7\n      swap6\n      swap5\n      swap4\n      swap3\n      swap2\n      swap1\n      tag_13\n      jump\t// in\n    tag_23:\n      mload(0x40)\n      dup1\n      swap2\n      sub\n      swap1\n      return\n        /* \"contracts/AIModelRegistry.sol\":331:356  uint256 public modelCount */\n    tag_6:\n      tag_24\n      tag_25\n      jump\t// in\n    tag_24:\n      mload(0x40)\n      tag_26\n      swap2\n      swap1\n      tag_27\n      jump\t// in\n    tag_26:\n      mload(0x40)\n      dup1\n      swap2\n      sub\n      swap1\n      return\n        /* \"contracts/AIModelRegistry.sol\":365:778  function registerModel(... */\n    tag_7:\n      tag_28\n      0x04\n      dup1\n      calldatasize\n      sub\n      dup2\n      add\n      swap1\n      tag_29\n      swap2\n      swap1\n      tag_30\n      jump\t// in\n    tag_29:\n      tag_31\n      jump\t// in\n    tag_28:\n      stop\n        /* \"contracts/AIModelRegistry.sol\":786:1273  function getModelByIndex(uint256 _index)... */\n    tag_11:\n        /* \"contracts/AIModelRegistry.sol\":889:896  address */\n      0x00\n        /* \"contracts/AIModelRegistry.sol\":911:924  string memory */\n      0x60\n        /* \"contracts/AIModelRegistry.sol\":939:952  string memory */\n      dup1\n        /* \"contracts/AIModelRegistry.sol\":967:980  string memory */\n      0x60\n        /* \"contracts/AIModelRegistry.sol\":995:1008  string memory */\n      dup1\n        /* \"contracts/AIModelRegistry.sol\":1023:1030  uint256 */\n      0x00\n        /* \"contracts/AIModelRegistry.sol\":1075:1085  modelCount */\n      sload(0x01)\n        /* \"contracts/AIModelRegistry.sol\":1066:1072  _index */\n      dup8\n        /* \"contracts/AIModelRegistry.sol\":1066:1085  _index < modelCount */\n      lt\n        /* \"contracts/AIModelRegistry.sol\":1058:1103  require(_index < modelCount, \"Invalid index\") */\n      tag_33\n      jumpi\n      mload(0x40)\n      0x08c379a000000000000000000000000000000000000000000000000000000000\n      dup2\n      mstore\n      0x04\n      add\n      tag_34\n      swap1\n      tag_35\n      jump\t// in\n    tag_34:\n      mload(0x40)\n      dup1\n      swap2\n      sub\n      swap1\n      revert\n    tag_33:\n        /* \"contracts/AIModelRegistry.sol\":1116:1136  AIModel memory model */\n      0x00\n        /* \"contracts/AIModelRegistry.sol\":1139:1145  models */\n      dup1\n        /* \"contracts/AIModelRegistry.sol\":1139:1153  models[_index] */\n      0x00\n        /* \"contracts/AIModelRegistry.sol\":1146:1152  _index */\n      dup10\n        /* \"contracts/AIModelRegistry.sol\":1139:1153  models[_index] */\n      dup2\n      mstore\n      0x20\n      add\n      swap1\n      dup2\n      mstore\n      0x20\n      add\n      0x00\n      keccak256\n        /* \"contracts/AIModelRegistry.sol\":1116:1153  AIModel memory model = models[_index] */\n      mload(0x40)\n      dup1\n      0xc0\n      add\n      0x40\n      mstore\n      swap1\n      dup2\n      0x00\n      dup3\n      add\n      0x00\n      swap1\n      sload\n      swap1\n      0x0100\n      exp\n      swap1\n      div\n      0xffffffffffffffffffffffffffffffffffffffff\n      and\n      0xffffffffffffffffffffffffffffffffffffffff\n      and\n      0xffffffffffffffffffffffffffffffffffffffff\n      and\n      dup2\n      mstore\n      0x20\n      add\n      0x01\n      dup3\n      add\n      dup1\n      sload\n      tag_36\n      swap1\n      tag_37\n      jump\t// in\n    tag_36:\n      dup1\n      0x1f\n      add\n      0x20\n      dup1\n      swap2\n      div\n      mul\n      0x20\n      add\n      mload(0x40)\n      swap1\n      dup2\n      add\n      0x40\n      mstore\n      dup1\n      swap3\n      swap2\n      swap1\n      dup2\n      dup2\n      mstore\n      0x20\n      add\n      dup3\n      dup1\n      sload\n      tag_38\n      swap1\n      tag_37\n      jump\t// in\n    tag_38:\n      dup1\n      iszero\n      tag_39\n      jumpi\n      dup1\n      0x1f\n      lt\n      tag_40\n      jumpi\n      0x0100\n      dup1\n      dup4\n      sload\n      div\n      mul\n      dup4\n      mstore\n      swap2\n      0x20\n      add\n      swap2\n      jump(tag_39)\n    tag_40:\n      dup3\n      add\n      swap2\n      swap1\n      0x00\n      mstore\n      keccak256(0x00, 0x20)\n      swap1\n    tag_41:\n      dup2\n      sload\n      dup2\n      mstore\n      swap1\n      0x01\n      add\n      swap1\n      0x20\n      add\n      dup1\n      dup4\n      gt\n      tag_41\n      jumpi\n      dup3\n      swap1\n      sub\n      0x1f\n      and\n      dup3\n      add\n      swap2\n    tag_39:\n      pop\n      pop\n      pop\n      pop\n      pop\n      dup2\n      mstore\n      0x20\n      add\n      0x02\n      dup3\n      add\n      dup1\n      sload\n      tag_42\n      swap1\n      tag_37\n      jump\t// in\n    tag_42:\n      dup1\n      0x1f\n      add\n      0x20\n      dup1\n      swap2\n      div\n      mul\n      0x20\n      add\n      mload(0x40)\n      swap1\n      dup2\n      add\n      0x40\n      mstore\n      dup1\n      swap3\n      swap2\n      swap1\n      dup2\n      dup2\n      mstore\n      0x20\n      add\n      dup3\n      dup1\n      sload\n      tag_43\n      swap1\n      tag_37\n      jump\t// in\n    tag_43:\n      dup1\n      iszero\n      tag_44\n      jumpi\n      dup1\n      0x1f\n      lt\n      tag_45\n      jumpi\n      0x0100\n      dup1\n      dup4\n      sload\n      div\n      mul\n      dup4\n      mstore\n      swap2\n      0x20\n      add\n      swap2\n      jump(tag_44)\n    tag_45:\n      dup3\n      add\n      swap2\n      swap1\n      0x00\n      mstore\n      keccak256(0x00, 0x20)\n      swap1\n    tag_46:\n      dup2\n      sload\n      dup2\n      mstore\n      swap1\n      0x01\n      add\n      swap1\n      0x20\n      add\n      dup1\n      dup4\n      gt\n      tag_46\n      jumpi\n      dup3\n      swap1\n      sub\n      0x1f\n      and\n      dup3\n      add\n      swap2\n    tag_44:\n      pop\n      pop\n      pop\n      pop\n      pop\n      dup2\n      mstore\n      0x20\n      add\n      0x03\n      dup3\n      add\n      dup1\n      sload\n      tag_47\n      swap1\n      tag_37\n      jump\t// in\n    tag_47:\n      dup1\n      0x1f\n      add\n      0x20\n      dup1\n      swap2\n      div\n      mul\n      0x20\n      add\n      mload(0x40)\n      swap1\n      dup2\n      add\n      0x40\n      mstore\n      dup1\n      swap3\n      swap2\n      swap1\n      dup2\n      dup2\n      mstore\n      0x20\n      add\n      dup3\n      dup1\n      sload\n      tag_48\n      swap1\n      tag_37\n      jump\t// in\n    tag_48:\n      dup1\n      iszero\n      tag_49\n      jumpi\n      dup1\n      0x1f\n      lt\n      tag_50\n      jumpi\n      0x0100\n      dup1\n      dup4\n      sload\n      div\n      mul\n      dup4\n      mstore\n      swap2\n      0x20\n      add\n      swap2\n      jump(tag_49)\n    tag_50:\n      dup3\n      add\n      swap2\n      swap1\n      0x00\n      mstore\n      keccak256(0x00, 0x20)\n      swap1\n    tag_51:\n      dup2\n      sload\n      dup2\n      mstore\n      swap1\n      0x01\n      add\n      swap1\n      0x20\n      add\n      dup1\n      dup4\n      gt\n      tag_51\n      jumpi\n      dup3\n      swap1\n      sub\n      0x1f\n      and\n      dup3\n      add\n      swap2\n    tag_49:\n      pop\n      pop\n      pop\n      pop\n      pop\n      dup2\n      mstore\n      0x20\n      add\n      0x04\n      dup3\n      add\n      dup1\n      sload\n      tag_52\n      swap1\n      tag_37\n      jump\t// in\n    tag_52:\n      dup1\n      0x1f\n      add\n      0x20\n      dup1\n      swap2\n      div\n      mul\n      0x20\n      add\n      mload(0x40)\n      swap1\n      dup2\n      add\n      0x40\n      mstore\n      dup1\n      swap3\n      swap2\n      swap1\n      dup2\n      dup2\n      mstore\n      0x20\n      add\n      dup3\n      dup1\n      sload\n      tag_53\n      swap1\n      tag_37\n      jump\t// in\n    tag_53:\n      dup1\n      iszero\n      tag_54\n      jumpi\n      dup1\n      0x1f\n      lt\n      tag_55\n      jumpi\n      0x0100\n      dup1\n      dup4\n      sload\n      div\n      mul\n      dup4\n      mstore\n      swap2\n      0x20\n      add\n      swap2\n      jump(tag_54)\n    tag_55:\n      dup3\n      add\n      swap2\n      swap1\n      0x00\n      mstore\n      keccak256(0x00, 0x20)\n      swap1\n    tag_56:\n      dup2\n      sload\n      dup2\n      mstore\n      swap1\n      0x01\n      add\n      swap1\n      0x20\n      add\n      dup1\n      dup4\n      gt\n      tag_56\n      jumpi\n      dup3\n      swap1\n      sub\n      0x1f\n      and\n      dup3\n      add\n      swap2\n    tag_54:\n      pop\n      pop\n      pop\n      pop\n      pop\n      dup2\n      mstore\n      0x20\n      add\n      0x05\n      dup3\n      add\n      sload\n      dup2\n      mstore\n      pop\n      pop\n      swap1\n      pop\n        /* \"contracts/AIModelRegistry.sol\":1172:1177  model */\n      dup1\n        /* \"contracts/AIModelRegistry.sol\":1172:1191  model.clientAddress */\n      0x00\n      add\n      mload\n        /* \"contracts/AIModelRegistry.sol\":1193:1198  model */\n      dup2\n        /* \"contracts/AIModelRegistry.sol\":1193:1208  model.modelType */\n      0x20\n      add\n      mload\n        /* \"contracts/AIModelRegistry.sol\":1210:1215  model */\n      dup3\n        /* \"contracts/AIModelRegistry.sol\":1210:1221  model.hash1 */\n      0x40\n      add\n      mload\n        /* \"contracts/AIModelRegistry.sol\":1223:1228  model */\n      dup4\n        /* \"contracts/AIModelRegistry.sol\":1223:1234  model.hash2 */\n      0x60\n      add\n      mload\n        /* \"contracts/AIModelRegistry.sol\":1236:1241  model */\n      dup5\n        /* \"contracts/AIModelRegistry.sol\":1236:1247  model.hash3 */\n      0x80\n      add\n      mload\n        /* \"contracts/AIModelRegistry.sol\":1249:1254  model */\n      dup6\n        /* \"contracts/AIModelRegistry.sol\":1249:1264  model.timestamp */\n      0xa0\n      add\n      mload\n        /* \"contracts/AIModelRegistry.sol\":1164:1265  return (model.clientAddress, model.modelType, model.hash1, model.hash2, model.hash3, model.timestamp) */\n      swap7\n      pop\n      swap7\n      pop\n      swap7\n      pop\n      swap7\n      pop\n      swap7\n      pop\n      swap7\n      pop\n      pop\n        /* \"contracts/AIModelRegistry.sol\":786:1273  function getModelByIndex(uint256 _index)... */\n      swap2\n      swap4\n      swap6\n      pop\n      swap2\n      swap4\n      swap6\n      jump\t// out\n        /* \"contracts/AIModelRegistry.sol\":1281:2285  function getModelsByType(string memory _modelType) public view returns (uint256[] memory) {... */\n    tag_17:\n        /* \"contracts/AIModelRegistry.sol\":1353:1369  uint256[] memory */\n      0x60\n        /* \"contracts/AIModelRegistry.sol\":1382:1408  uint256 matchingModelCount */\n      0x00\n        /* \"contracts/AIModelRegistry.sol\":1501:1510  uint256 i */\n      dup1\n        /* \"contracts/AIModelRegistry.sol\":1496:1714  for (uint256 i = 0; i < modelCount; i++) {... */\n    tag_58:\n        /* \"contracts/AIModelRegistry.sol\":1520:1530  modelCount */\n      sload(0x01)\n        /* \"contracts/AIModelRegistry.sol\":1516:1517  i */\n      dup2\n        /* \"contracts/AIModelRegistry.sol\":1516:1530  i < modelCount */\n      lt\n        /* \"contracts/AIModelRegistry.sol\":1496:1714  for (uint256 i = 0; i < modelCount; i++) {... */\n      iszero\n      tag_59\n      jumpi\n        /* \"contracts/AIModelRegistry.sol\":1552:1572  AIModel memory model */\n      0x00\n        /* \"contracts/AIModelRegistry.sol\":1575:1581  models */\n      dup1\n        /* \"contracts/AIModelRegistry.sol\":1575:1584  models[i] */\n      0x00\n        /* \"contracts/AIModelRegistry.sol\":1582:1583  i */\n      dup4\n        /* \"contracts/AIModelRegistry.sol\":1575:1584  models[i] */\n      dup2\n      mstore\n      0x20\n      add\n      swap1\n      dup2\n      mstore\n      0x20\n      add\n      0x00\n      keccak256\n        /* \"contracts/AIModelRegistry.sol\":1552:1584  AIModel memory model = models[i] */\n      mload(0x40)\n      dup1\n      0xc0\n      add\n      0x40\n      mstore\n      swap1\n      dup2\n      0x00\n      dup3\n      add\n      0x00\n      swap1\n      sload\n      swap1\n      0x0100\n      exp\n      swap1\n      div\n      0xffffffffffffffffffffffffffffffffffffffff\n      and\n      0xffffffffffffffffffffffffffffffffffffffff\n      and\n      0xffffffffffffffffffffffffffffffffffffffff\n      and\n      dup2\n      mstore\n      0x20\n      add\n      0x01\n      dup3\n      add\n      dup1\n      sload\n      tag_61\n      swap1\n      tag_37\n      jump\t// in\n    tag_61:\n      dup1\n      0x1f\n      add\n      0x20\n      dup1\n      swap2\n      div\n      mul\n      0x20\n      add\n      mload(0x40)\n      swap1\n      dup2\n      add\n      0x40\n      mstore\n      dup1\n      swap3\n      swap2\n      swap1\n      dup2\n      dup2\n      mstore\n      0x20\n      add\n      dup3\n      dup1\n      sload\n      tag_62\n      swap1\n      tag_37\n      jump\t// in\n    tag_62:\n      dup1\n      iszero\n      tag_63\n      jumpi\n      dup1\n      0x1f\n      lt\n      tag_64\n      jumpi\n      0x0100\n      dup1\n      dup4\n      sload\n      div\n      mul\n      dup4\n      mstore\n      swap2\n      0x20\n      add\n      swap2\n      jump(tag_63)\n    tag_64:\n      dup3\n      add\n      swap2\n      swap1\n      0x00\n      mstore\n      keccak256(0x00, 0x20)\n      swap1\n    tag_65:\n      dup2\n      sload\n      dup2\n      mstore\n      swap1\n      0x01\n      add\n      swap1\n      0x20\n      add\n      dup1\n      dup4\n      gt\n      tag_65\n      jumpi\n      dup3\n      swap1\n      sub\n      0x1f\n      and\n      dup3\n      add\n      swap2\n    tag_63:\n      pop\n      pop\n      pop\n      pop\n      pop\n      dup2\n      mstore\n      0x20\n      add\n      0x02\n      dup3\n      add\n      dup1\n      sload\n      tag_66\n      swap1\n      tag_37\n      jump\t// in\n    tag_66:\n      dup1\n      0x1f\n      add\n      0x20\n      dup1\n      swap2\n      div\n      mul\n      0x20\n      add\n      mload(0x40)\n      swap1\n      dup2\n      add\n      0x40\n      mstore\n      dup1\n      swap3\n      swap2\n      swap1\n      dup2\n      dup2\n      mstore\n      0x20\n      add\n      dup3\n      dup1\n      sload\n      tag_67\n      swap1\n      tag_37\n      jump\t// in\n    tag_67:\n      dup1\n      iszero\n      tag_68\n      jumpi\n      dup1\n      0x1f\n      lt\n      tag_69\n      jumpi\n      0x0100\n      dup1\n      dup4\n      sload\n      div\n      mul\n      dup4\n      mstore\n      swap2\n      0x20\n      add\n      swap2\n      jump(tag_68)\n    tag_69:\n      dup3\n      add\n      swap2\n      swap1\n      0x00\n      mstore\n      keccak256(0x00, 0x20)\n      swap1\n    tag_70:\n      dup2\n      sload\n      dup2\n      mstore\n      swap1\n      0x01\n      add\n      swap1\n      0x20\n      add\n      dup1\n      dup4\n      gt\n      tag_70\n      jumpi\n      dup3\n      swap1\n      sub\n      0x1f\n      and\n      dup3\n      add\n      swap2\n    tag_68:\n      pop\n      pop\n      pop\n      pop\n      pop\n      dup2\n      mstore\n      0x20\n      add\n      0x03\n      dup3\n      add\n      dup1\n      sload\n      tag_71\n      swap1\n      tag_37\n      jump\t// in\n    tag_71:\n      dup1\n      0x1f\n      add\n      0x20\n      dup1\n      swap2\n      div\n      mul\n      0x20\n      add\n      mload(0x40)\n      swap1\n      dup2\n      add\n      0x40\n      mstore\n      dup1\n      swap3\n      swap2\n      swap1\n      dup2\n      dup2\n      mstore\n      0x20\n      add\n      dup3\n      dup1\n      sload\n      tag_72\n      swap1\n      tag_37\n      jump\t// in\n    tag_72:\n      dup1\n      iszero\n      tag_73\n      jumpi\n      dup1\n      0x1f\n      lt\n      tag_74\n      jumpi\n      0x0100\n      dup1\n      dup4\n      sload\n      div\n      mul\n      dup4\n      mstore\n      swap2\n      0x20\n      add\n      swap2\n      jump(tag_73)\n    tag_74:\n      dup3\n      add\n      swap2\n      swap1\n      0x00\n      mstore\n      keccak256(0x00, 0x20)\n      swap1\n    tag_75:\n      dup2\n      sload\n      dup2\n      mstore\n      swap1\n      0x01\n      add\n      swap1\n      0x20\n      add\n      dup1\n      dup4\n      gt\n      tag_75\n      jumpi\n      dup3\n      swap1\n      sub\n      0x1f\n      and\n      dup3\n      add\n      swap2\n    tag_73:\n      pop\n      pop\n      pop\n      pop\n      pop\n      dup2\n      mstore\n      0x20\n      add\n      0x04\n      dup3\n      add\n      dup1\n      sload\n      tag_76\n      swap1\n      tag_37\n      jump\t// in\n    tag_76:\n      dup1\n      0x1f\n      add\n      0x20\n      dup1\n      swap2\n      div\n      mul\n      0x20\n      add\n      mload(0x40)\n      swap1\n      dup2\n      add\n      0x40\n      mstore\n      dup1\n      swap3\n      swap2\n      swap1\n      dup2\n      dup2\n      mstore\n      0x20\n      add\n      dup3\n      dup1\n      sload\n      tag_77\n      swap1\n      tag_37\n      jump\t// in\n    tag_77:\n      dup1\n      iszero\n      tag_78\n      jumpi\n      dup1\n      0x1f\n      lt\n      tag_79\n      jumpi\n      0x0100\n      dup1\n      dup4\n      sload\n      div\n      mul\n      dup4\n      mstore\n      swap2\n      0x20\n      add\n      swap2\n      jump(tag_78)\n    tag_79:\n      dup3\n      add\n      swap2\n      swap1\n      0x00\n      mstore\n      keccak256(0x00, 0x20)\n      swap1\n    tag_80:\n      dup2\n      sload\n      dup2\n      mstore\n      swap1\n      0x01\n      add\n      swap1\n      0x20\n      add\n      dup1\n      dup4\n      gt\n      tag_80\n      jumpi\n      dup3\n      swap1\n      sub\n      0x1f\n      and\n      dup3\n      add\n      swap2\n    tag_78:\n      pop\n      pop\n      pop\n      pop\n      pop\n      dup2\n      mstore\n      0x20\n      add\n      0x05\n      dup3\n      add\n      sload\n      dup2\n      mstore\n      pop\n      pop\n      swap1\n      pop\n        /* \"contracts/AIModelRegistry.sol\":1603:1646  compareStrings(model.modelType, _modelType) */\n      tag_81\n        /* \"contracts/AIModelRegistry.sol\":1618:1623  model */\n      dup2\n        /* \"contracts/AIModelRegistry.sol\":1618:1633  model.modelType */\n      0x20\n      add\n      mload\n        /* \"contracts/AIModelRegistry.sol\":1635:1645  _modelType */\n      dup7\n        /* \"contracts/AIModelRegistry.sol\":1603:1617  compareStrings */\n      tag_82\n        /* \"contracts/AIModelRegistry.sol\":1603:1646  compareStrings(model.modelType, _modelType) */\n      jump\t// in\n    tag_81:\n        /* \"contracts/AIModelRegistry.sol\":1599:1703  if (compareStrings(model.modelType, _modelType)) {... */\n      iszero\n      tag_83\n      jumpi\n        /* \"contracts/AIModelRegistry.sol\":1667:1687  matchingModelCount++ */\n      dup3\n      dup1\n      tag_84\n      swap1\n      tag_85\n      jump\t// in\n    tag_84:\n      swap4\n      pop\n      pop\n        /* \"contracts/AIModelRegistry.sol\":1599:1703  if (compareStrings(model.modelType, _modelType)) {... */\n    tag_83:\n        /* \"contracts/AIModelRegistry.sol\":1537:1714  {... */\n      pop\n        /* \"contracts/AIModelRegistry.sol\":1532:1535  i++ */\n      dup1\n      dup1\n      tag_86\n      swap1\n      tag_85\n      jump\t// in\n    tag_86:\n      swap2\n      pop\n      pop\n        /* \"contracts/AIModelRegistry.sol\":1496:1714  for (uint256 i = 0; i < modelCount; i++) {... */\n      jump(tag_58)\n    tag_59:\n      pop\n        /* \"contracts/AIModelRegistry.sol\":1790:1827  uint256[] memory matchingModelIndexes */\n      0x00\n        /* \"contracts/AIModelRegistry.sol\":1844:1862  matchingModelCount */\n      dup2\n        /* \"contracts/AIModelRegistry.sol\":1830:1863  new uint256[](matchingModelCount) */\n      0xffffffffffffffff\n      dup2\n      gt\n      iszero\n      tag_87\n      jumpi\n      tag_88\n      tag_89\n      jump\t// in\n    tag_88:\n    tag_87:\n      mload(0x40)\n      swap1\n      dup1\n      dup3\n      mstore\n      dup1\n      0x20\n      mul\n      0x20\n      add\n      dup3\n      add\n      0x40\n      mstore\n      dup1\n      iszero\n      tag_90\n      jumpi\n      dup2\n      0x20\n      add\n      0x20\n      dup3\n      mul\n      dup1\n      calldatasize\n      dup4\n      calldatacopy\n      dup1\n      dup3\n      add\n      swap2\n      pop\n      pop\n      swap1\n      pop\n    tag_90:\n      pop\n        /* \"contracts/AIModelRegistry.sol\":1790:1863  uint256[] memory matchingModelIndexes = new uint256[](matchingModelCount) */\n      swap1\n      pop\n        /* \"contracts/AIModelRegistry.sol\":1874:1894  uint256 currentIndex */\n      0x00\n        /* \"contracts/AIModelRegistry.sol\":1974:1983  uint256 i */\n      dup1\n        /* \"contracts/AIModelRegistry.sol\":1969:2238  for (uint256 i = 0; i < modelCount; i++) {... */\n    tag_91:\n        /* \"contracts/AIModelRegistry.sol\":1993:2003  modelCount */\n      sload(0x01)\n        /* \"contracts/AIModelRegistry.sol\":1989:1990  i */\n      dup2\n        /* \"contracts/AIModelRegistry.sol\":1989:2003  i < modelCount */\n      lt\n        /* \"contracts/AIModelRegistry.sol\":1969:2238  for (uint256 i = 0; i < modelCount; i++) {... */\n      iszero\n      tag_92\n      jumpi\n        /* \"contracts/AIModelRegistry.sol\":2025:2045  AIModel memory model */\n      0x00\n        /* \"contracts/AIModelRegistry.sol\":2048:2054  models */\n      dup1\n        /* \"contracts/AIModelRegistry.sol\":2048:2057  models[i] */\n      0x00\n        /* \"contracts/AIModelRegistry.sol\":2055:2056  i */\n      dup4\n        /* \"contracts/AIModelRegistry.sol\":2048:2057  models[i] */\n      dup2\n      mstore\n      0x20\n      add\n      swap1\n      dup2\n      mstore\n      0x20\n      add\n      0x00\n      keccak256\n        /* \"contracts/AIModelRegistry.sol\":2025:2057  AIModel memory model = models[i] */\n      mload(0x40)\n      dup1\n      0xc0\n      add\n      0x40\n      mstore\n      swap1\n      dup2\n      0x00\n      dup3\n      add\n      0x00\n      swap1\n      sload\n      swap1\n      0x0100\n      exp\n      swap1\n      div\n      0xffffffffffffffffffffffffffffffffffffffff\n      and\n      0xffffffffffffffffffffffffffffffffffffffff\n      and\n      0xffffffffffffffffffffffffffffffffffffffff\n      and\n      dup2\n      mstore\n      0x20\n      add\n      0x01\n      dup3\n      add\n      dup1\n      sload\n      tag_94\n      swap1\n      tag_37\n      jump\t// in\n    tag_94:\n      dup1\n      0x1f\n      add\n      0x20\n      dup1\n      swap2\n      div\n      mul\n      0x20\n      add\n      mload(0x40)\n      swap1\n      dup2\n      add\n      0x40\n      mstore\n      dup1\n      swap3\n      swap2\n      swap1\n      dup2\n      dup2\n      mstore\n      0x20\n      add\n      dup3\n      dup1\n      sload\n      tag_95\n      swap1\n      tag_37\n      jump\t// in\n    tag_95:\n      dup1\n      iszero\n      tag_96\n      jumpi\n      dup1\n      0x1f\n      lt\n      tag_97\n      jumpi\n      0x0100\n      dup1\n      dup4\n      sload\n      div\n      mul\n      dup4\n      mstore\n      swap2\n      0x20\n      add\n      swap2\n      jump(tag_96)\n    tag_97:\n      dup3\n      add\n      swap2\n      swap1\n      0x00\n      mstore\n      keccak256(0x00, 0x20)\n      swap1\n    tag_98:\n      dup2\n      sload\n      dup2\n      mstore\n      swap1\n      0x01\n      add\n      swap1\n      0x20\n      add\n      dup1\n      dup4\n      gt\n      tag_98\n      jumpi\n      dup3\n      swap1\n      sub\n      0x1f\n      and\n      dup3\n      add\n      swap2\n    tag_96:\n      pop\n      pop\n      pop\n      pop\n      pop\n      dup2\n      mstore\n      0x20\n      add\n      0x02\n      dup3\n      add\n      dup1\n      sload\n      tag_99\n      swap1\n      tag_37\n      jump\t// in\n    tag_99:\n      dup1\n      0x1f\n      add\n      0x20\n      dup1\n      swap2\n      div\n      mul\n      0x20\n      add\n      mload(0x40)\n      swap1\n      dup2\n      add\n      0x40\n      mstore\n      dup1\n      swap3\n      swap2\n      swap1\n      dup2\n      dup2\n      mstore\n      0x20\n      add\n      dup3\n      dup1\n      sload\n      tag_100\n      swap1\n      tag_37\n      jump\t// in\n    tag_100:\n      dup1\n      iszero\n      tag_101\n      jumpi\n      dup1\n      0x1f\n      lt\n      tag_102\n      jumpi\n      0x0100\n      dup1\n      dup4\n      sload\n      div\n      mul\n      dup4\n      mstore\n      swap2\n      0x20\n      add\n      swap2\n      jump(tag_101)\n    tag_102:\n      dup3\n      add\n      swap2\n      swap1\n      0x00\n      mstore\n      keccak256(0x00, 0x20)\n      swap1\n    tag_103:\n      dup2\n      sload\n      dup2\n      mstore\n      swap1\n      0x01\n      add\n      swap1\n      0x20\n      add\n      dup1\n      dup4\n      gt\n      tag_103\n      jumpi\n      dup3\n      swap1\n      sub\n      0x1f\n      and\n      dup3\n      add\n      swap2\n    tag_101:\n      pop\n      pop\n      pop\n      pop\n      pop\n      dup2\n      mstore\n      0x20\n      add\n      0x03\n      dup3\n      add\n      dup1\n      sload\n      tag_104\n      swap1\n      tag_37\n      jump\t// in\n    tag_104:\n      dup1\n      0x1f\n      add\n      0x20\n      dup1\n      swap2\n      div\n      mul\n      0x20\n      add\n      mload(0x40)\n      swap1\n      dup2\n      add\n      0x40\n      mstore\n      dup1\n      swap3\n      swap2\n      swap1\n      dup2\n      dup2\n      mstore\n      0x20\n      add\n      dup3\n      dup1\n      sload\n      tag_105\n      swap1\n      tag_37\n      jump\t// in\n    tag_105:\n      dup1\n      iszero\n      tag_106\n      jumpi\n      dup1\n      0x1f\n      lt\n      tag_107\n      jumpi\n      0x0100\n      dup1\n      dup4\n      sload\n      div\n      mul\n      dup4\n      mstore\n      swap2\n      0x20\n      add\n      swap2\n      jump(tag_106)\n    tag_107:\n      dup3\n      add\n      swap2\n      swap1\n      0x00\n      mstore\n      keccak256(0x00, 0x20)\n      swap1\n    tag_108:\n      dup2\n      sload\n      dup2\n      mstore\n      swap1\n      0x01\n      add\n      swap1\n      0x20\n      add\n      dup1\n      dup4\n      gt\n      tag_108\n      jumpi\n      dup3\n      swap1\n      sub\n      0x1f\n      and\n      dup3\n      add\n      swap2\n    tag_106:\n      pop\n      pop\n      pop\n      pop\n      pop\n      dup2\n      mstore\n      0x20\n      add\n      0x04\n      dup3\n      add\n      dup1\n      sload\n      tag_109\n      swap1\n      tag_37\n      jump\t// in\n    tag_109:\n      dup1\n      0x1f\n      add\n      0x20\n      dup1\n      swap2\n      div\n      mul\n      0x20\n      add\n      mload(0x40)\n      swap1\n      dup2\n      add\n      0x40\n      mstore\n      dup1\n      swap3\n      swap2\n      swap1\n      dup2\n      dup2\n      mstore\n      0x20\n      add\n      dup3\n      dup1\n      sload\n      tag_110\n      swap1\n      tag_37\n      jump\t// in\n    tag_110:\n      dup1\n      iszero\n      tag_111\n      jumpi\n      dup1\n      0x1f\n      lt\n      tag_112\n      jumpi\n      0x0100\n      dup1\n      dup4\n      sload\n      div\n      mul\n      dup4\n      mstore\n      swap2\n      0x20\n      add\n      swap2\n      jump(tag_111)\n    tag_112:\n      dup3\n      add\n      swap2\n      swap1\n      0x00\n      mstore\n      keccak256(0x00, 0x20)\n      swap1\n    tag_113:\n      dup2\n      sload\n      dup2\n      mstore\n      swap1\n      0x01\n      add\n      swap1\n      0x20\n      add\n      dup1\n      dup4\n      gt\n      tag_113\n      jumpi\n      dup3\n      swap1\n      sub\n      0x1f\n      and\n      dup3\n      add\n      swap2\n    tag_111:\n      pop\n      pop\n      pop\n      pop\n      pop\n      dup2\n      mstore\n      0x20\n      add\n      0x05\n      dup3\n      add\n      sload\n      dup2\n      mstore\n      pop\n      pop\n      swap1\n      pop\n        /* \"contracts/AIModelRegistry.sol\":2076:2119  compareStrings(model.modelType, _modelType) */\n      tag_114\n        /* \"contracts/AIModelRegistry.sol\":2091:2096  model */\n      dup2\n        /* \"contracts/AIModelRegistry.sol\":2091:2106  model.modelType */\n      0x20\n      add\n      mload\n        /* \"contracts/AIModelRegistry.sol\":2108:2118  _modelType */\n      dup9\n        /* \"contracts/AIModelRegistry.sol\":2076:2090  compareStrings */\n      tag_82\n        /* \"contracts/AIModelRegistry.sol\":2076:2119  compareStrings(model.modelType, _modelType) */\n      jump\t// in\n    tag_114:\n        /* \"contracts/AIModelRegistry.sol\":2072:2227  if (compareStrings(model.modelType, _modelType)) {... */\n      iszero\n      tag_115\n      jumpi\n        /* \"contracts/AIModelRegistry.sol\":2177:2178  i */\n      dup2\n        /* \"contracts/AIModelRegistry.sol\":2140:2160  matchingModelIndexes */\n      dup5\n        /* \"contracts/AIModelRegistry.sol\":2161:2173  currentIndex */\n      dup5\n        /* \"contracts/AIModelRegistry.sol\":2140:2174  matchingModelIndexes[currentIndex] */\n      dup2\n      mload\n      dup2\n      lt\n      tag_116\n      jumpi\n      tag_117\n      tag_118\n      jump\t// in\n    tag_117:\n    tag_116:\n      0x20\n      mul\n      0x20\n      add\n      add\n        /* \"contracts/AIModelRegistry.sol\":2140:2178  matchingModelIndexes[currentIndex] = i */\n      dup2\n      dup2\n      mstore\n      pop\n      pop\n        /* \"contracts/AIModelRegistry.sol\":2197:2211  currentIndex++ */\n      dup3\n      dup1\n      tag_119\n      swap1\n      tag_85\n      jump\t// in\n    tag_119:\n      swap4\n      pop\n      pop\n        /* \"contracts/AIModelRegistry.sol\":2072:2227  if (compareStrings(model.modelType, _modelType)) {... */\n    tag_115:\n        /* \"contracts/AIModelRegistry.sol\":2010:2238  {... */\n      pop\n        /* \"contracts/AIModelRegistry.sol\":2005:2008  i++ */\n      dup1\n      dup1\n      tag_120\n      swap1\n      tag_85\n      jump\t// in\n    tag_120:\n      swap2\n      pop\n      pop\n        /* \"contracts/AIModelRegistry.sol\":1969:2238  for (uint256 i = 0; i < modelCount; i++) {... */\n      jump(tag_91)\n    tag_92:\n      pop\n        /* \"contracts/AIModelRegistry.sol\":2257:2277  matchingModelIndexes */\n      dup2\n        /* \"contracts/AIModelRegistry.sol\":2250:2277  return matchingModelIndexes */\n      swap4\n      pop\n      pop\n      pop\n      pop\n        /* \"contracts/AIModelRegistry.sol\":1281:2285  function getModelsByType(string memory _modelType) public view returns (uint256[] memory) {... */\n      swap2\n      swap1\n      pop\n      jump\t// out\n        /* \"contracts/AIModelRegistry.sol\":283:324  mapping(uint256 => AIModel) public models */\n    tag_22:\n      mstore(0x20, 0x00)\n      dup1\n      0x00\n      mstore\n      keccak256(0x00, 0x40)\n      0x00\n      swap2\n      pop\n      swap1\n      pop\n      dup1\n      0x00\n      add\n      0x00\n      swap1\n      sload\n      swap1\n      0x0100\n      exp\n      swap1\n      div\n      0xffffffffffffffffffffffffffffffffffffffff\n      and\n      swap1\n      dup1\n      0x01\n      add\n      dup1\n      sload\n      tag_121\n      swap1\n      tag_37\n      jump\t// in\n    tag_121:\n      dup1\n      0x1f\n      add\n      0x20\n      dup1\n      swap2\n      div\n      mul\n      0x20\n      add\n      mload(0x40)\n      swap1\n      dup2\n      add\n      0x40\n      mstore\n      dup1\n      swap3\n      swap2\n      swap1\n      dup2\n      dup2\n      mstore\n      0x20\n      add\n      dup3\n      dup1\n      sload\n      tag_122\n      swap1\n      tag_37\n      jump\t// in\n    tag_122:\n      dup1\n      iszero\n      tag_123\n      jumpi\n      dup1\n      0x1f\n      lt\n      tag_124\n      jumpi\n      0x0100\n      dup1\n      dup4\n      sload\n      div\n      mul\n      dup4\n      mstore\n      swap2\n      0x20\n      add\n      swap2\n      jump(tag_123)\n    tag_124:\n      dup3\n      add\n      swap2\n      swap1\n      0x00\n      mstore\n      keccak256(0x00, 0x20)\n      swap1\n    tag_125:\n      dup2\n      sload\n      dup2\n      mstore\n      swap1\n      0x01\n      add\n      swap1\n      0x20\n      add\n      dup1\n      dup4\n      gt\n      tag_125\n      jumpi\n      dup3\n      swap1\n      sub\n      0x1f\n      and\n      dup3\n      add\n      swap2\n    tag_123:\n      pop\n      pop\n      pop\n      pop\n      pop\n      swap1\n      dup1\n      0x02\n      add\n      dup1\n      sload\n      tag_126\n      swap1\n      tag_37\n      jump\t// in\n    tag_126:\n      dup1\n      0x1f\n      add\n      0x20\n      dup1\n      swap2\n      div\n      mul\n      0x20\n      add\n      mload(0x40)\n      swap1\n      dup2\n      add\n      0x40\n      mstore\n      dup1\n      swap3\n      swap2\n      swap1\n      dup2\n      dup2\n      mstore\n      0x20\n      add\n      dup3\n      dup1\n      sload\n      tag_127\n      swap1\n      tag_37\n      jump\t// in\n    tag_127:\n      dup1\n      iszero\n      tag_128\n      jumpi\n      dup1\n      0x1f\n      lt\n      tag_129\n      jumpi\n      0x0100\n      dup1\n      dup4\n      sload\n      div\n      mul\n      dup4\n      mstore\n      swap2\n      0x20\n      add\n      swap2\n      jump(tag_128)\n    tag_129:\n      dup3\n      add\n      swap2\n      swap1\n      0x00\n      mstore\n      keccak256(0x00, 0x20)\n      swap1\n    tag_130:\n      dup2\n      sload\n      dup2\n      mstore\n      swap1\n      0x01\n      add\n      swap1\n      0x20\n      add\n      dup1\n      dup4\n      gt\n      tag_130\n      jumpi\n      dup3\n      swap1\n      sub\n      0x1f\n      and\n      dup3\n      add\n      swap2\n    tag_128:\n      pop\n      pop\n      pop\n      pop\n      pop\n      swap1\n      dup1\n      0x03\n      add\n      dup1\n      sload\n      tag_131\n      swap1\n      tag_37\n      jump\t// in\n    tag_131:\n      dup1\n      0x1f\n      add\n      0x20\n      dup1\n      swap2\n      div\n      mul\n      0x20\n      add\n      mload(0x40)\n      swap1\n      dup2\n      add\n      0x40\n      mstore\n      dup1\n      swap3\n      swap2\n      swap1\n      dup2\n      dup2\n      mstore\n      0x20\n      add\n      dup3\n      dup1\n      sload\n      tag_132\n      swap1\n      tag_37\n      jump\t// in\n    tag_132:\n      dup1\n      iszero\n      tag_133\n      jumpi\n      dup1\n      0x1f\n      lt\n      tag_134\n      jumpi\n      0x0100\n      dup1\n      dup4\n      sload\n      div\n      mul\n      dup4\n      mstore\n      swap2\n      0x20\n      add\n      swap2\n      jump(tag_133)\n    tag_134:\n      dup3\n      add\n      swap2\n      swap1\n      0x00\n      mstore\n      keccak256(0x00, 0x20)\n      swap1\n    tag_135:\n      dup2\n      sload\n      dup2\n      mstore\n      swap1\n      0x01\n      add\n      swap1\n      0x20\n      add\n      dup1\n      dup4\n      gt\n      tag_135\n      jumpi\n      dup3\n      swap1\n      sub\n      0x1f\n      and\n      dup3\n      add\n      swap2\n    tag_133:\n      pop\n      pop\n      pop\n      pop\n      pop\n      swap1\n      dup1\n      0x04\n      add\n      dup1\n      sload\n      tag_136\n      swap1\n      tag_37\n      jump\t// in\n    tag_136:\n      dup1\n      0x1f\n      add\n      0x20\n      dup1\n      swap2\n      div\n      mul\n      0x20\n      add\n      mload(0x40)\n      swap1\n      dup2\n      add\n      0x40\n      mstore\n      dup1\n      swap3\n      swap2\n      swap1\n      dup2\n      dup2\n      mstore\n      0x20\n      add\n      dup3\n      dup1\n      sload\n      tag_137\n      swap1\n      tag_37\n      jump\t// in\n    tag_137:\n      dup1\n      iszero\n      tag_138\n      jumpi\n      dup1\n      0x1f\n      lt\n      tag_139\n      jumpi\n      0x0100\n      dup1\n      dup4\n      sload\n      div\n      mul\n      dup4\n      mstore\n      swap2\n      0x20\n      add\n      swap2\n      jump(tag_138)\n    tag_139:\n      dup3\n      add\n      swap2\n      swap1\n      0x00\n      mstore\n      keccak256(0x00, 0x20)\n      swap1\n    tag_140:\n      dup2\n      sload\n      dup2\n      mstore\n      swap1\n      0x01\n      add\n      swap1\n      0x20\n      add\n      dup1\n      dup4\n      gt\n      tag_140\n      jumpi\n      dup3\n      swap1\n      sub\n      0x1f\n      and\n      dup3\n      add\n      swap2\n    tag_138:\n      pop\n      pop\n      pop\n      pop\n      pop\n      swap1\n      dup1\n      0x05\n      add\n      sload\n      swap1\n      pop\n      dup7\n      jump\t// out\n        /* \"contracts/AIModelRegistry.sol\":331:356  uint256 public modelCount */\n    tag_25:\n      sload(0x01)\n      dup2\n      jump\t// out\n        /* \"contracts/AIModelRegistry.sol\":365:778  function registerModel(... */\n    tag_31:\n        /* \"contracts/AIModelRegistry.sol\":555:579  uint256 currentTimestamp */\n      0x00\n        /* \"contracts/AIModelRegistry.sol\":582:597  block.timestamp */\n      timestamp\n        /* \"contracts/AIModelRegistry.sol\":555:597  uint256 currentTimestamp = block.timestamp */\n      swap1\n      pop\n        /* \"contracts/AIModelRegistry.sol\":608:631  AIModel memory newModel */\n      0x00\n        /* \"contracts/AIModelRegistry.sol\":634:707  AIModel(msg.sender, _modelType, _hash1, _hash2, _hash3, currentTimestamp) */\n      mload(0x40)\n      dup1\n      0xc0\n      add\n      0x40\n      mstore\n      dup1\n        /* \"contracts/AIModelRegistry.sol\":642:652  msg.sender */\n      caller\n        /* \"contracts/AIModelRegistry.sol\":634:707  AIModel(msg.sender, _modelType, _hash1, _hash2, _hash3, currentTimestamp) */\n      0xffffffffffffffffffffffffffffffffffffffff\n      and\n      dup2\n      mstore\n      0x20\n      add\n        /* \"contracts/AIModelRegistry.sol\":654:664  _modelType */\n      dup8\n        /* \"contracts/AIModelRegistry.sol\":634:707  AIModel(msg.sender, _modelType, _hash1, _hash2, _hash3, currentTimestamp) */\n      dup2\n      mstore\n      0x20\n      add\n        /* \"contracts/AIModelRegistry.sol\":666:672  _hash1 */\n      dup7\n        /* \"contracts/AIModelRegistry.sol\":634:707  AIModel(msg.sender, _modelType, _hash1, _hash2, _hash3, currentTimestamp) */\n      dup2\n      mstore\n      0x20\n      add\n        /* \"contracts/AIModelRegistry.sol\":674:680  _hash2 */\n      dup6\n        /* \"contracts/AIModelRegistry.sol\":634:707  AIModel(msg.sender, _modelType, _hash1, _hash2, _hash3, currentTimestamp) */\n      dup2\n      mstore\n      0x20\n      add\n        /* \"contracts/AIModelRegistry.sol\":682:688  _hash3 */\n      dup5\n        /* \"contracts/AIModelRegistry.sol\":634:707  AIModel(msg.sender, _modelType, _hash1, _hash2, _hash3, currentTimestamp) */\n      dup2\n      mstore\n      0x20\n      add\n        /* \"contracts/AIModelRegistry.sol\":690:706  currentTimestamp */\n      dup4\n        /* \"contracts/AIModelRegistry.sol\":634:707  AIModel(msg.sender, _modelType, _hash1, _hash2, _hash3, currentTimestamp) */\n      dup2\n      mstore\n      pop\n        /* \"contracts/AIModelRegistry.sol\":608:707  AIModel memory newModel = AIModel(msg.sender, _modelType, _hash1, _hash2, _hash3, currentTimestamp) */\n      swap1\n      pop\n        /* \"contracts/AIModelRegistry.sol\":739:747  newModel */\n      dup1\n        /* \"contracts/AIModelRegistry.sol\":718:724  models */\n      0x00\n        /* \"contracts/AIModelRegistry.sol\":718:736  models[modelCount] */\n      dup1\n        /* \"contracts/AIModelRegistry.sol\":725:735  modelCount */\n      sload(0x01)\n        /* \"contracts/AIModelRegistry.sol\":718:736  models[modelCount] */\n      dup2\n      mstore\n      0x20\n      add\n      swap1\n      dup2\n      mstore\n      0x20\n      add\n      0x00\n      keccak256\n        /* \"contracts/AIModelRegistry.sol\":718:747  models[modelCount] = newModel */\n      0x00\n      dup3\n      add\n      mload\n      dup2\n      0x00\n      add\n      exp(0x0100, 0x00)\n      dup2\n      sload\n      dup2\n      0xffffffffffffffffffffffffffffffffffffffff\n      mul\n      not\n      and\n      swap1\n      dup4\n      0xffffffffffffffffffffffffffffffffffffffff\n      and\n      mul\n      or\n      swap1\n      sstore\n      pop\n      0x20\n      dup3\n      add\n      mload\n      dup2\n      0x01\n      add\n      swap1\n      dup2\n      tag_142\n      swap2\n      swap1\n      tag_143\n      jump\t// in\n    tag_142:\n      pop\n      0x40\n      dup3\n      add\n      mload\n      dup2\n      0x02\n      add\n      swap1\n      dup2\n      tag_144\n      swap2\n      swap1\n      tag_143\n      jump\t// in\n    tag_144:\n      pop\n      0x60\n      dup3\n      add\n      mload\n      dup2\n      0x03\n      add\n      swap1\n      dup2\n      tag_145\n      swap2\n      swap1\n      tag_143\n      jump\t// in\n    tag_145:\n      pop\n      0x80\n      dup3\n      add\n      mload\n      dup2\n      0x04\n      add\n      swap1\n      dup2\n      tag_146\n      swap2\n      swap1\n      tag_143\n      jump\t// in\n    tag_146:\n      pop\n      0xa0\n      dup3\n      add\n      mload\n      dup2\n      0x05\n      add\n      sstore\n      swap1\n      pop\n      pop\n        /* \"contracts/AIModelRegistry.sol\":758:768  modelCount */\n      0x01\n      0x00\n        /* \"contracts/AIModelRegistry.sol\":758:770  modelCount++ */\n      dup2\n      sload\n      dup1\n      swap3\n      swap2\n      swap1\n      tag_147\n      swap1\n      tag_85\n      jump\t// in\n    tag_147:\n      swap2\n      swap1\n      pop\n      sstore\n      pop\n        /* \"contracts/AIModelRegistry.sol\":544:778  {... */\n      pop\n      pop\n        /* \"contracts/AIModelRegistry.sol\":365:778  function registerModel(... */\n      pop\n      pop\n      pop\n      pop\n      jump\t// out\n        /* \"contracts/AIModelRegistry.sol\":2293:2476  function compareStrings(string memory a, string memory b) internal pure returns (bool) {... */\n    tag_82:\n        /* \"contracts/AIModelRegistry.sol\":2374:2378  bool */\n      0x00\n        /* \"contracts/AIModelRegistry.sol\":2463:2464  b */\n      dup2\n        /* \"contracts/AIModelRegistry.sol\":2445:2466  abi.encodePacked((b)) */\n      add(0x20, mload(0x40))\n      tag_149\n      swap2\n      swap1\n      tag_150\n      jump\t// in\n    tag_149:\n      mload(0x40)\n      0x20\n      dup2\n      dup4\n      sub\n      sub\n      dup2\n      mstore\n      swap1\n      0x40\n      mstore\n        /* \"contracts/AIModelRegistry.sol\":2435:2467  keccak256(abi.encodePacked((b))) */\n      dup1\n      mload\n      swap1\n      0x20\n      add\n      keccak256\n        /* \"contracts/AIModelRegistry.sol\":2427:2428  a */\n      dup4\n        /* \"contracts/AIModelRegistry.sol\":2409:2430  abi.encodePacked((a)) */\n      add(0x20, mload(0x40))\n      tag_151\n      swap2\n      swap1\n      tag_150\n      jump\t// in\n    tag_151:\n      mload(0x40)\n      0x20\n      dup2\n      dup4\n      sub\n      sub\n      dup2\n      mstore\n      swap1\n      0x40\n      mstore\n        /* \"contracts/AIModelRegistry.sol\":2399:2431  keccak256(abi.encodePacked((a))) */\n      dup1\n      mload\n      swap1\n      0x20\n      add\n      keccak256\n        /* \"contracts/AIModelRegistry.sol\":2399:2467  keccak256(abi.encodePacked((a))) == keccak256(abi.encodePacked((b))) */\n      eq\n        /* \"contracts/AIModelRegistry.sol\":2391:2468  return (keccak256(abi.encodePacked((a))) == keccak256(abi.encodePacked((b)))) */\n      swap1\n      pop\n        /* \"contracts/AIModelRegistry.sol\":2293:2476  function compareStrings(string memory a, string memory b) internal pure returns (bool) {... */\n      swap3\n      swap2\n      pop\n      pop\n      jump\t// out\n        /* \"#utility.yul\":7:82   */\n    tag_152:\n        /* \"#utility.yul\":40:46   */\n      0x00\n        /* \"#utility.yul\":73:75   */\n      0x40\n        /* \"#utility.yul\":67:76   */\n      mload\n        /* \"#utility.yul\":57:76   */\n      swap1\n      pop\n        /* \"#utility.yul\":7:82   */\n      swap1\n      jump\t// out\n        /* \"#utility.yul\":88:205   */\n    tag_153:\n        /* \"#utility.yul\":197:198   */\n      0x00\n        /* \"#utility.yul\":194:195   */\n      dup1\n        /* \"#utility.yul\":187:199   */\n      revert\n        /* \"#utility.yul\":211:328   */\n    tag_154:\n        /* \"#utility.yul\":320:321   */\n      0x00\n        /* \"#utility.yul\":317:318   */\n      dup1\n        /* \"#utility.yul\":310:322   */\n      revert\n        /* \"#utility.yul\":334:411   */\n    tag_155:\n        /* \"#utility.yul\":371:378   */\n      0x00\n        /* \"#utility.yul\":400:405   */\n      dup2\n        /* \"#utility.yul\":389:405   */\n      swap1\n      pop\n        /* \"#utility.yul\":334:411   */\n      swap2\n      swap1\n      pop\n      jump\t// out\n        /* \"#utility.yul\":417:539   */\n    tag_156:\n        /* \"#utility.yul\":490:514   */\n      tag_209\n        /* \"#utility.yul\":508:513   */\n      dup2\n        /* \"#utility.yul\":490:514   */\n      tag_155\n      jump\t// in\n    tag_209:\n        /* \"#utility.yul\":483:488   */\n      dup2\n        /* \"#utility.yul\":480:515   */\n      eq\n        /* \"#utility.yul\":470:533   */\n      tag_210\n      jumpi\n        /* \"#utility.yul\":529:530   */\n      0x00\n        /* \"#utility.yul\":526:527   */\n      dup1\n        /* \"#utility.yul\":519:531   */\n      revert\n        /* \"#utility.yul\":470:533   */\n    tag_210:\n        /* \"#utility.yul\":417:539   */\n      pop\n      jump\t// out\n        /* \"#utility.yul\":545:684   */\n    tag_157:\n        /* \"#utility.yul\":591:596   */\n      0x00\n        /* \"#utility.yul\":629:635   */\n      dup2\n        /* \"#utility.yul\":616:636   */\n      calldataload\n        /* \"#utility.yul\":607:636   */\n      swap1\n      pop\n        /* \"#utility.yul\":645:678   */\n      tag_212\n        /* \"#utility.yul\":672:677   */\n      dup2\n        /* \"#utility.yul\":645:678   */\n      tag_156\n      jump\t// in\n    tag_212:\n        /* \"#utility.yul\":545:684   */\n      swap3\n      swap2\n      pop\n      pop\n      jump\t// out\n        /* \"#utility.yul\":690:1019   */\n    tag_10:\n        /* \"#utility.yul\":749:755   */\n      0x00\n        /* \"#utility.yul\":798:800   */\n      0x20\n        /* \"#utility.yul\":786:795   */\n      dup3\n        /* \"#utility.yul\":777:784   */\n      dup5\n        /* \"#utility.yul\":773:796   */\n      sub\n        /* \"#utility.yul\":769:801   */\n      slt\n        /* \"#utility.yul\":766:885   */\n      iszero\n      tag_214\n      jumpi\n        /* \"#utility.yul\":804:883   */\n      tag_215\n      tag_153\n      jump\t// in\n    tag_215:\n        /* \"#utility.yul\":766:885   */\n    tag_214:\n        /* \"#utility.yul\":924:925   */\n      0x00\n        /* \"#utility.yul\":949:1002   */\n      tag_216\n        /* \"#utility.yul\":994:1001   */\n      dup5\n        /* \"#utility.yul\":985:991   */\n      dup3\n        /* \"#utility.yul\":974:983   */\n      dup6\n        /* \"#utility.yul\":970:992   */\n      add\n        /* \"#utility.yul\":949:1002   */\n      tag_157\n      jump\t// in\n    tag_216:\n        /* \"#utility.yul\":939:1002   */\n      swap2\n      pop\n        /* \"#utility.yul\":895:1012   */\n      pop\n        /* \"#utility.yul\":690:1019   */\n      swap3\n      swap2\n      pop\n      pop\n      jump\t// out\n        /* \"#utility.yul\":1025:1151   */\n    tag_158:\n        /* \"#utility.yul\":1062:1069   */\n      0x00\n        /* \"#utility.yul\":1102:1144   */\n      0xffffffffffffffffffffffffffffffffffffffff\n        /* \"#utility.yul\":1095:1100   */\n      dup3\n        /* \"#utility.yul\":1091:1145   */\n      and\n        /* \"#utility.yul\":1080:1145   */\n      swap1\n      pop\n        /* \"#utility.yul\":1025:1151   */\n      swap2\n      swap1\n      pop\n      jump\t// out\n        /* \"#utility.yul\":1157:1253   */\n    tag_159:\n        /* \"#utility.yul\":1194:1201   */\n      0x00\n        /* \"#utility.yul\":1223:1247   */\n      tag_219\n        /* \"#utility.yul\":1241:1246   */\n      dup3\n        /* \"#utility.yul\":1223:1247   */\n      tag_158\n      jump\t// in\n    tag_219:\n        /* \"#utility.yul\":1212:1247   */\n      swap1\n      pop\n        /* \"#utility.yul\":1157:1253   */\n      swap2\n      swap1\n      pop\n      jump\t// out\n        /* \"#utility.yul\":1259:1377   */\n    tag_160:\n        /* \"#utility.yul\":1346:1370   */\n      tag_221\n        /* \"#utility.yul\":1364:1369   */\n      dup2\n        /* \"#utility.yul\":1346:1370   */\n      tag_159\n      jump\t// in\n    tag_221:\n        /* \"#utility.yul\":1341:1344   */\n      dup3\n        /* \"#utility.yul\":1334:1371   */\n      mstore\n        /* \"#utility.yul\":1259:1377   */\n      pop\n      pop\n      jump\t// out\n        /* \"#utility.yul\":1383:1482   */\n    tag_161:\n        /* \"#utility.yul\":1435:1441   */\n      0x00\n        /* \"#utility.yul\":1469:1474   */\n      dup2\n        /* \"#utility.yul\":1463:1475   */\n      mload\n        /* \"#utility.yul\":1453:1475   */\n      swap1\n      pop\n        /* \"#utility.yul\":1383:1482   */\n      swap2\n      swap1\n      pop\n      jump\t// out\n        /* \"#utility.yul\":1488:1657   */\n    tag_162:\n        /* \"#utility.yul\":1572:1583   */\n      0x00\n        /* \"#utility.yul\":1606:1612   */\n      dup3\n        /* \"#utility.yul\":1601:1604   */\n      dup3\n        /* \"#utility.yul\":1594:1613   */\n      mstore\n        /* \"#utility.yul\":1646:1650   */\n      0x20\n        /* \"#utility.yul\":1641:1644   */\n      dup3\n        /* \"#utility.yul\":1637:1651   */\n      add\n        /* \"#utility.yul\":1622:1651   */\n      swap1\n      pop\n        /* \"#utility.yul\":1488:1657   */\n      swap3\n      swap2\n      pop\n      pop\n      jump\t// out\n        /* \"#utility.yul\":1663:1909   */\n    tag_163:\n        /* \"#utility.yul\":1744:1745   */\n      0x00\n        /* \"#utility.yul\":1754:1867   */\n    tag_225:\n        /* \"#utility.yul\":1768:1774   */\n      dup4\n        /* \"#utility.yul\":1765:1766   */\n      dup2\n        /* \"#utility.yul\":1762:1775   */\n      lt\n        /* \"#utility.yul\":1754:1867   */\n      iszero\n      tag_227\n      jumpi\n        /* \"#utility.yul\":1853:1854   */\n      dup1\n        /* \"#utility.yul\":1848:1851   */\n      dup3\n        /* \"#utility.yul\":1844:1855   */\n      add\n        /* \"#utility.yul\":1838:1856   */\n      mload\n        /* \"#utility.yul\":1834:1835   */\n      dup2\n        /* \"#utility.yul\":1829:1832   */\n      dup5\n        /* \"#utility.yul\":1825:1836   */\n      add\n        /* \"#utility.yul\":1818:1857   */\n      mstore\n        /* \"#utility.yul\":1790:1792   */\n      0x20\n        /* \"#utility.yul\":1787:1788   */\n      dup2\n        /* \"#utility.yul\":1783:1793   */\n      add\n        /* \"#utility.yul\":1778:1793   */\n      swap1\n      pop\n        /* \"#utility.yul\":1754:1867   */\n      jump(tag_225)\n    tag_227:\n        /* \"#utility.yul\":1901:1902   */\n      0x00\n        /* \"#utility.yul\":1892:1898   */\n      dup5\n        /* \"#utility.yul\":1887:1890   */\n      dup5\n        /* \"#utility.yul\":1883:1899   */\n      add\n        /* \"#utility.yul\":1876:1903   */\n      mstore\n        /* \"#utility.yul\":1725:1909   */\n      pop\n        /* \"#utility.yul\":1663:1909   */\n      pop\n      pop\n      pop\n      jump\t// out\n        /* \"#utility.yul\":1915:2017   */\n    tag_164:\n        /* \"#utility.yul\":1956:1962   */\n      0x00\n        /* \"#utility.yul\":2007:2009   */\n      0x1f\n        /* \"#utility.yul\":2003:2010   */\n      not\n        /* \"#utility.yul\":1998:2000   */\n      0x1f\n        /* \"#utility.yul\":1991:1996   */\n      dup4\n        /* \"#utility.yul\":1987:2001   */\n      add\n        /* \"#utility.yul\":1983:2011   */\n      and\n        /* \"#utility.yul\":1973:2011   */\n      swap1\n      pop\n        /* \"#utility.yul\":1915:2017   */\n      swap2\n      swap1\n      pop\n      jump\t// out\n        /* \"#utility.yul\":2023:2400   */\n    tag_165:\n        /* \"#utility.yul\":2111:2114   */\n      0x00\n        /* \"#utility.yul\":2139:2178   */\n      tag_230\n        /* \"#utility.yul\":2172:2177   */\n      dup3\n        /* \"#utility.yul\":2139:2178   */\n      tag_161\n      jump\t// in\n    tag_230:\n        /* \"#utility.yul\":2194:2265   */\n      tag_231\n        /* \"#utility.yul\":2258:2264   */\n      dup2\n        /* \"#utility.yul\":2253:2256   */\n      dup6\n        /* \"#utility.yul\":2194:2265   */\n      tag_162\n      jump\t// in\n    tag_231:\n        /* \"#utility.yul\":2187:2265   */\n      swap4\n      pop\n        /* \"#utility.yul\":2274:2339   */\n      tag_232\n        /* \"#utility.yul\":2332:2338   */\n      dup2\n        /* \"#utility.yul\":2327:2330   */\n      dup6\n        /* \"#utility.yul\":2320:2324   */\n      0x20\n        /* \"#utility.yul\":2313:2318   */\n      dup7\n        /* \"#utility.yul\":2309:2325   */\n      add\n        /* \"#utility.yul\":2274:2339   */\n      tag_163\n      jump\t// in\n    tag_232:\n        /* \"#utility.yul\":2364:2393   */\n      tag_233\n        /* \"#utility.yul\":2386:2392   */\n      dup2\n        /* \"#utility.yul\":2364:2393   */\n      tag_164\n      jump\t// in\n    tag_233:\n        /* \"#utility.yul\":2359:2362   */\n      dup5\n        /* \"#utility.yul\":2355:2394   */\n      add\n        /* \"#utility.yul\":2348:2394   */\n      swap2\n      pop\n        /* \"#utility.yul\":2115:2400   */\n      pop\n        /* \"#utility.yul\":2023:2400   */\n      swap3\n      swap2\n      pop\n      pop\n      jump\t// out\n        /* \"#utility.yul\":2406:2524   */\n    tag_166:\n        /* \"#utility.yul\":2493:2517   */\n      tag_235\n        /* \"#utility.yul\":2511:2516   */\n      dup2\n        /* \"#utility.yul\":2493:2517   */\n      tag_155\n      jump\t// in\n    tag_235:\n        /* \"#utility.yul\":2488:2491   */\n      dup3\n        /* \"#utility.yul\":2481:2518   */\n      mstore\n        /* \"#utility.yul\":2406:2524   */\n      pop\n      pop\n      jump\t// out\n        /* \"#utility.yul\":2530:3669   */\n    tag_13:\n        /* \"#utility.yul\":2843:2847   */\n      0x00\n        /* \"#utility.yul\":2881:2884   */\n      0xc0\n        /* \"#utility.yul\":2870:2879   */\n      dup3\n        /* \"#utility.yul\":2866:2885   */\n      add\n        /* \"#utility.yul\":2858:2885   */\n      swap1\n      pop\n        /* \"#utility.yul\":2895:2966   */\n      tag_237\n        /* \"#utility.yul\":2963:2964   */\n      0x00\n        /* \"#utility.yul\":2952:2961   */\n      dup4\n        /* \"#utility.yul\":2948:2965   */\n      add\n        /* \"#utility.yul\":2939:2945   */\n      dup10\n        /* \"#utility.yul\":2895:2966   */\n      tag_160\n      jump\t// in\n    tag_237:\n        /* \"#utility.yul\":3013:3022   */\n      dup2\n        /* \"#utility.yul\":3007:3011   */\n      dup2\n        /* \"#utility.yul\":3003:3023   */\n      sub\n        /* \"#utility.yul\":2998:3000   */\n      0x20\n        /* \"#utility.yul\":2987:2996   */\n      dup4\n        /* \"#utility.yul\":2983:3001   */\n      add\n        /* \"#utility.yul\":2976:3024   */\n      mstore\n        /* \"#utility.yul\":3041:3119   */\n      tag_238\n        /* \"#utility.yul\":3114:3118   */\n      dup2\n        /* \"#utility.yul\":3105:3111   */\n      dup9\n        /* \"#utility.yul\":3041:3119   */\n      tag_165\n      jump\t// in\n    tag_238:\n        /* \"#utility.yul\":3033:3119   */\n      swap1\n      pop\n        /* \"#utility.yul\":3166:3175   */\n      dup2\n        /* \"#utility.yul\":3160:3164   */\n      dup2\n        /* \"#utility.yul\":3156:3176   */\n      sub\n        /* \"#utility.yul\":3151:3153   */\n      0x40\n        /* \"#utility.yul\":3140:3149   */\n      dup4\n        /* \"#utility.yul\":3136:3154   */\n      add\n        /* \"#utility.yul\":3129:3177   */\n      mstore\n        /* \"#utility.yul\":3194:3272   */\n      tag_239\n        /* \"#utility.yul\":3267:3271   */\n      dup2\n        /* \"#utility.yul\":3258:3264   */\n      dup8\n        /* \"#utility.yul\":3194:3272   */\n      tag_165\n      jump\t// in\n    tag_239:\n        /* \"#utility.yul\":3186:3272   */\n      swap1\n      pop\n        /* \"#utility.yul\":3319:3328   */\n      dup2\n        /* \"#utility.yul\":3313:3317   */\n      dup2\n        /* \"#utility.yul\":3309:3329   */\n      sub\n        /* \"#utility.yul\":3304:3306   */\n      0x60\n        /* \"#utility.yul\":3293:3302   */\n      dup4\n        /* \"#utility.yul\":3289:3307   */\n      add\n        /* \"#utility.yul\":3282:3330   */\n      mstore\n        /* \"#utility.yul\":3347:3425   */\n      tag_240\n        /* \"#utility.yul\":3420:3424   */\n      dup2\n        /* \"#utility.yul\":3411:3417   */\n      dup7\n        /* \"#utility.yul\":3347:3425   */\n      tag_165\n      jump\t// in\n    tag_240:\n        /* \"#utility.yul\":3339:3425   */\n      swap1\n      pop\n        /* \"#utility.yul\":3473:3482   */\n      dup2\n        /* \"#utility.yul\":3467:3471   */\n      dup2\n        /* \"#utility.yul\":3463:3483   */\n      sub\n        /* \"#utility.yul\":3457:3460   */\n      0x80\n        /* \"#utility.yul\":3446:3455   */\n      dup4\n        /* \"#utility.yul\":3442:3461   */\n      add\n        /* \"#utility.yul\":3435:3484   */\n      mstore\n        /* \"#utility.yul\":3501:3579   */\n      tag_241\n        /* \"#utility.yul\":3574:3578   */\n      dup2\n        /* \"#utility.yul\":3565:3571   */\n      dup6\n        /* \"#utility.yul\":3501:3579   */\n      tag_165\n      jump\t// in\n    tag_241:\n        /* \"#utility.yul\":3493:3579   */\n      swap1\n      pop\n        /* \"#utility.yul\":3589:3662   */\n      tag_242\n        /* \"#utility.yul\":3657:3660   */\n      0xa0\n        /* \"#utility.yul\":3646:3655   */\n      dup4\n        /* \"#utility.yul\":3642:3661   */\n      add\n        /* \"#utility.yul\":3633:3639   */\n      dup5\n        /* \"#utility.yul\":3589:3662   */\n      tag_166\n      jump\t// in\n    tag_242:\n        /* \"#utility.yul\":2530:3669   */\n      swap8\n      swap7\n      pop\n      pop\n      pop\n      pop\n      pop\n      pop\n      pop\n      jump\t// out\n        /* \"#utility.yul\":3675:3792   */\n    tag_167:\n        /* \"#utility.yul\":3784:3785   */\n      0x00\n        /* \"#utility.yul\":3781:3782   */\n      dup1\n        /* \"#utility.yul\":3774:3786   */\n      revert\n        /* \"#utility.yul\":3798:3915   */\n    tag_168:\n        /* \"#utility.yul\":3907:3908   */\n      0x00\n        /* \"#utility.yul\":3904:3905   */\n      dup1\n        /* \"#utility.yul\":3897:3909   */\n      revert\n        /* \"#utility.yul\":3921:4101   */\n    tag_89:\n        /* \"#utility.yul\":3969:4046   */\n      0x4e487b7100000000000000000000000000000000000000000000000000000000\n        /* \"#utility.yul\":3966:3967   */\n      0x00\n        /* \"#utility.yul\":3959:4047   */\n      mstore\n        /* \"#utility.yul\":4066:4070   */\n      0x41\n        /* \"#utility.yul\":4063:4064   */\n      0x04\n        /* \"#utility.yul\":4056:4071   */\n      mstore\n        /* \"#utility.yul\":4090:4094   */\n      0x24\n        /* \"#utility.yul\":4087:4088   */\n      0x00\n        /* \"#utility.yul\":4080:4095   */\n      revert\n        /* \"#utility.yul\":4107:4388   */\n    tag_169:\n        /* \"#utility.yul\":4190:4217   */\n      tag_247\n        /* \"#utility.yul\":4212:4216   */\n      dup3\n        /* \"#utility.yul\":4190:4217   */\n      tag_164\n      jump\t// in\n    tag_247:\n        /* \"#utility.yul\":4182:4188   */\n      dup2\n        /* \"#utility.yul\":4178:4218   */\n      add\n        /* \"#utility.yul\":4320:4326   */\n      dup2\n        /* \"#utility.yul\":4308:4318   */\n      dup2\n        /* \"#utility.yul\":4305:4327   */\n      lt\n        /* \"#utility.yul\":4284:4302   */\n      0xffffffffffffffff\n        /* \"#utility.yul\":4272:4282   */\n      dup3\n        /* \"#utility.yul\":4269:4303   */\n      gt\n        /* \"#utility.yul\":4266:4328   */\n      or\n        /* \"#utility.yul\":4263:4351   */\n      iszero\n      tag_248\n      jumpi\n        /* \"#utility.yul\":4331:4349   */\n      tag_249\n      tag_89\n      jump\t// in\n    tag_249:\n        /* \"#utility.yul\":4263:4351   */\n    tag_248:\n        /* \"#utility.yul\":4371:4381   */\n      dup1\n        /* \"#utility.yul\":4367:4369   */\n      0x40\n        /* \"#utility.yul\":4360:4382   */\n      mstore\n        /* \"#utility.yul\":4150:4388   */\n      pop\n        /* \"#utility.yul\":4107:4388   */\n      pop\n      pop\n      jump\t// out\n        /* \"#utility.yul\":4394:4523   */\n    tag_170:\n        /* \"#utility.yul\":4428:4434   */\n      0x00\n        /* \"#utility.yul\":4455:4475   */\n      tag_251\n      tag_152\n      jump\t// in\n    tag_251:\n        /* \"#utility.yul\":4445:4475   */\n      swap1\n      pop\n        /* \"#utility.yul\":4484:4517   */\n      tag_252\n        /* \"#utility.yul\":4512:4516   */\n      dup3\n        /* \"#utility.yul\":4504:4510   */\n      dup3\n        /* \"#utility.yul\":4484:4517   */\n      tag_169\n      jump\t// in\n    tag_252:\n        /* \"#utility.yul\":4394:4523   */\n      swap2\n      swap1\n      pop\n      jump\t// out\n        /* \"#utility.yul\":4529:4837   */\n    tag_171:\n        /* \"#utility.yul\":4591:4595   */\n      0x00\n        /* \"#utility.yul\":4681:4699   */\n      0xffffffffffffffff\n        /* \"#utility.yul\":4673:4679   */\n      dup3\n        /* \"#utility.yul\":4670:4700   */\n      gt\n        /* \"#utility.yul\":4667:4723   */\n      iszero\n      tag_254\n      jumpi\n        /* \"#utility.yul\":4703:4721   */\n      tag_255\n      tag_89\n      jump\t// in\n    tag_255:\n        /* \"#utility.yul\":4667:4723   */\n    tag_254:\n        /* \"#utility.yul\":4741:4770   */\n      tag_256\n        /* \"#utility.yul\":4763:4769   */\n      dup3\n        /* \"#utility.yul\":4741:4770   */\n      tag_164\n      jump\t// in\n    tag_256:\n        /* \"#utility.yul\":4733:4770   */\n      swap1\n      pop\n        /* \"#utility.yul\":4825:4829   */\n      0x20\n        /* \"#utility.yul\":4819:4823   */\n      dup2\n        /* \"#utility.yul\":4815:4830   */\n      add\n        /* \"#utility.yul\":4807:4830   */\n      swap1\n      pop\n        /* \"#utility.yul\":4529:4837   */\n      swap2\n      swap1\n      pop\n      jump\t// out\n        /* \"#utility.yul\":4843:4989   */\n    tag_172:\n        /* \"#utility.yul\":4940:4946   */\n      dup3\n        /* \"#utility.yul\":4935:4938   */\n      dup2\n        /* \"#utility.yul\":4930:4933   */\n      dup4\n        /* \"#utility.yul\":4917:4947   */\n      calldatacopy\n        /* \"#utility.yul\":4981:4982   */\n      0x00\n        /* \"#utility.yul\":4972:4978   */\n      dup4\n        /* \"#utility.yul\":4967:4970   */\n      dup4\n        /* \"#utility.yul\":4963:4979   */\n      add\n        /* \"#utility.yul\":4956:4983   */\n      mstore\n        /* \"#utility.yul\":4843:4989   */\n      pop\n      pop\n      pop\n      jump\t// out\n        /* \"#utility.yul\":4995:5420   */\n    tag_173:\n        /* \"#utility.yul\":5073:5078   */\n      0x00\n        /* \"#utility.yul\":5098:5164   */\n      tag_259\n        /* \"#utility.yul\":5114:5163   */\n      tag_260\n        /* \"#utility.yul\":5156:5162   */\n      dup5\n        /* \"#utility.yul\":5114:5163   */\n      tag_171\n      jump\t// in\n    tag_260:\n        /* \"#utility.yul\":5098:5164   */\n      tag_170\n      jump\t// in\n    tag_259:\n        /* \"#utility.yul\":5089:5164   */\n      swap1\n      pop\n        /* \"#utility.yul\":5187:5193   */\n      dup3\n        /* \"#utility.yul\":5180:5185   */\n      dup2\n        /* \"#utility.yul\":5173:5194   */\n      mstore\n        /* \"#utility.yul\":5225:5229   */\n      0x20\n        /* \"#utility.yul\":5218:5223   */\n      dup2\n        /* \"#utility.yul\":5214:5230   */\n      add\n        /* \"#utility.yul\":5263:5266   */\n      dup5\n        /* \"#utility.yul\":5254:5260   */\n      dup5\n        /* \"#utility.yul\":5249:5252   */\n      dup5\n        /* \"#utility.yul\":5245:5261   */\n      add\n        /* \"#utility.yul\":5242:5267   */\n      gt\n        /* \"#utility.yul\":5239:5351   */\n      iszero\n      tag_261\n      jumpi\n        /* \"#utility.yul\":5270:5349   */\n      tag_262\n      tag_168\n      jump\t// in\n    tag_262:\n        /* \"#utility.yul\":5239:5351   */\n    tag_261:\n        /* \"#utility.yul\":5360:5414   */\n      tag_263\n        /* \"#utility.yul\":5407:5413   */\n      dup5\n        /* \"#utility.yul\":5402:5405   */\n      dup3\n        /* \"#utility.yul\":5397:5400   */\n      dup6\n        /* \"#utility.yul\":5360:5414   */\n      tag_172\n      jump\t// in\n    tag_263:\n        /* \"#utility.yul\":5079:5420   */\n      pop\n        /* \"#utility.yul\":4995:5420   */\n      swap4\n      swap3\n      pop\n      pop\n      pop\n      jump\t// out\n        /* \"#utility.yul\":5440:5780   */\n    tag_174:\n        /* \"#utility.yul\":5496:5501   */\n      0x00\n        /* \"#utility.yul\":5545:5548   */\n      dup3\n        /* \"#utility.yul\":5538:5542   */\n      0x1f\n        /* \"#utility.yul\":5530:5536   */\n      dup4\n        /* \"#utility.yul\":5526:5543   */\n      add\n        /* \"#utility.yul\":5522:5549   */\n      slt\n        /* \"#utility.yul\":5512:5634   */\n      tag_265\n      jumpi\n        /* \"#utility.yul\":5553:5632   */\n      tag_266\n      tag_167\n      jump\t// in\n    tag_266:\n        /* \"#utility.yul\":5512:5634   */\n    tag_265:\n        /* \"#utility.yul\":5670:5676   */\n      dup2\n        /* \"#utility.yul\":5657:5677   */\n      calldataload\n        /* \"#utility.yul\":5695:5774   */\n      tag_267\n        /* \"#utility.yul\":5770:5773   */\n      dup5\n        /* \"#utility.yul\":5762:5768   */\n      dup3\n        /* \"#utility.yul\":5755:5759   */\n      0x20\n        /* \"#utility.yul\":5747:5753   */\n      dup7\n        /* \"#utility.yul\":5743:5760   */\n      add\n        /* \"#utility.yul\":5695:5774   */\n      tag_173\n      jump\t// in\n    tag_267:\n        /* \"#utility.yul\":5686:5774   */\n      swap2\n      pop\n        /* \"#utility.yul\":5502:5780   */\n      pop\n        /* \"#utility.yul\":5440:5780   */\n      swap3\n      swap2\n      pop\n      pop\n      jump\t// out\n        /* \"#utility.yul\":5786:6295   */\n    tag_16:\n        /* \"#utility.yul\":5855:5861   */\n      0x00\n        /* \"#utility.yul\":5904:5906   */\n      0x20\n        /* \"#utility.yul\":5892:5901   */\n      dup3\n        /* \"#utility.yul\":5883:5890   */\n      dup5\n        /* \"#utility.yul\":5879:5902   */\n      sub\n        /* \"#utility.yul\":5875:5907   */\n      slt\n        /* \"#utility.yul\":5872:5991   */\n      iszero\n      tag_269\n      jumpi\n        /* \"#utility.yul\":5910:5989   */\n      tag_270\n      tag_153\n      jump\t// in\n    tag_270:\n        /* \"#utility.yul\":5872:5991   */\n    tag_269:\n        /* \"#utility.yul\":6058:6059   */\n      0x00\n        /* \"#utility.yul\":6047:6056   */\n      dup3\n        /* \"#utility.yul\":6043:6060   */\n      add\n        /* \"#utility.yul\":6030:6061   */\n      calldataload\n        /* \"#utility.yul\":6088:6106   */\n      0xffffffffffffffff\n        /* \"#utility.yul\":6080:6086   */\n      dup2\n        /* \"#utility.yul\":6077:6107   */\n      gt\n        /* \"#utility.yul\":6074:6191   */\n      iszero\n      tag_271\n      jumpi\n        /* \"#utility.yul\":6110:6189   */\n      tag_272\n      tag_154\n      jump\t// in\n    tag_272:\n        /* \"#utility.yul\":6074:6191   */\n    tag_271:\n        /* \"#utility.yul\":6215:6278   */\n      tag_273\n        /* \"#utility.yul\":6270:6277   */\n      dup5\n        /* \"#utility.yul\":6261:6267   */\n      dup3\n        /* \"#utility.yul\":6250:6259   */\n      dup6\n        /* \"#utility.yul\":6246:6268   */\n      add\n        /* \"#utility.yul\":6215:6278   */\n      tag_174\n      jump\t// in\n    tag_273:\n        /* \"#utility.yul\":6205:6278   */\n      swap2\n      pop\n        /* \"#utility.yul\":6001:6288   */\n      pop\n        /* \"#utility.yul\":5786:6295   */\n      swap3\n      swap2\n      pop\n      pop\n      jump\t// out\n        /* \"#utility.yul\":6301:6415   */\n    tag_175:\n        /* \"#utility.yul\":6368:6374   */\n      0x00\n        /* \"#utility.yul\":6402:6407   */\n      dup2\n        /* \"#utility.yul\":6396:6408   */\n      mload\n        /* \"#utility.yul\":6386:6408   */\n      swap1\n      pop\n        /* \"#utility.yul\":6301:6415   */\n      swap2\n      swap1\n      pop\n      jump\t// out\n        /* \"#utility.yul\":6421:6605   */\n    tag_176:\n        /* \"#utility.yul\":6520:6531   */\n      0x00\n        /* \"#utility.yul\":6554:6560   */\n      dup3\n        /* \"#utility.yul\":6549:6552   */\n      dup3\n        /* \"#utility.yul\":6542:6561   */\n      mstore\n        /* \"#utility.yul\":6594:6598   */\n      0x20\n        /* \"#utility.yul\":6589:6592   */\n      dup3\n        /* \"#utility.yul\":6585:6599   */\n      add\n        /* \"#utility.yul\":6570:6599   */\n      swap1\n      pop\n        /* \"#utility.yul\":6421:6605   */\n      swap3\n      swap2\n      pop\n      pop\n      jump\t// out\n        /* \"#utility.yul\":6611:6743   */\n    tag_177:\n        /* \"#utility.yul\":6678:6682   */\n      0x00\n        /* \"#utility.yul\":6701:6704   */\n      dup2\n        /* \"#utility.yul\":6693:6704   */\n      swap1\n      pop\n        /* \"#utility.yul\":6731:6735   */\n      0x20\n        /* \"#utility.yul\":6726:6729   */\n      dup3\n        /* \"#utility.yul\":6722:6736   */\n      add\n        /* \"#utility.yul\":6714:6736   */\n      swap1\n      pop\n        /* \"#utility.yul\":6611:6743   */\n      swap2\n      swap1\n      pop\n      jump\t// out\n        /* \"#utility.yul\":6749:6857   */\n    tag_178:\n        /* \"#utility.yul\":6826:6850   */\n      tag_278\n        /* \"#utility.yul\":6844:6849   */\n      dup2\n        /* \"#utility.yul\":6826:6850   */\n      tag_155\n      jump\t// in\n    tag_278:\n        /* \"#utility.yul\":6821:6824   */\n      dup3\n        /* \"#utility.yul\":6814:6851   */\n      mstore\n        /* \"#utility.yul\":6749:6857   */\n      pop\n      pop\n      jump\t// out\n        /* \"#utility.yul\":6863:7042   */\n    tag_179:\n        /* \"#utility.yul\":6932:6942   */\n      0x00\n        /* \"#utility.yul\":6953:6999   */\n      tag_280\n        /* \"#utility.yul\":6995:6998   */\n      dup4\n        /* \"#utility.yul\":6987:6993   */\n      dup4\n        /* \"#utility.yul\":6953:6999   */\n      tag_178\n      jump\t// in\n    tag_280:\n        /* \"#utility.yul\":7031:7035   */\n      0x20\n        /* \"#utility.yul\":7026:7029   */\n      dup4\n        /* \"#utility.yul\":7022:7036   */\n      add\n        /* \"#utility.yul\":7008:7036   */\n      swap1\n      pop\n        /* \"#utility.yul\":6863:7042   */\n      swap3\n      swap2\n      pop\n      pop\n      jump\t// out\n        /* \"#utility.yul\":7048:7161   */\n    tag_180:\n        /* \"#utility.yul\":7118:7122   */\n      0x00\n        /* \"#utility.yul\":7150:7154   */\n      0x20\n        /* \"#utility.yul\":7145:7148   */\n      dup3\n        /* \"#utility.yul\":7141:7155   */\n      add\n        /* \"#utility.yul\":7133:7155   */\n      swap1\n      pop\n        /* \"#utility.yul\":7048:7161   */\n      swap2\n      swap1\n      pop\n      jump\t// out\n        /* \"#utility.yul\":7197:7929   */\n    tag_181:\n        /* \"#utility.yul\":7316:7319   */\n      0x00\n        /* \"#utility.yul\":7345:7399   */\n      tag_283\n        /* \"#utility.yul\":7393:7398   */\n      dup3\n        /* \"#utility.yul\":7345:7399   */\n      tag_175\n      jump\t// in\n    tag_283:\n        /* \"#utility.yul\":7415:7501   */\n      tag_284\n        /* \"#utility.yul\":7494:7500   */\n      dup2\n        /* \"#utility.yul\":7489:7492   */\n      dup6\n        /* \"#utility.yul\":7415:7501   */\n      tag_176\n      jump\t// in\n    tag_284:\n        /* \"#utility.yul\":7408:7501   */\n      swap4\n      pop\n        /* \"#utility.yul\":7525:7581   */\n      tag_285\n        /* \"#utility.yul\":7575:7580   */\n      dup4\n        /* \"#utility.yul\":7525:7581   */\n      tag_177\n      jump\t// in\n    tag_285:\n        /* \"#utility.yul\":7604:7611   */\n      dup1\n        /* \"#utility.yul\":7635:7636   */\n      0x00\n        /* \"#utility.yul\":7620:7904   */\n    tag_286:\n        /* \"#utility.yul\":7645:7651   */\n      dup4\n        /* \"#utility.yul\":7642:7643   */\n      dup2\n        /* \"#utility.yul\":7639:7652   */\n      lt\n        /* \"#utility.yul\":7620:7904   */\n      iszero\n      tag_288\n      jumpi\n        /* \"#utility.yul\":7721:7727   */\n      dup2\n        /* \"#utility.yul\":7715:7728   */\n      mload\n        /* \"#utility.yul\":7748:7811   */\n      tag_289\n        /* \"#utility.yul\":7807:7810   */\n      dup9\n        /* \"#utility.yul\":7792:7805   */\n      dup3\n        /* \"#utility.yul\":7748:7811   */\n      tag_179\n      jump\t// in\n    tag_289:\n        /* \"#utility.yul\":7741:7811   */\n      swap8\n      pop\n        /* \"#utility.yul\":7834:7894   */\n      tag_290\n        /* \"#utility.yul\":7887:7893   */\n      dup4\n        /* \"#utility.yul\":7834:7894   */\n      tag_180\n      jump\t// in\n    tag_290:\n        /* \"#utility.yul\":7824:7894   */\n      swap3\n      pop\n        /* \"#utility.yul\":7680:7904   */\n      pop\n        /* \"#utility.yul\":7667:7668   */\n      0x01\n        /* \"#utility.yul\":7664:7665   */\n      dup2\n        /* \"#utility.yul\":7660:7669   */\n      add\n        /* \"#utility.yul\":7655:7669   */\n      swap1\n      pop\n        /* \"#utility.yul\":7620:7904   */\n      jump(tag_286)\n    tag_288:\n        /* \"#utility.yul\":7624:7638   */\n      pop\n        /* \"#utility.yul\":7920:7923   */\n      dup6\n        /* \"#utility.yul\":7913:7923   */\n      swap4\n      pop\n        /* \"#utility.yul\":7321:7929   */\n      pop\n      pop\n      pop\n        /* \"#utility.yul\":7197:7929   */\n      swap3\n      swap2\n      pop\n      pop\n      jump\t// out\n        /* \"#utility.yul\":7935:8308   */\n    tag_19:\n        /* \"#utility.yul\":8078:8082   */\n      0x00\n        /* \"#utility.yul\":8116:8118   */\n      0x20\n        /* \"#utility.yul\":8105:8114   */\n      dup3\n        /* \"#utility.yul\":8101:8119   */\n      add\n        /* \"#utility.yul\":8093:8119   */\n      swap1\n      pop\n        /* \"#utility.yul\":8165:8174   */\n      dup2\n        /* \"#utility.yul\":8159:8163   */\n      dup2\n        /* \"#utility.yul\":8155:8175   */\n      sub\n        /* \"#utility.yul\":8151:8152   */\n      0x00\n        /* \"#utility.yul\":8140:8149   */\n      dup4\n        /* \"#utility.yul\":8136:8153   */\n      add\n        /* \"#utility.yul\":8129:8176   */\n      mstore\n        /* \"#utility.yul\":8193:8301   */\n      tag_292\n        /* \"#utility.yul\":8296:8300   */\n      dup2\n        /* \"#utility.yul\":8287:8293   */\n      dup5\n        /* \"#utility.yul\":8193:8301   */\n      tag_181\n      jump\t// in\n    tag_292:\n        /* \"#utility.yul\":8185:8301   */\n      swap1\n      pop\n        /* \"#utility.yul\":7935:8308   */\n      swap3\n      swap2\n      pop\n      pop\n      jump\t// out\n        /* \"#utility.yul\":8314:8536   */\n    tag_27:\n        /* \"#utility.yul\":8407:8411   */\n      0x00\n        /* \"#utility.yul\":8445:8447   */\n      0x20\n        /* \"#utility.yul\":8434:8443   */\n      dup3\n        /* \"#utility.yul\":8430:8448   */\n      add\n        /* \"#utility.yul\":8422:8448   */\n      swap1\n      pop\n        /* \"#utility.yul\":8458:8529   */\n      tag_294\n        /* \"#utility.yul\":8526:8527   */\n      0x00\n        /* \"#utility.yul\":8515:8524   */\n      dup4\n        /* \"#utility.yul\":8511:8528   */\n      add\n        /* \"#utility.yul\":8502:8508   */\n      dup5\n        /* \"#utility.yul\":8458:8529   */\n      tag_166\n      jump\t// in\n    tag_294:\n        /* \"#utility.yul\":8314:8536   */\n      swap3\n      swap2\n      pop\n      pop\n      jump\t// out\n        /* \"#utility.yul\":8542:10027   */\n    tag_30:\n        /* \"#utility.yul\":8668:8674   */\n      0x00\n        /* \"#utility.yul\":8676:8682   */\n      dup1\n        /* \"#utility.yul\":8684:8690   */\n      0x00\n        /* \"#utility.yul\":8692:8698   */\n      dup1\n        /* \"#utility.yul\":8741:8744   */\n      0x80\n        /* \"#utility.yul\":8729:8738   */\n      dup6\n        /* \"#utility.yul\":8720:8727   */\n      dup8\n        /* \"#utility.yul\":8716:8739   */\n      sub\n        /* \"#utility.yul\":8712:8745   */\n      slt\n        /* \"#utility.yul\":8709:8829   */\n      iszero\n      tag_296\n      jumpi\n        /* \"#utility.yul\":8748:8827   */\n      tag_297\n      tag_153\n      jump\t// in\n    tag_297:\n        /* \"#utility.yul\":8709:8829   */\n    tag_296:\n        /* \"#utility.yul\":8896:8897   */\n      0x00\n        /* \"#utility.yul\":8885:8894   */\n      dup6\n        /* \"#utility.yul\":8881:8898   */\n      add\n        /* \"#utility.yul\":8868:8899   */\n      calldataload\n        /* \"#utility.yul\":8926:8944   */\n      0xffffffffffffffff\n        /* \"#utility.yul\":8918:8924   */\n      dup2\n        /* \"#utility.yul\":8915:8945   */\n      gt\n        /* \"#utility.yul\":8912:9029   */\n      iszero\n      tag_298\n      jumpi\n        /* \"#utility.yul\":8948:9027   */\n      tag_299\n      tag_154\n      jump\t// in\n    tag_299:\n        /* \"#utility.yul\":8912:9029   */\n    tag_298:\n        /* \"#utility.yul\":9053:9116   */\n      tag_300\n        /* \"#utility.yul\":9108:9115   */\n      dup8\n        /* \"#utility.yul\":9099:9105   */\n      dup3\n        /* \"#utility.yul\":9088:9097   */\n      dup9\n        /* \"#utility.yul\":9084:9106   */\n      add\n        /* \"#utility.yul\":9053:9116   */\n      tag_174\n      jump\t// in\n    tag_300:\n        /* \"#utility.yul\":9043:9116   */\n      swap5\n      pop\n        /* \"#utility.yul\":8839:9126   */\n      pop\n        /* \"#utility.yul\":9193:9195   */\n      0x20\n        /* \"#utility.yul\":9182:9191   */\n      dup6\n        /* \"#utility.yul\":9178:9196   */\n      add\n        /* \"#utility.yul\":9165:9197   */\n      calldataload\n        /* \"#utility.yul\":9224:9242   */\n      0xffffffffffffffff\n        /* \"#utility.yul\":9216:9222   */\n      dup2\n        /* \"#utility.yul\":9213:9243   */\n      gt\n        /* \"#utility.yul\":9210:9327   */\n      iszero\n      tag_301\n      jumpi\n        /* \"#utility.yul\":9246:9325   */\n      tag_302\n      tag_154\n      jump\t// in\n    tag_302:\n        /* \"#utility.yul\":9210:9327   */\n    tag_301:\n        /* \"#utility.yul\":9351:9414   */\n      tag_303\n        /* \"#utility.yul\":9406:9413   */\n      dup8\n        /* \"#utility.yul\":9397:9403   */\n      dup3\n        /* \"#utility.yul\":9386:9395   */\n      dup9\n        /* \"#utility.yul\":9382:9404   */\n      add\n        /* \"#utility.yul\":9351:9414   */\n      tag_174\n      jump\t// in\n    tag_303:\n        /* \"#utility.yul\":9341:9414   */\n      swap4\n      pop\n        /* \"#utility.yul\":9136:9424   */\n      pop\n        /* \"#utility.yul\":9491:9493   */\n      0x40\n        /* \"#utility.yul\":9480:9489   */\n      dup6\n        /* \"#utility.yul\":9476:9494   */\n      add\n        /* \"#utility.yul\":9463:9495   */\n      calldataload\n        /* \"#utility.yul\":9522:9540   */\n      0xffffffffffffffff\n        /* \"#utility.yul\":9514:9520   */\n      dup2\n        /* \"#utility.yul\":9511:9541   */\n      gt\n        /* \"#utility.yul\":9508:9625   */\n      iszero\n      tag_304\n      jumpi\n        /* \"#utility.yul\":9544:9623   */\n      tag_305\n      tag_154\n      jump\t// in\n    tag_305:\n        /* \"#utility.yul\":9508:9625   */\n    tag_304:\n        /* \"#utility.yul\":9649:9712   */\n      tag_306\n        /* \"#utility.yul\":9704:9711   */\n      dup8\n        /* \"#utility.yul\":9695:9701   */\n      dup3\n        /* \"#utility.yul\":9684:9693   */\n      dup9\n        /* \"#utility.yul\":9680:9702   */\n      add\n        /* \"#utility.yul\":9649:9712   */\n      tag_174\n      jump\t// in\n    tag_306:\n        /* \"#utility.yul\":9639:9712   */\n      swap3\n      pop\n        /* \"#utility.yul\":9434:9722   */\n      pop\n        /* \"#utility.yul\":9789:9791   */\n      0x60\n        /* \"#utility.yul\":9778:9787   */\n      dup6\n        /* \"#utility.yul\":9774:9792   */\n      add\n        /* \"#utility.yul\":9761:9793   */\n      calldataload\n        /* \"#utility.yul\":9820:9838   */\n      0xffffffffffffffff\n        /* \"#utility.yul\":9812:9818   */\n      dup2\n        /* \"#utility.yul\":9809:9839   */\n      gt\n        /* \"#utility.yul\":9806:9923   */\n      iszero\n      tag_307\n      jumpi\n        /* \"#utility.yul\":9842:9921   */\n      tag_308\n      tag_154\n      jump\t// in\n    tag_308:\n        /* \"#utility.yul\":9806:9923   */\n    tag_307:\n        /* \"#utility.yul\":9947:10010   */\n      tag_309\n        /* \"#utility.yul\":10002:10009   */\n      dup8\n        /* \"#utility.yul\":9993:9999   */\n      dup3\n        /* \"#utility.yul\":9982:9991   */\n      dup9\n        /* \"#utility.yul\":9978:10000   */\n      add\n        /* \"#utility.yul\":9947:10010   */\n      tag_174\n      jump\t// in\n    tag_309:\n        /* \"#utility.yul\":9937:10010   */\n      swap2\n      pop\n        /* \"#utility.yul\":9732:10020   */\n      pop\n        /* \"#utility.yul\":8542:10027   */\n      swap3\n      swap6\n      swap2\n      swap5\n      pop\n      swap3\n      pop\n      jump\t// out\n        /* \"#utility.yul\":10033:10196   */\n    tag_182:\n        /* \"#utility.yul\":10173:10188   */\n      0x496e76616c696420696e64657800000000000000000000000000000000000000\n        /* \"#utility.yul\":10169:10170   */\n      0x00\n        /* \"#utility.yul\":10161:10167   */\n      dup3\n        /* \"#utility.yul\":10157:10171   */\n      add\n        /* \"#utility.yul\":10150:10189   */\n      mstore\n        /* \"#utility.yul\":10033:10196   */\n      pop\n      jump\t// out\n        /* \"#utility.yul\":10202:10568   */\n    tag_183:\n        /* \"#utility.yul\":10344:10347   */\n      0x00\n        /* \"#utility.yul\":10365:10432   */\n      tag_312\n        /* \"#utility.yul\":10429:10431   */\n      0x0d\n        /* \"#utility.yul\":10424:10427   */\n      dup4\n        /* \"#utility.yul\":10365:10432   */\n      tag_162\n      jump\t// in\n    tag_312:\n        /* \"#utility.yul\":10358:10432   */\n      swap2\n      pop\n        /* \"#utility.yul\":10441:10534   */\n      tag_313\n        /* \"#utility.yul\":10530:10533   */\n      dup3\n        /* \"#utility.yul\":10441:10534   */\n      tag_182\n      jump\t// in\n    tag_313:\n        /* \"#utility.yul\":10559:10561   */\n      0x20\n        /* \"#utility.yul\":10554:10557   */\n      dup3\n        /* \"#utility.yul\":10550:10562   */\n      add\n        /* \"#utility.yul\":10543:10562   */\n      swap1\n      pop\n        /* \"#utility.yul\":10202:10568   */\n      swap2\n      swap1\n      pop\n      jump\t// out\n        /* \"#utility.yul\":10574:10993   */\n    tag_35:\n        /* \"#utility.yul\":10740:10744   */\n      0x00\n        /* \"#utility.yul\":10778:10780   */\n      0x20\n        /* \"#utility.yul\":10767:10776   */\n      dup3\n        /* \"#utility.yul\":10763:10781   */\n      add\n        /* \"#utility.yul\":10755:10781   */\n      swap1\n      pop\n        /* \"#utility.yul\":10827:10836   */\n      dup2\n        /* \"#utility.yul\":10821:10825   */\n      dup2\n        /* \"#utility.yul\":10817:10837   */\n      sub\n        /* \"#utility.yul\":10813:10814   */\n      0x00\n        /* \"#utility.yul\":10802:10811   */\n      dup4\n        /* \"#utility.yul\":10798:10815   */\n      add\n        /* \"#utility.yul\":10791:10838   */\n      mstore\n        /* \"#utility.yul\":10855:10986   */\n      tag_315\n        /* \"#utility.yul\":10981:10985   */\n      dup2\n        /* \"#utility.yul\":10855:10986   */\n      tag_183\n      jump\t// in\n    tag_315:\n        /* \"#utility.yul\":10847:10986   */\n      swap1\n      pop\n        /* \"#utility.yul\":10574:10993   */\n      swap2\n      swap1\n      pop\n      jump\t// out\n        /* \"#utility.yul\":10999:11179   */\n    tag_184:\n        /* \"#utility.yul\":11047:11124   */\n      0x4e487b7100000000000000000000000000000000000000000000000000000000\n        /* \"#utility.yul\":11044:11045   */\n      0x00\n        /* \"#utility.yul\":11037:11125   */\n      mstore\n        /* \"#utility.yul\":11144:11148   */\n      0x22\n        /* \"#utility.yul\":11141:11142   */\n      0x04\n        /* \"#utility.yul\":11134:11149   */\n      mstore\n        /* \"#utility.yul\":11168:11172   */\n      0x24\n        /* \"#utility.yul\":11165:11166   */\n      0x00\n        /* \"#utility.yul\":11158:11173   */\n      revert\n        /* \"#utility.yul\":11185:11505   */\n    tag_37:\n        /* \"#utility.yul\":11229:11235   */\n      0x00\n        /* \"#utility.yul\":11266:11267   */\n      0x02\n        /* \"#utility.yul\":11260:11264   */\n      dup3\n        /* \"#utility.yul\":11256:11268   */\n      div\n        /* \"#utility.yul\":11246:11268   */\n      swap1\n      pop\n        /* \"#utility.yul\":11313:11314   */\n      0x01\n        /* \"#utility.yul\":11307:11311   */\n      dup3\n        /* \"#utility.yul\":11303:11315   */\n      and\n        /* \"#utility.yul\":11334:11352   */\n      dup1\n        /* \"#utility.yul\":11324:11405   */\n      tag_318\n      jumpi\n        /* \"#utility.yul\":11390:11394   */\n      0x7f\n        /* \"#utility.yul\":11382:11388   */\n      dup3\n        /* \"#utility.yul\":11378:11395   */\n      and\n        /* \"#utility.yul\":11368:11395   */\n      swap2\n      pop\n        /* \"#utility.yul\":11324:11405   */\n    tag_318:\n        /* \"#utility.yul\":11452:11454   */\n      0x20\n        /* \"#utility.yul\":11444:11450   */\n      dup3\n        /* \"#utility.yul\":11441:11455   */\n      lt\n        /* \"#utility.yul\":11421:11439   */\n      dup2\n        /* \"#utility.yul\":11418:11456   */\n      sub\n        /* \"#utility.yul\":11415:11499   */\n      tag_319\n      jumpi\n        /* \"#utility.yul\":11471:11489   */\n      tag_320\n      tag_184\n      jump\t// in\n    tag_320:\n        /* \"#utility.yul\":11415:11499   */\n    tag_319:\n        /* \"#utility.yul\":11236:11505   */\n      pop\n        /* \"#utility.yul\":11185:11505   */\n      swap2\n      swap1\n      pop\n      jump\t// out\n        /* \"#utility.yul\":11511:11691   */\n    tag_185:\n        /* \"#utility.yul\":11559:11636   */\n      0x4e487b7100000000000000000000000000000000000000000000000000000000\n        /* \"#utility.yul\":11556:11557   */\n      0x00\n        /* \"#utility.yul\":11549:11637   */\n      mstore\n        /* \"#utility.yul\":11656:11660   */\n      0x11\n        /* \"#utility.yul\":11653:11654   */\n      0x04\n        /* \"#utility.yul\":11646:11661   */\n      mstore\n        /* \"#utility.yul\":11680:11684   */\n      0x24\n        /* \"#utility.yul\":11677:11678   */\n      0x00\n        /* \"#utility.yul\":11670:11685   */\n      revert\n        /* \"#utility.yul\":11697:11930   */\n    tag_85:\n        /* \"#utility.yul\":11736:11739   */\n      0x00\n        /* \"#utility.yul\":11759:11783   */\n      tag_323\n        /* \"#utility.yul\":11777:11782   */\n      dup3\n        /* \"#utility.yul\":11759:11783   */\n      tag_155\n      jump\t// in\n    tag_323:\n        /* \"#utility.yul\":11750:11783   */\n      swap2\n      pop\n        /* \"#utility.yul\":11805:11871   */\n      0xffffffffffffffffffffffffffffffffffffffffffffffffffffffffffffffff\n        /* \"#utility.yul\":11798:11803   */\n      dup3\n        /* \"#utility.yul\":11795:11872   */\n      sub\n        /* \"#utility.yul\":11792:11895   */\n      tag_324\n      jumpi\n        /* \"#utility.yul\":11875:11893   */\n      tag_325\n      tag_185\n      jump\t// in\n    tag_325:\n        /* \"#utility.yul\":11792:11895   */\n    tag_324:\n        /* \"#utility.yul\":11922:11923   */\n      0x01\n        /* \"#utility.yul\":11915:11920   */\n      dup3\n        /* \"#utility.yul\":11911:11924   */\n      add\n        /* \"#utility.yul\":11904:11924   */\n      swap1\n      pop\n        /* \"#utility.yul\":11697:11930   */\n      swap2\n      swap1\n      pop\n      jump\t// out\n        /* \"#utility.yul\":11936:12116   */\n    tag_118:\n        /* \"#utility.yul\":11984:12061   */\n      0x4e487b7100000000000000000000000000000000000000000000000000000000\n        /* \"#utility.yul\":11981:11982   */\n      0x00\n        /* \"#utility.yul\":11974:12062   */\n      mstore\n        /* \"#utility.yul\":12081:12085   */\n      0x32\n        /* \"#utility.yul\":12078:12079   */\n      0x04\n        /* \"#utility.yul\":12071:12086   */\n      mstore\n        /* \"#utility.yul\":12105:12109   */\n      0x24\n        /* \"#utility.yul\":12102:12103   */\n      0x00\n        /* \"#utility.yul\":12095:12110   */\n      revert\n        /* \"#utility.yul\":12122:12263   */\n    tag_186:\n        /* \"#utility.yul\":12171:12175   */\n      0x00\n        /* \"#utility.yul\":12194:12197   */\n      dup2\n        /* \"#utility.yul\":12186:12197   */\n      swap1\n      pop\n        /* \"#utility.yul\":12217:12220   */\n      dup2\n        /* \"#utility.yul\":12214:12215   */\n      0x00\n        /* \"#utility.yul\":12207:12221   */\n      mstore\n        /* \"#utility.yul\":12251:12255   */\n      0x20\n        /* \"#utility.yul\":12248:12249   */\n      0x00\n        /* \"#utility.yul\":12238:12256   */\n      keccak256\n        /* \"#utility.yul\":12230:12256   */\n      swap1\n      pop\n        /* \"#utility.yul\":12122:12263   */\n      swap2\n      swap1\n      pop\n      jump\t// out\n        /* \"#utility.yul\":12269:12362   */\n    tag_187:\n        /* \"#utility.yul\":12306:12312   */\n      0x00\n        /* \"#utility.yul\":12353:12355   */\n      0x20\n        /* \"#utility.yul\":12348:12350   */\n      0x1f\n        /* \"#utility.yul\":12341:12346   */\n      dup4\n        /* \"#utility.yul\":12337:12351   */\n      add\n        /* \"#utility.yul\":12333:12356   */\n      div\n        /* \"#utility.yul\":12323:12356   */\n      swap1\n      pop\n        /* \"#utility.yul\":12269:12362   */\n      swap2\n      swap1\n      pop\n      jump\t// out\n        /* \"#utility.yul\":12368:12475   */\n    tag_188:\n        /* \"#utility.yul\":12412:12420   */\n      0x00\n        /* \"#utility.yul\":12462:12467   */\n      dup3\n        /* \"#utility.yul\":12456:12460   */\n      dup3\n        /* \"#utility.yul\":12452:12468   */\n      shl\n        /* \"#utility.yul\":12431:12468   */\n      swap1\n      pop\n        /* \"#utility.yul\":12368:12475   */\n      swap3\n      swap2\n      pop\n      pop\n      jump\t// out\n        /* \"#utility.yul\":12481:12874   */\n    tag_189:\n        /* \"#utility.yul\":12550:12556   */\n      0x00\n        /* \"#utility.yul\":12600:12601   */\n      0x08\n        /* \"#utility.yul\":12588:12598   */\n      dup4\n        /* \"#utility.yul\":12584:12602   */\n      mul\n        /* \"#utility.yul\":12623:12720   */\n      tag_331\n        /* \"#utility.yul\":12653:12719   */\n      0xffffffffffffffffffffffffffffffffffffffffffffffffffffffffffffffff\n        /* \"#utility.yul\":12642:12651   */\n      dup3\n        /* \"#utility.yul\":12623:12720   */\n      tag_188\n      jump\t// in\n    tag_331:\n        /* \"#utility.yul\":12741:12780   */\n      tag_332\n        /* \"#utility.yul\":12771:12779   */\n      dup7\n        /* \"#utility.yul\":12760:12769   */\n      dup4\n        /* \"#utility.yul\":12741:12780   */\n      tag_188\n      jump\t// in\n    tag_332:\n        /* \"#utility.yul\":12729:12780   */\n      swap6\n      pop\n        /* \"#utility.yul\":12813:12817   */\n      dup1\n        /* \"#utility.yul\":12809:12818   */\n      not\n        /* \"#utility.yul\":12802:12807   */\n      dup5\n        /* \"#utility.yul\":12798:12819   */\n      and\n        /* \"#utility.yul\":12789:12819   */\n      swap4\n      pop\n        /* \"#utility.yul\":12862:12866   */\n      dup1\n        /* \"#utility.yul\":12852:12860   */\n      dup7\n        /* \"#utility.yul\":12848:12867   */\n      and\n        /* \"#utility.yul\":12841:12846   */\n      dup5\n        /* \"#utility.yul\":12838:12868   */\n      or\n        /* \"#utility.yul\":12828:12868   */\n      swap3\n      pop\n        /* \"#utility.yul\":12557:12874   */\n      pop\n      pop\n        /* \"#utility.yul\":12481:12874   */\n      swap4\n      swap3\n      pop\n      pop\n      pop\n      jump\t// out\n        /* \"#utility.yul\":12880:12940   */\n    tag_190:\n        /* \"#utility.yul\":12908:12911   */\n      0x00\n        /* \"#utility.yul\":12929:12934   */\n      dup2\n        /* \"#utility.yul\":12922:12934   */\n      swap1\n      pop\n        /* \"#utility.yul\":12880:12940   */\n      swap2\n      swap1\n      pop\n      jump\t// out\n        /* \"#utility.yul\":12946:13088   */\n    tag_191:\n        /* \"#utility.yul\":12996:13005   */\n      0x00\n        /* \"#utility.yul\":13029:13082   */\n      tag_335\n        /* \"#utility.yul\":13047:13081   */\n      tag_336\n        /* \"#utility.yul\":13056:13080   */\n      tag_337\n        /* \"#utility.yul\":13074:13079   */\n      dup5\n        /* \"#utility.yul\":13056:13080   */\n      tag_155\n      jump\t// in\n    tag_337:\n        /* \"#utility.yul\":13047:13081   */\n      tag_190\n      jump\t// in\n    tag_336:\n        /* \"#utility.yul\":13029:13082   */\n      tag_155\n      jump\t// in\n    tag_335:\n        /* \"#utility.yul\":13016:13082   */\n      swap1\n      pop\n        /* \"#utility.yul\":12946:13088   */\n      swap2\n      swap1\n      pop\n      jump\t// out\n        /* \"#utility.yul\":13094:13169   */\n    tag_192:\n        /* \"#utility.yul\":13137:13140   */\n      0x00\n        /* \"#utility.yul\":13158:13163   */\n      dup2\n        /* \"#utility.yul\":13151:13163   */\n      swap1\n      pop\n        /* \"#utility.yul\":13094:13169   */\n      swap2\n      swap1\n      pop\n      jump\t// out\n        /* \"#utility.yul\":13175:13444   */\n    tag_193:\n        /* \"#utility.yul\":13285:13324   */\n      tag_340\n        /* \"#utility.yul\":13316:13323   */\n      dup4\n        /* \"#utility.yul\":13285:13324   */\n      tag_191\n      jump\t// in\n    tag_340:\n        /* \"#utility.yul\":13346:13437   */\n      tag_341\n        /* \"#utility.yul\":13395:13436   */\n      tag_342\n        /* \"#utility.yul\":13419:13435   */\n      dup3\n        /* \"#utility.yul\":13395:13436   */\n      tag_192\n      jump\t// in\n    tag_342:\n        /* \"#utility.yul\":13387:13393   */\n      dup5\n        /* \"#utility.yul\":13380:13384   */\n      dup5\n        /* \"#utility.yul\":13374:13385   */\n      sload\n        /* \"#utility.yul\":13346:13437   */\n      tag_189\n      jump\t// in\n    tag_341:\n        /* \"#utility.yul\":13340:13344   */\n      dup3\n        /* \"#utility.yul\":13333:13438   */\n      sstore\n        /* \"#utility.yul\":13251:13444   */\n      pop\n        /* \"#utility.yul\":13175:13444   */\n      pop\n      pop\n      pop\n      jump\t// out\n        /* \"#utility.yul\":13450:13523   */\n    tag_194:\n        /* \"#utility.yul\":13495:13498   */\n      0x00\n        /* \"#utility.yul\":13450:13523   */\n      swap1\n      jump\t// out\n        /* \"#utility.yul\":13529:13718   */\n    tag_195:\n        /* \"#utility.yul\":13606:13638   */\n      tag_345\n      tag_194\n      jump\t// in\n    tag_345:\n        /* \"#utility.yul\":13647:13712   */\n      tag_346\n        /* \"#utility.yul\":13705:13711   */\n      dup2\n        /* \"#utility.yul\":13697:13703   */\n      dup5\n        /* \"#utility.yul\":13691:13695   */\n      dup5\n        /* \"#utility.yul\":13647:13712   */\n      tag_193\n      jump\t// in\n    tag_346:\n        /* \"#utility.yul\":13582:13718   */\n      pop\n        /* \"#utility.yul\":13529:13718   */\n      pop\n      pop\n      jump\t// out\n        /* \"#utility.yul\":13724:13910   */\n    tag_196:\n        /* \"#utility.yul\":13784:13904   */\n    tag_348:\n        /* \"#utility.yul\":13801:13804   */\n      dup2\n        /* \"#utility.yul\":13794:13799   */\n      dup2\n        /* \"#utility.yul\":13791:13805   */\n      lt\n        /* \"#utility.yul\":13784:13904   */\n      iszero\n      tag_350\n      jumpi\n        /* \"#utility.yul\":13855:13894   */\n      tag_351\n        /* \"#utility.yul\":13892:13893   */\n      0x00\n        /* \"#utility.yul\":13885:13890   */\n      dup3\n        /* \"#utility.yul\":13855:13894   */\n      tag_195\n      jump\t// in\n    tag_351:\n        /* \"#utility.yul\":13828:13829   */\n      0x01\n        /* \"#utility.yul\":13821:13826   */\n      dup2\n        /* \"#utility.yul\":13817:13830   */\n      add\n        /* \"#utility.yul\":13808:13830   */\n      swap1\n      pop\n        /* \"#utility.yul\":13784:13904   */\n      jump(tag_348)\n    tag_350:\n        /* \"#utility.yul\":13724:13910   */\n      pop\n      pop\n      jump\t// out\n        /* \"#utility.yul\":13916:14459   */\n    tag_197:\n        /* \"#utility.yul\":14017:14019   */\n      0x1f\n        /* \"#utility.yul\":14012:14015   */\n      dup3\n        /* \"#utility.yul\":14009:14020   */\n      gt\n        /* \"#utility.yul\":14006:14452   */\n      iszero\n      tag_353\n      jumpi\n        /* \"#utility.yul\":14051:14089   */\n      tag_354\n        /* \"#utility.yul\":14083:14088   */\n      dup2\n        /* \"#utility.yul\":14051:14089   */\n      tag_186\n      jump\t// in\n    tag_354:\n        /* \"#utility.yul\":14135:14164   */\n      tag_355\n        /* \"#utility.yul\":14153:14163   */\n      dup5\n        /* \"#utility.yul\":14135:14164   */\n      tag_187\n      jump\t// in\n    tag_355:\n        /* \"#utility.yul\":14125:14133   */\n      dup2\n        /* \"#utility.yul\":14121:14165   */\n      add\n        /* \"#utility.yul\":14318:14320   */\n      0x20\n        /* \"#utility.yul\":14306:14316   */\n      dup6\n        /* \"#utility.yul\":14303:14321   */\n      lt\n        /* \"#utility.yul\":14300:14349   */\n      iszero\n      tag_356\n      jumpi\n        /* \"#utility.yul\":14339:14347   */\n      dup2\n        /* \"#utility.yul\":14324:14347   */\n      swap1\n      pop\n        /* \"#utility.yul\":14300:14349   */\n    tag_356:\n        /* \"#utility.yul\":14362:14442   */\n      tag_357\n        /* \"#utility.yul\":14418:14440   */\n      tag_358\n        /* \"#utility.yul\":14436:14439   */\n      dup6\n        /* \"#utility.yul\":14418:14440   */\n      tag_187\n      jump\t// in\n    tag_358:\n        /* \"#utility.yul\":14408:14416   */\n      dup4\n        /* \"#utility.yul\":14404:14441   */\n      add\n        /* \"#utility.yul\":14391:14402   */\n      dup3\n        /* \"#utility.yul\":14362:14442   */\n      tag_196\n      jump\t// in\n    tag_357:\n        /* \"#utility.yul\":14021:14452   */\n      pop\n      pop\n        /* \"#utility.yul\":14006:14452   */\n    tag_353:\n        /* \"#utility.yul\":13916:14459   */\n      pop\n      pop\n      pop\n      jump\t// out\n        /* \"#utility.yul\":14465:14582   */\n    tag_198:\n        /* \"#utility.yul\":14519:14527   */\n      0x00\n        /* \"#utility.yul\":14569:14574   */\n      dup3\n        /* \"#utility.yul\":14563:14567   */\n      dup3\n        /* \"#utility.yul\":14559:14575   */\n      shr\n        /* \"#utility.yul\":14538:14575   */\n      swap1\n      pop\n        /* \"#utility.yul\":14465:14582   */\n      swap3\n      swap2\n      pop\n      pop\n      jump\t// out\n        /* \"#utility.yul\":14588:14757   */\n    tag_199:\n        /* \"#utility.yul\":14632:14638   */\n      0x00\n        /* \"#utility.yul\":14665:14716   */\n      tag_361\n        /* \"#utility.yul\":14713:14714   */\n      0x00\n        /* \"#utility.yul\":14709:14715   */\n      not\n        /* \"#utility.yul\":14701:14706   */\n      dup5\n        /* \"#utility.yul\":14698:14699   */\n      0x08\n        /* \"#utility.yul\":14694:14707   */\n      mul\n        /* \"#utility.yul\":14665:14716   */\n      tag_198\n      jump\t// in\n    tag_361:\n        /* \"#utility.yul\":14661:14717   */\n      not\n        /* \"#utility.yul\":14746:14750   */\n      dup1\n        /* \"#utility.yul\":14740:14744   */\n      dup4\n        /* \"#utility.yul\":14736:14751   */\n      and\n        /* \"#utility.yul\":14726:14751   */\n      swap2\n      pop\n        /* \"#utility.yul\":14639:14757   */\n      pop\n        /* \"#utility.yul\":14588:14757   */\n      swap3\n      swap2\n      pop\n      pop\n      jump\t// out\n        /* \"#utility.yul\":14762:15057   */\n    tag_200:\n        /* \"#utility.yul\":14838:14842   */\n      0x00\n        /* \"#utility.yul\":14984:15013   */\n      tag_363\n        /* \"#utility.yul\":15009:15012   */\n      dup4\n        /* \"#utility.yul\":15003:15007   */\n      dup4\n        /* \"#utility.yul\":14984:15013   */\n      tag_199\n      jump\t// in\n    tag_363:\n        /* \"#utility.yul\":14976:15013   */\n      swap2\n      pop\n        /* \"#utility.yul\":15046:15049   */\n      dup3\n        /* \"#utility.yul\":15043:15044   */\n      0x02\n        /* \"#utility.yul\":15039:15050   */\n      mul\n        /* \"#utility.yul\":15033:15037   */\n      dup3\n        /* \"#utility.yul\":15030:15051   */\n      or\n        /* \"#utility.yul\":15022:15051   */\n      swap1\n      pop\n        /* \"#utility.yul\":14762:15057   */\n      swap3\n      swap2\n      pop\n      pop\n      jump\t// out\n        /* \"#utility.yul\":15062:16457   */\n    tag_143:\n        /* \"#utility.yul\":15179:15216   */\n      tag_365\n        /* \"#utility.yul\":15212:15215   */\n      dup3\n        /* \"#utility.yul\":15179:15216   */\n      tag_161\n      jump\t// in\n    tag_365:\n        /* \"#utility.yul\":15281:15299   */\n      0xffffffffffffffff\n        /* \"#utility.yul\":15273:15279   */\n      dup2\n        /* \"#utility.yul\":15270:15300   */\n      gt\n        /* \"#utility.yul\":15267:15323   */\n      iszero\n      tag_366\n      jumpi\n        /* \"#utility.yul\":15303:15321   */\n      tag_367\n      tag_89\n      jump\t// in\n    tag_367:\n        /* \"#utility.yul\":15267:15323   */\n    tag_366:\n        /* \"#utility.yul\":15347:15385   */\n      tag_368\n        /* \"#utility.yul\":15379:15383   */\n      dup3\n        /* \"#utility.yul\":15373:15384   */\n      sload\n        /* \"#utility.yul\":15347:15385   */\n      tag_37\n      jump\t// in\n    tag_368:\n        /* \"#utility.yul\":15432:15499   */\n      tag_369\n        /* \"#utility.yul\":15492:15498   */\n      dup3\n        /* \"#utility.yul\":15484:15490   */\n      dup3\n        /* \"#utility.yul\":15478:15482   */\n      dup6\n        /* \"#utility.yul\":15432:15499   */\n      tag_197\n      jump\t// in\n    tag_369:\n        /* \"#utility.yul\":15526:15527   */\n      0x00\n        /* \"#utility.yul\":15550:15554   */\n      0x20\n        /* \"#utility.yul\":15537:15554   */\n      swap1\n      pop\n        /* \"#utility.yul\":15582:15584   */\n      0x1f\n        /* \"#utility.yul\":15574:15580   */\n      dup4\n        /* \"#utility.yul\":15571:15585   */\n      gt\n        /* \"#utility.yul\":15599:15600   */\n      0x01\n        /* \"#utility.yul\":15594:16212   */\n      dup2\n      eq\n      tag_371\n      jumpi\n        /* \"#utility.yul\":16256:16257   */\n      0x00\n        /* \"#utility.yul\":16273:16279   */\n      dup5\n        /* \"#utility.yul\":16270:16347   */\n      iszero\n      tag_372\n      jumpi\n        /* \"#utility.yul\":16322:16331   */\n      dup3\n        /* \"#utility.yul\":16317:16320   */\n      dup8\n        /* \"#utility.yul\":16313:16332   */\n      add\n        /* \"#utility.yul\":16307:16333   */\n      mload\n        /* \"#utility.yul\":16298:16333   */\n      swap1\n      pop\n        /* \"#utility.yul\":16270:16347   */\n    tag_372:\n        /* \"#utility.yul\":16373:16440   */\n      tag_373\n        /* \"#utility.yul\":16433:16439   */\n      dup6\n        /* \"#utility.yul\":16426:16431   */\n      dup3\n        /* \"#utility.yul\":16373:16440   */\n      tag_200\n      jump\t// in\n    tag_373:\n        /* \"#utility.yul\":16367:16371   */\n      dup7\n        /* \"#utility.yul\":16360:16441   */\n      sstore\n        /* \"#utility.yul\":16229:16451   */\n      pop\n        /* \"#utility.yul\":15564:16451   */\n      jump(tag_370)\n        /* \"#utility.yul\":15594:16212   */\n    tag_371:\n        /* \"#utility.yul\":15646:15650   */\n      0x1f\n        /* \"#utility.yul\":15642:15651   */\n      not\n        /* \"#utility.yul\":15634:15640   */\n      dup5\n        /* \"#utility.yul\":15630:15652   */\n      and\n        /* \"#utility.yul\":15680:15717   */\n      tag_374\n        /* \"#utility.yul\":15712:15716   */\n      dup7\n        /* \"#utility.yul\":15680:15717   */\n      tag_186\n      jump\t// in\n    tag_374:\n        /* \"#utility.yul\":15739:15740   */\n      0x00\n        /* \"#utility.yul\":15753:15961   */\n    tag_375:\n        /* \"#utility.yul\":15767:15774   */\n      dup3\n        /* \"#utility.yul\":15764:15765   */\n      dup2\n        /* \"#utility.yul\":15761:15775   */\n      lt\n        /* \"#utility.yul\":15753:15961   */\n      iszero\n      tag_377\n      jumpi\n        /* \"#utility.yul\":15846:15855   */\n      dup5\n        /* \"#utility.yul\":15841:15844   */\n      dup10\n        /* \"#utility.yul\":15837:15856   */\n      add\n        /* \"#utility.yul\":15831:15857   */\n      mload\n        /* \"#utility.yul\":15823:15829   */\n      dup3\n        /* \"#utility.yul\":15816:15858   */\n      sstore\n        /* \"#utility.yul\":15897:15898   */\n      0x01\n        /* \"#utility.yul\":15889:15895   */\n      dup3\n        /* \"#utility.yul\":15885:15899   */\n      add\n        /* \"#utility.yul\":15875:15899   */\n      swap2\n      pop\n        /* \"#utility.yul\":15944:15946   */\n      0x20\n        /* \"#utility.yul\":15933:15942   */\n      dup6\n        /* \"#utility.yul\":15929:15947   */\n      add\n        /* \"#utility.yul\":15916:15947   */\n      swap5\n      pop\n        /* \"#utility.yul\":15790:15794   */\n      0x20\n        /* \"#utility.yul\":15787:15788   */\n      dup2\n        /* \"#utility.yul\":15783:15795   */\n      add\n        /* \"#utility.yul\":15778:15795   */\n      swap1\n      pop\n        /* \"#utility.yul\":15753:15961   */\n      jump(tag_375)\n    tag_377:\n        /* \"#utility.yul\":15989:15995   */\n      dup7\n        /* \"#utility.yul\":15980:15987   */\n      dup4\n        /* \"#utility.yul\":15977:15996   */\n      lt\n        /* \"#utility.yul\":15974:16153   */\n      iszero\n      tag_378\n      jumpi\n        /* \"#utility.yul\":16047:16056   */\n      dup5\n        /* \"#utility.yul\":16042:16045   */\n      dup10\n        /* \"#utility.yul\":16038:16057   */\n      add\n        /* \"#utility.yul\":16032:16058   */\n      mload\n        /* \"#utility.yul\":16090:16138   */\n      tag_379\n        /* \"#utility.yul\":16132:16136   */\n      0x1f\n        /* \"#utility.yul\":16124:16130   */\n      dup10\n        /* \"#utility.yul\":16120:16137   */\n      and\n        /* \"#utility.yul\":16109:16118   */\n      dup3\n        /* \"#utility.yul\":16090:16138   */\n      tag_199\n      jump\t// in\n    tag_379:\n        /* \"#utility.yul\":16082:16088   */\n      dup4\n        /* \"#utility.yul\":16075:16139   */\n      sstore\n        /* \"#utility.yul\":15997:16153   */\n      pop\n        /* \"#utility.yul\":15974:16153   */\n    tag_378:\n        /* \"#utility.yul\":16199:16200   */\n      0x01\n        /* \"#utility.yul\":16195:16196   */\n      0x02\n        /* \"#utility.yul\":16187:16193   */\n      dup9\n        /* \"#utility.yul\":16183:16197   */\n      mul\n        /* \"#utility.yul\":16179:16201   */\n      add\n        /* \"#utility.yul\":16173:16177   */\n      dup9\n        /* \"#utility.yul\":16166:16202   */\n      sstore\n        /* \"#utility.yul\":15601:16212   */\n      pop\n      pop\n      pop\n        /* \"#utility.yul\":15564:16451   */\n    tag_370:\n      pop\n        /* \"#utility.yul\":15154:16457   */\n      pop\n      pop\n      pop\n        /* \"#utility.yul\":15062:16457   */\n      pop\n      pop\n      jump\t// out\n        /* \"#utility.yul\":16463:16611   */\n    tag_201:\n        /* \"#utility.yul\":16565:16576   */\n      0x00\n        /* \"#utility.yul\":16602:16605   */\n      dup2\n        /* \"#utility.yul\":16587:16605   */\n      swap1\n      pop\n        /* \"#utility.yul\":16463:16611   */\n      swap3\n      swap2\n      pop\n      pop\n      jump\t// out\n        /* \"#utility.yul\":16617:17007   */\n    tag_202:\n        /* \"#utility.yul\":16723:16726   */\n      0x00\n        /* \"#utility.yul\":16751:16790   */\n      tag_382\n        /* \"#utility.yul\":16784:16789   */\n      dup3\n        /* \"#utility.yul\":16751:16790   */\n      tag_161\n      jump\t// in\n    tag_382:\n        /* \"#utility.yul\":16806:16895   */\n      tag_383\n        /* \"#utility.yul\":16888:16894   */\n      dup2\n        /* \"#utility.yul\":16883:16886   */\n      dup6\n        /* \"#utility.yul\":16806:16895   */\n      tag_201\n      jump\t// in\n    tag_383:\n        /* \"#utility.yul\":16799:16895   */\n      swap4\n      pop\n        /* \"#utility.yul\":16904:16969   */\n      tag_384\n        /* \"#utility.yul\":16962:16968   */\n      dup2\n        /* \"#utility.yul\":16957:16960   */\n      dup6\n        /* \"#utility.yul\":16950:16954   */\n      0x20\n        /* \"#utility.yul\":16943:16948   */\n      dup7\n        /* \"#utility.yul\":16939:16955   */\n      add\n        /* \"#utility.yul\":16904:16969   */\n      tag_163\n      jump\t// in\n    tag_384:\n        /* \"#utility.yul\":16994:17000   */\n      dup1\n        /* \"#utility.yul\":16989:16992   */\n      dup5\n        /* \"#utility.yul\":16985:17001   */\n      add\n        /* \"#utility.yul\":16978:17001   */\n      swap2\n      pop\n        /* \"#utility.yul\":16727:17007   */\n      pop\n        /* \"#utility.yul\":16617:17007   */\n      swap3\n      swap2\n      pop\n      pop\n      jump\t// out\n        /* \"#utility.yul\":17013:17288   */\n    tag_150:\n        /* \"#utility.yul\":17145:17148   */\n      0x00\n        /* \"#utility.yul\":17167:17262   */\n      tag_386\n        /* \"#utility.yul\":17258:17261   */\n      dup3\n        /* \"#utility.yul\":17249:17255   */\n      dup5\n        /* \"#utility.yul\":17167:17262   */\n      tag_202\n      jump\t// in\n    tag_386:\n        /* \"#utility.yul\":17160:17262   */\n      swap2\n      pop\n        /* \"#utility.yul\":17279:17282   */\n      dup2\n        /* \"#utility.yul\":17272:17282   */\n      swap1\n      pop\n        /* \"#utility.yul\":17013:17288   */\n      swap3\n      swap2\n      pop\n      pop\n      jump\t// out\n\n    auxdata: 0xa2646970667358221220f3b47f3421c8d163e60ac915e8870c4befb58f798d572c3e67a90a5c858ef16464736f6c63430008120033\n}\n",
				"bytecode": {
					"linkReferences": {},
					"object": "608060405234801561001057600080fd5b506118b6806100206000396000f3fe608060405234801561001057600080fd5b50600436106100575760003560e01c80634a23f10e1461005c5780634d5af350146100915780636a030ca9146100c1578063c6a645fe146100f6578063c6b959a314610114575b600080fd5b61007660048036038101906100719190610f63565b610130565b60405161008896959493929190611070565b60405180910390f35b6100ab60048036038101906100a69190611222565b61047b565b6040516100b89190611329565b60405180910390f35b6100db60048036038101906100d69190610f63565b610b11565b6040516100ed96959493929190611070565b60405180910390f35b6100fe610d8d565b60405161010b919061134b565b60405180910390f35b61012e60048036038101906101299190611366565b610d93565b005b60006060806060806000600154871061017e576040517f08c379a000000000000000000000000000000000000000000000000000000000815260040161017590611489565b60405180910390fd5b60008060008981526020019081526020016000206040518060c00160405290816000820160009054906101000a900473ffffffffffffffffffffffffffffffffffffffff1673ffffffffffffffffffffffffffffffffffffffff1673ffffffffffffffffffffffffffffffffffffffff168152602001600182018054610203906114d8565b80601f016020809104026020016040519081016040528092919081815260200182805461022f906114d8565b801561027c5780601f106102515761010080835404028352916020019161027c565b820191906000526020600020905b81548152906001019060200180831161025f57829003601f168201915b50505050508152602001600282018054610295906114d8565b80601f01602080910402602001604051908101604052809291908181526020018280546102c1906114d8565b801561030e5780601f106102e35761010080835404028352916020019161030e565b820191906000526020600020905b8154815290600101906020018083116102f157829003601f168201915b50505050508152602001600382018054610327906114d8565b80601f0160208091040260200160405190810160405280929190818152602001828054610353906114d8565b80156103a05780601f10610375576101008083540402835291602001916103a0565b820191906000526020600020905b81548152906001019060200180831161038357829003601f168201915b505050505081526020016004820180546103b9906114d8565b80601f01602080910402602001604051908101604052809291908181526020018280546103e5906114d8565b80156104325780601f1061040757610100808354040283529160200191610432565b820191906000526020600020905b81548152906001019060200180831161041557829003601f168201915b505050505081526020016005820154815250509050806000015181602001518260400151836060015184608001518560a001519650965096509650965096505091939550919395565b60606000805b60015481101561078a5760008060008381526020019081526020016000206040518060c00160405290816000820160009054906101000a900473ffffffffffffffffffffffffffffffffffffffff1673ffffffffffffffffffffffffffffffffffffffff1673ffffffffffffffffffffffffffffffffffffffff168152602001600182018054610510906114d8565b80601f016020809104026020016040519081016040528092919081815260200182805461053c906114d8565b80156105895780601f1061055e57610100808354040283529160200191610589565b820191906000526020600020905b81548152906001019060200180831161056c57829003601f168201915b505050505081526020016002820180546105a2906114d8565b80601f01602080910402602001604051908101604052809291908181526020018280546105ce906114d8565b801561061b5780601f106105f05761010080835404028352916020019161061b565b820191906000526020600020905b8154815290600101906020018083116105fe57829003601f168201915b50505050508152602001600382018054610634906114d8565b80601f0160208091040260200160405190810160405280929190818152602001828054610660906114d8565b80156106ad5780601f10610682576101008083540402835291602001916106ad565b820191906000526020600020905b81548152906001019060200180831161069057829003601f168201915b505050505081526020016004820180546106c6906114d8565b80601f01602080910402602001604051908101604052809291908181526020018280546106f2906114d8565b801561073f5780601f106107145761010080835404028352916020019161073f565b820191906000526020600020905b81548152906001019060200180831161072257829003601f168201915b505050505081526020016005820154815250509050610762816020015186610ec0565b1561077657828061077290611538565b9350505b50808061078290611538565b915050610481565b5060008167ffffffffffffffff8111156107a7576107a66110f7565b5b6040519080825280602002602001820160405280156107d55781602001602082028036833780820191505090505b5090506000805b600154811015610b055760008060008381526020019081526020016000206040518060c00160405290816000820160009054906101000a900473ffffffffffffffffffffffffffffffffffffffff1673ffffffffffffffffffffffffffffffffffffffff1673ffffffffffffffffffffffffffffffffffffffff16815260200160018201805461086b906114d8565b80601f0160208091040260200160405190810160405280929190818152602001828054610897906114d8565b80156108e45780601f106108b9576101008083540402835291602001916108e4565b820191906000526020600020905b8154815290600101906020018083116108c757829003601f168201915b505050505081526020016002820180546108fd906114d8565b80601f0160208091040260200160405190810160405280929190818152602001828054610929906114d8565b80156109765780601f1061094b57610100808354040283529160200191610976565b820191906000526020600020905b81548152906001019060200180831161095957829003601f168201915b5050505050815260200160038201805461098f906114d8565b80601f01602080910402602001604051908101604052809291908181526020018280546109bb906114d8565b8015610a085780601f106109dd57610100808354040283529160200191610a08565b820191906000526020600020905b8154815290600101906020018083116109eb57829003601f168201915b50505050508152602001600482018054610a21906114d8565b80601f0160208091040260200160405190810160405280929190818152602001828054610a4d906114d8565b8015610a9a5780601f10610a6f57610100808354040283529160200191610a9a565b820191906000526020600020905b815481529060010190602001808311610a7d57829003601f168201915b505050505081526020016005820154815250509050610abd816020015188610ec0565b15610af15781848481518110610ad657610ad5611580565b5b6020026020010181815250508280610aed90611538565b9350505b508080610afd90611538565b9150506107dc565b50819350505050919050565b60006020528060005260406000206000915090508060000160009054906101000a900473ffffffffffffffffffffffffffffffffffffffff1690806001018054610b5a906114d8565b80601f0160208091040260200160405190810160405280929190818152602001828054610b86906114d8565b8015610bd35780601f10610ba857610100808354040283529160200191610bd3565b820191906000526020600020905b815481529060010190602001808311610bb657829003601f168201915b505050505090806002018054610be8906114d8565b80601f0160208091040260200160405190810160405280929190818152602001828054610c14906114d8565b8015610c615780601f10610c3657610100808354040283529160200191610c61565b820191906000526020600020905b815481529060010190602001808311610c4457829003601f168201915b505050505090806003018054610c76906114d8565b80601f0160208091040260200160405190810160405280929190818152602001828054610ca2906114d8565b8015610cef5780601f10610cc457610100808354040283529160200191610cef565b820191906000526020600020905b815481529060010190602001808311610cd257829003601f168201915b505050505090806004018054610d04906114d8565b80601f0160208091040260200160405190810160405280929190818152602001828054610d30906114d8565b8015610d7d5780601f10610d5257610100808354040283529160200191610d7d565b820191906000526020600020905b815481529060010190602001808311610d6057829003601f168201915b5050505050908060050154905086565b60015481565b600042905060006040518060c001604052803373ffffffffffffffffffffffffffffffffffffffff16815260200187815260200186815260200185815260200184815260200183815250905080600080600154815260200190815260200160002060008201518160000160006101000a81548173ffffffffffffffffffffffffffffffffffffffff021916908373ffffffffffffffffffffffffffffffffffffffff1602179055506020820151816001019081610e50919061175b565b506040820151816002019081610e66919061175b565b506060820151816003019081610e7c919061175b565b506080820151816004019081610e92919061175b565b5060a0820151816005015590505060016000815480929190610eb390611538565b9190505550505050505050565b600081604051602001610ed39190611869565b6040516020818303038152906040528051906020012083604051602001610efa9190611869565b6040516020818303038152906040528051906020012014905092915050565b6000604051905090565b600080fd5b600080fd5b6000819050919050565b610f4081610f2d565b8114610f4b57600080fd5b50565b600081359050610f5d81610f37565b92915050565b600060208284031215610f7957610f78610f23565b5b6000610f8784828501610f4e565b91505092915050565b600073ffffffffffffffffffffffffffffffffffffffff82169050919050565b6000610fbb82610f90565b9050919050565b610fcb81610fb0565b82525050565b600081519050919050565b600082825260208201905092915050565b60005b8381101561100b578082015181840152602081019050610ff0565b60008484015250505050565b6000601f19601f8301169050919050565b600061103382610fd1565b61103d8185610fdc565b935061104d818560208601610fed565b61105681611017565b840191505092915050565b61106a81610f2d565b82525050565b600060c0820190506110856000830189610fc2565b81810360208301526110978188611028565b905081810360408301526110ab8187611028565b905081810360608301526110bf8186611028565b905081810360808301526110d38185611028565b90506110e260a0830184611061565b979650505050505050565b600080fd5b600080fd5b7f4e487b7100000000000000000000000000000000000000000000000000000000600052604160045260246000fd5b61112f82611017565b810181811067ffffffffffffffff8211171561114e5761114d6110f7565b5b80604052505050565b6000611161610f19565b905061116d8282611126565b919050565b600067ffffffffffffffff82111561118d5761118c6110f7565b5b61119682611017565b9050602081019050919050565b82818337600083830152505050565b60006111c56111c084611172565b611157565b9050828152602081018484840111156111e1576111e06110f2565b5b6111ec8482856111a3565b509392505050565b600082601f830112611209576112086110ed565b5b81356112198482602086016111b2565b91505092915050565b60006020828403121561123857611237610f23565b5b600082013567ffffffffffffffff81111561125657611255610f28565b5b611262848285016111f4565b91505092915050565b600081519050919050565b600082825260208201905092915050565b6000819050602082019050919050565b6112a081610f2d565b82525050565b60006112b28383611297565b60208301905092915050565b6000602082019050919050565b60006112d68261126b565b6112e08185611276565b93506112eb83611287565b8060005b8381101561131c57815161130388826112a6565b975061130e836112be565b9250506001810190506112ef565b5085935050505092915050565b6000602082019050818103600083015261134381846112cb565b905092915050565b60006020820190506113606000830184611061565b92915050565b600080600080608085870312156113805761137f610f23565b5b600085013567ffffffffffffffff81111561139e5761139d610f28565b5b6113aa878288016111f4565b945050602085013567ffffffffffffffff8111156113cb576113ca610f28565b5b6113d7878288016111f4565b935050604085013567ffffffffffffffff8111156113f8576113f7610f28565b5b611404878288016111f4565b925050606085013567ffffffffffffffff81111561142557611424610f28565b5b611431878288016111f4565b91505092959194509250565b7f496e76616c696420696e64657800000000000000000000000000000000000000600082015250565b6000611473600d83610fdc565b915061147e8261143d565b602082019050919050565b600060208201905081810360008301526114a281611466565b9050919050565b7f4e487b7100000000000000000000000000000000000000000000000000000000600052602260045260246000fd5b600060028204905060018216806114f057607f821691505b602082108103611503576115026114a9565b5b50919050565b7f4e487b7100000000000000000000000000000000000000000000000000000000600052601160045260246000fd5b600061154382610f2d565b91507fffffffffffffffffffffffffffffffffffffffffffffffffffffffffffffffff820361157557611574611509565b5b600182019050919050565b7f4e487b7100000000000000000000000000000000000000000000000000000000600052603260045260246000fd5b60008190508160005260206000209050919050565b60006020601f8301049050919050565b600082821b905092915050565b6000600883026116117fffffffffffffffffffffffffffffffffffffffffffffffffffffffffffffffff826115d4565b61161b86836115d4565b95508019841693508086168417925050509392505050565b6000819050919050565b600061165861165361164e84610f2d565b611633565b610f2d565b9050919050565b6000819050919050565b6116728361163d565b61168661167e8261165f565b8484546115e1565b825550505050565b600090565b61169b61168e565b6116a6818484611669565b505050565b5b818110156116ca576116bf600082611693565b6001810190506116ac565b5050565b601f82111561170f576116e0816115af565b6116e9846115c4565b810160208510156116f8578190505b61170c611704856115c4565b8301826116ab565b50505b505050565b600082821c905092915050565b600061173260001984600802611714565b1980831691505092915050565b600061174b8383611721565b9150826002028217905092915050565b61176482610fd1565b67ffffffffffffffff81111561177d5761177c6110f7565b5b61178782546114d8565b6117928282856116ce565b600060209050601f8311600181146117c557600084156117b3578287015190505b6117bd858261173f565b865550611825565b601f1984166117d3866115af565b60005b828110156117fb578489015182556001820191506020850194506020810190506117d6565b868310156118185784890151611814601f891682611721565b8355505b6001600288020188555050505b505050505050565b600081905092915050565b600061184382610fd1565b61184d818561182d565b935061185d818560208601610fed565b80840191505092915050565b60006118758284611838565b91508190509291505056fea2646970667358221220f3b47f3421c8d163e60ac915e8870c4befb58f798d572c3e67a90a5c858ef16464736f6c63430008120033",
					"opcodes": "PUSH1 0x80 PUSH1 0x40 MSTORE CALLVALUE DUP1 ISZERO PUSH2 0x10 JUMPI PUSH1 0x0 DUP1 REVERT JUMPDEST POP PUSH2 0x18B6 DUP1 PUSH2 0x20 PUSH1 0x0 CODECOPY PUSH1 0x0 RETURN INVALID PUSH1 0x80 PUSH1 0x40 MSTORE CALLVALUE DUP1 ISZERO PUSH2 0x10 JUMPI PUSH1 0x0 DUP1 REVERT JUMPDEST POP PUSH1 0x4 CALLDATASIZE LT PUSH2 0x57 JUMPI PUSH1 0x0 CALLDATALOAD PUSH1 0xE0 SHR DUP1 PUSH4 0x4A23F10E EQ PUSH2 0x5C JUMPI DUP1 PUSH4 0x4D5AF350 EQ PUSH2 0x91 JUMPI DUP1 PUSH4 0x6A030CA9 EQ PUSH2 0xC1 JUMPI DUP1 PUSH4 0xC6A645FE EQ PUSH2 0xF6 JUMPI DUP1 PUSH4 0xC6B959A3 EQ PUSH2 0x114 JUMPI JUMPDEST PUSH1 0x0 DUP1 REVERT JUMPDEST PUSH2 0x76 PUSH1 0x4 DUP1 CALLDATASIZE SUB DUP2 ADD SWAP1 PUSH2 0x71 SWAP2 SWAP1 PUSH2 0xF63 JUMP JUMPDEST PUSH2 0x130 JUMP JUMPDEST PUSH1 0x40 MLOAD PUSH2 0x88 SWAP7 SWAP6 SWAP5 SWAP4 SWAP3 SWAP2 SWAP1 PUSH2 0x1070 JUMP JUMPDEST PUSH1 0x40 MLOAD DUP1 SWAP2 SUB SWAP1 RETURN JUMPDEST PUSH2 0xAB PUSH1 0x4 DUP1 CALLDATASIZE SUB DUP2 ADD SWAP1 PUSH2 0xA6 SWAP2 SWAP1 PUSH2 0x1222 JUMP JUMPDEST PUSH2 0x47B JUMP JUMPDEST PUSH1 0x40 MLOAD PUSH2 0xB8 SWAP2 SWAP1 PUSH2 0x1329 JUMP JUMPDEST PUSH1 0x40 MLOAD DUP1 SWAP2 SUB SWAP1 RETURN JUMPDEST PUSH2 0xDB PUSH1 0x4 DUP1 CALLDATASIZE SUB DUP2 ADD SWAP1 PUSH2 0xD6 SWAP2 SWAP1 PUSH2 0xF63 JUMP JUMPDEST PUSH2 0xB11 JUMP JUMPDEST PUSH1 0x40 MLOAD PUSH2 0xED SWAP7 SWAP6 SWAP5 SWAP4 SWAP3 SWAP2 SWAP1 PUSH2 0x1070 JUMP JUMPDEST PUSH1 0x40 MLOAD DUP1 SWAP2 SUB SWAP1 RETURN JUMPDEST PUSH2 0xFE PUSH2 0xD8D JUMP JUMPDEST PUSH1 0x40 MLOAD PUSH2 0x10B SWAP2 SWAP1 PUSH2 0x134B JUMP JUMPDEST PUSH1 0x40 MLOAD DUP1 SWAP2 SUB SWAP1 RETURN JUMPDEST PUSH2 0x12E PUSH1 0x4 DUP1 CALLDATASIZE SUB DUP2 ADD SWAP1 PUSH2 0x129 SWAP2 SWAP1 PUSH2 0x1366 JUMP JUMPDEST PUSH2 0xD93 JUMP JUMPDEST STOP JUMPDEST PUSH1 0x0 PUSH1 0x60 DUP1 PUSH1 0x60 DUP1 PUSH1 0x0 PUSH1 0x1 SLOAD DUP8 LT PUSH2 0x17E JUMPI PUSH1 0x40 MLOAD PUSH32 0x8C379A000000000000000000000000000000000000000000000000000000000 DUP2 MSTORE PUSH1 0x4 ADD PUSH2 0x175 SWAP1 PUSH2 0x1489 JUMP JUMPDEST PUSH1 0x40 MLOAD DUP1 SWAP2 SUB SWAP1 REVERT JUMPDEST PUSH1 0x0 DUP1 PUSH1 0x0 DUP10 DUP2 MSTORE PUSH1 0x20 ADD SWAP1 DUP2 MSTORE PUSH1 0x20 ADD PUSH1 0x0 KECCAK256 PUSH1 0x40 MLOAD DUP1 PUSH1 0xC0 ADD PUSH1 0x40 MSTORE SWAP1 DUP2 PUSH1 0x0 DUP3 ADD PUSH1 0x0 SWAP1 SLOAD SWAP1 PUSH2 0x100 EXP SWAP1 DIV PUSH20 0xFFFFFFFFFFFFFFFFFFFFFFFFFFFFFFFFFFFFFFFF AND PUSH20 0xFFFFFFFFFFFFFFFFFFFFFFFFFFFFFFFFFFFFFFFF AND PUSH20 0xFFFFFFFFFFFFFFFFFFFFFFFFFFFFFFFFFFFFFFFF AND DUP2 MSTORE PUSH1 0x20 ADD PUSH1 0x1 DUP3 ADD DUP1 SLOAD PUSH2 0x203 SWAP1 PUSH2 0x14D8 JUMP JUMPDEST DUP1 PUSH1 0x1F ADD PUSH1 0x20 DUP1 SWAP2 DIV MUL PUSH1 0x20 ADD PUSH1 0x40 MLOAD SWAP1 DUP2 ADD PUSH1 0x40 MSTORE DUP1 SWAP3 SWAP2 SWAP1 DUP2 DUP2 MSTORE PUSH1 0x20 ADD DUP3 DUP1 SLOAD PUSH2 0x22F SWAP1 PUSH2 0x14D8 JUMP JUMPDEST DUP1 ISZERO PUSH2 0x27C JUMPI DUP1 PUSH1 0x1F LT PUSH2 0x251 JUMPI PUSH2 0x100 DUP1 DUP4 SLOAD DIV MUL DUP4 MSTORE SWAP2 PUSH1 0x20 ADD SWAP2 PUSH2 0x27C JUMP JUMPDEST DUP3 ADD SWAP2 SWAP1 PUSH1 0x0 MSTORE PUSH1 0x20 PUSH1 0x0 KECCAK256 SWAP1 JUMPDEST DUP2 SLOAD DUP2 MSTORE SWAP1 PUSH1 0x1 ADD SWAP1 PUSH1 0x20 ADD DUP1 DUP4 GT PUSH2 0x25F JUMPI DUP3 SWAP1 SUB PUSH1 0x1F AND DUP3 ADD SWAP2 JUMPDEST POP POP POP POP POP DUP2 MSTORE PUSH1 0x20 ADD PUSH1 0x2 DUP3 ADD DUP1 SLOAD PUSH2 0x295 SWAP1 PUSH2 0x14D8 JUMP JUMPDEST DUP1 PUSH1 0x1F ADD PUSH1 0x20 DUP1 SWAP2 DIV MUL PUSH1 0x20 ADD PUSH1 0x40 MLOAD SWAP1 DUP2 ADD PUSH1 0x40 MSTORE DUP1 SWAP3 SWAP2 SWAP1 DUP2 DUP2 MSTORE PUSH1 0x20 ADD DUP3 DUP1 SLOAD PUSH2 0x2C1 SWAP1 PUSH2 0x14D8 JUMP JUMPDEST DUP1 ISZERO PUSH2 0x30E JUMPI DUP1 PUSH1 0x1F LT PUSH2 0x2E3 JUMPI PUSH2 0x100 DUP1 DUP4 SLOAD DIV MUL DUP4 MSTORE SWAP2 PUSH1 0x20 ADD SWAP2 PUSH2 0x30E JUMP JUMPDEST DUP3 ADD SWAP2 SWAP1 PUSH1 0x0 MSTORE PUSH1 0x20 PUSH1 0x0 KECCAK256 SWAP1 JUMPDEST DUP2 SLOAD DUP2 MSTORE SWAP1 PUSH1 0x1 ADD SWAP1 PUSH1 0x20 ADD DUP1 DUP4 GT PUSH2 0x2F1 JUMPI DUP3 SWAP1 SUB PUSH1 0x1F AND DUP3 ADD SWAP2 JUMPDEST POP POP POP POP POP DUP2 MSTORE PUSH1 0x20 ADD PUSH1 0x3 DUP3 ADD DUP1 SLOAD PUSH2 0x327 SWAP1 PUSH2 0x14D8 JUMP JUMPDEST DUP1 PUSH1 0x1F ADD PUSH1 0x20 DUP1 SWAP2 DIV MUL PUSH1 0x20 ADD PUSH1 0x40 MLOAD SWAP1 DUP2 ADD PUSH1 0x40 MSTORE DUP1 SWAP3 SWAP2 SWAP1 DUP2 DUP2 MSTORE PUSH1 0x20 ADD DUP3 DUP1 SLOAD PUSH2 0x353 SWAP1 PUSH2 0x14D8 JUMP JUMPDEST DUP1 ISZERO PUSH2 0x3A0 JUMPI DUP1 PUSH1 0x1F LT PUSH2 0x375 JUMPI PUSH2 0x100 DUP1 DUP4 SLOAD DIV MUL DUP4 MSTORE SWAP2 PUSH1 0x20 ADD SWAP2 PUSH2 0x3A0 JUMP JUMPDEST DUP3 ADD SWAP2 SWAP1 PUSH1 0x0 MSTORE PUSH1 0x20 PUSH1 0x0 KECCAK256 SWAP1 JUMPDEST DUP2 SLOAD DUP2 MSTORE SWAP1 PUSH1 0x1 ADD SWAP1 PUSH1 0x20 ADD DUP1 DUP4 GT PUSH2 0x383 JUMPI DUP3 SWAP1 SUB PUSH1 0x1F AND DUP3 ADD SWAP2 JUMPDEST POP POP POP POP POP DUP2 MSTORE PUSH1 0x20 ADD PUSH1 0x4 DUP3 ADD DUP1 SLOAD PUSH2 0x3B9 SWAP1 PUSH2 0x14D8 JUMP JUMPDEST DUP1 PUSH1 0x1F ADD PUSH1 0x20 DUP1 SWAP2 DIV MUL PUSH1 0x20 ADD PUSH1 0x40 MLOAD SWAP1 DUP2 ADD PUSH1 0x40 MSTORE DUP1 SWAP3 SWAP2 SWAP1 DUP2 DUP2 MSTORE PUSH1 0x20 ADD DUP3 DUP1 SLOAD PUSH2 0x3E5 SWAP1 PUSH2 0x14D8 JUMP JUMPDEST DUP1 ISZERO PUSH2 0x432 JUMPI DUP1 PUSH1 0x1F LT PUSH2 0x407 JUMPI PUSH2 0x100 DUP1 DUP4 SLOAD DIV MUL DUP4 MSTORE SWAP2 PUSH1 0x20 ADD SWAP2 PUSH2 0x432 JUMP JUMPDEST DUP3 ADD SWAP2 SWAP1 PUSH1 0x0 MSTORE PUSH1 0x20 PUSH1 0x0 KECCAK256 SWAP1 JUMPDEST DUP2 SLOAD DUP2 MSTORE SWAP1 PUSH1 0x1 ADD SWAP1 PUSH1 0x20 ADD DUP1 DUP4 GT PUSH2 0x415 JUMPI DUP3 SWAP1 SUB PUSH1 0x1F AND DUP3 ADD SWAP2 JUMPDEST POP POP POP POP POP DUP2 MSTORE PUSH1 0x20 ADD PUSH1 0x5 DUP3 ADD SLOAD DUP2 MSTORE POP POP SWAP1 POP DUP1 PUSH1 0x0 ADD MLOAD DUP2 PUSH1 0x20 ADD MLOAD DUP3 PUSH1 0x40 ADD MLOAD DUP4 PUSH1 0x60 ADD MLOAD DUP5 PUSH1 0x80 ADD MLOAD DUP6 PUSH1 0xA0 ADD MLOAD SWAP7 POP SWAP7 POP SWAP7 POP SWAP7 POP SWAP7 POP SWAP7 POP POP SWAP2 SWAP4 SWAP6 POP SWAP2 SWAP4 SWAP6 JUMP JUMPDEST PUSH1 0x60 PUSH1 0x0 DUP1 JUMPDEST PUSH1 0x1 SLOAD DUP2 LT ISZERO PUSH2 0x78A JUMPI PUSH1 0x0 DUP1 PUSH1 0x0 DUP4 DUP2 MSTORE PUSH1 0x20 ADD SWAP1 DUP2 MSTORE PUSH1 0x20 ADD PUSH1 0x0 KECCAK256 PUSH1 0x40 MLOAD DUP1 PUSH1 0xC0 ADD PUSH1 0x40 MSTORE SWAP1 DUP2 PUSH1 0x0 DUP3 ADD PUSH1 0x0 SWAP1 SLOAD SWAP1 PUSH2 0x100 EXP SWAP1 DIV PUSH20 0xFFFFFFFFFFFFFFFFFFFFFFFFFFFFFFFFFFFFFFFF AND PUSH20 0xFFFFFFFFFFFFFFFFFFFFFFFFFFFFFFFFFFFFFFFF AND PUSH20 0xFFFFFFFFFFFFFFFFFFFFFFFFFFFFFFFFFFFFFFFF AND DUP2 MSTORE PUSH1 0x20 ADD PUSH1 0x1 DUP3 ADD DUP1 SLOAD PUSH2 0x510 SWAP1 PUSH2 0x14D8 JUMP JUMPDEST DUP1 PUSH1 0x1F ADD PUSH1 0x20 DUP1 SWAP2 DIV MUL PUSH1 0x20 ADD PUSH1 0x40 MLOAD SWAP1 DUP2 ADD PUSH1 0x40 MSTORE DUP1 SWAP3 SWAP2 SWAP1 DUP2 DUP2 MSTORE PUSH1 0x20 ADD DUP3 DUP1 SLOAD PUSH2 0x53C SWAP1 PUSH2 0x14D8 JUMP JUMPDEST DUP1 ISZERO PUSH2 0x589 JUMPI DUP1 PUSH1 0x1F LT PUSH2 0x55E JUMPI PUSH2 0x100 DUP1 DUP4 SLOAD DIV MUL DUP4 MSTORE SWAP2 PUSH1 0x20 ADD SWAP2 PUSH2 0x589 JUMP JUMPDEST DUP3 ADD SWAP2 SWAP1 PUSH1 0x0 MSTORE PUSH1 0x20 PUSH1 0x0 KECCAK256 SWAP1 JUMPDEST DUP2 SLOAD DUP2 MSTORE SWAP1 PUSH1 0x1 ADD SWAP1 PUSH1 0x20 ADD DUP1 DUP4 GT PUSH2 0x56C JUMPI DUP3 SWAP1 SUB PUSH1 0x1F AND DUP3 ADD SWAP2 JUMPDEST POP POP POP POP POP DUP2 MSTORE PUSH1 0x20 ADD PUSH1 0x2 DUP3 ADD DUP1 SLOAD PUSH2 0x5A2 SWAP1 PUSH2 0x14D8 JUMP JUMPDEST DUP1 PUSH1 0x1F ADD PUSH1 0x20 DUP1 SWAP2 DIV MUL PUSH1 0x20 ADD PUSH1 0x40 MLOAD SWAP1 DUP2 ADD PUSH1 0x40 MSTORE DUP1 SWAP3 SWAP2 SWAP1 DUP2 DUP2 MSTORE PUSH1 0x20 ADD DUP3 DUP1 SLOAD PUSH2 0x5CE SWAP1 PUSH2 0x14D8 JUMP JUMPDEST DUP1 ISZERO PUSH2 0x61B JUMPI DUP1 PUSH1 0x1F LT PUSH2 0x5F0 JUMPI PUSH2 0x100 DUP1 DUP4 SLOAD DIV MUL DUP4 MSTORE SWAP2 PUSH1 0x20 ADD SWAP2 PUSH2 0x61B JUMP JUMPDEST DUP3 ADD SWAP2 SWAP1 PUSH1 0x0 MSTORE PUSH1 0x20 PUSH1 0x0 KECCAK256 SWAP1 JUMPDEST DUP2 SLOAD DUP2 MSTORE SWAP1 PUSH1 0x1 ADD SWAP1 PUSH1 0x20 ADD DUP1 DUP4 GT PUSH2 0x5FE JUMPI DUP3 SWAP1 SUB PUSH1 0x1F AND DUP3 ADD SWAP2 JUMPDEST POP POP POP POP POP DUP2 MSTORE PUSH1 0x20 ADD PUSH1 0x3 DUP3 ADD DUP1 SLOAD PUSH2 0x634 SWAP1 PUSH2 0x14D8 JUMP JUMPDEST DUP1 PUSH1 0x1F ADD PUSH1 0x20 DUP1 SWAP2 DIV MUL PUSH1 0x20 ADD PUSH1 0x40 MLOAD SWAP1 DUP2 ADD PUSH1 0x40 MSTORE DUP1 SWAP3 SWAP2 SWAP1 DUP2 DUP2 MSTORE PUSH1 0x20 ADD DUP3 DUP1 SLOAD PUSH2 0x660 SWAP1 PUSH2 0x14D8 JUMP JUMPDEST DUP1 ISZERO PUSH2 0x6AD JUMPI DUP1 PUSH1 0x1F LT PUSH2 0x682 JUMPI PUSH2 0x100 DUP1 DUP4 SLOAD DIV MUL DUP4 MSTORE SWAP2 PUSH1 0x20 ADD SWAP2 PUSH2 0x6AD JUMP JUMPDEST DUP3 ADD SWAP2 SWAP1 PUSH1 0x0 MSTORE PUSH1 0x20 PUSH1 0x0 KECCAK256 SWAP1 JUMPDEST DUP2 SLOAD DUP2 MSTORE SWAP1 PUSH1 0x1 ADD SWAP1 PUSH1 0x20 ADD DUP1 DUP4 GT PUSH2 0x690 JUMPI DUP3 SWAP1 SUB PUSH1 0x1F AND DUP3 ADD SWAP2 JUMPDEST POP POP POP POP POP DUP2 MSTORE PUSH1 0x20 ADD PUSH1 0x4 DUP3 ADD DUP1 SLOAD PUSH2 0x6C6 SWAP1 PUSH2 0x14D8 JUMP JUMPDEST DUP1 PUSH1 0x1F ADD PUSH1 0x20 DUP1 SWAP2 DIV MUL PUSH1 0x20 ADD PUSH1 0x40 MLOAD SWAP1 DUP2 ADD PUSH1 0x40 MSTORE DUP1 SWAP3 SWAP2 SWAP1 DUP2 DUP2 MSTORE PUSH1 0x20 ADD DUP3 DUP1 SLOAD PUSH2 0x6F2 SWAP1 PUSH2 0x14D8 JUMP JUMPDEST DUP1 ISZERO PUSH2 0x73F JUMPI DUP1 PUSH1 0x1F LT PUSH2 0x714 JUMPI PUSH2 0x100 DUP1 DUP4 SLOAD DIV MUL DUP4 MSTORE SWAP2 PUSH1 0x20 ADD SWAP2 PUSH2 0x73F JUMP JUMPDEST DUP3 ADD SWAP2 SWAP1 PUSH1 0x0 MSTORE PUSH1 0x20 PUSH1 0x0 KECCAK256 SWAP1 JUMPDEST DUP2 SLOAD DUP2 MSTORE SWAP1 PUSH1 0x1 ADD SWAP1 PUSH1 0x20 ADD DUP1 DUP4 GT PUSH2 0x722 JUMPI DUP3 SWAP1 SUB PUSH1 0x1F AND DUP3 ADD SWAP2 JUMPDEST POP POP POP POP POP DUP2 MSTORE PUSH1 0x20 ADD PUSH1 0x5 DUP3 ADD SLOAD DUP2 MSTORE POP POP SWAP1 POP PUSH2 0x762 DUP2 PUSH1 0x20 ADD MLOAD DUP7 PUSH2 0xEC0 JUMP JUMPDEST ISZERO PUSH2 0x776 JUMPI DUP3 DUP1 PUSH2 0x772 SWAP1 PUSH2 0x1538 JUMP JUMPDEST SWAP4 POP POP JUMPDEST POP DUP1 DUP1 PUSH2 0x782 SWAP1 PUSH2 0x1538 JUMP JUMPDEST SWAP2 POP POP PUSH2 0x481 JUMP JUMPDEST POP PUSH1 0x0 DUP2 PUSH8 0xFFFFFFFFFFFFFFFF DUP2 GT ISZERO PUSH2 0x7A7 JUMPI PUSH2 0x7A6 PUSH2 0x10F7 JUMP JUMPDEST JUMPDEST PUSH1 0x40 MLOAD SWAP1 DUP1 DUP3 MSTORE DUP1 PUSH1 0x20 MUL PUSH1 0x20 ADD DUP3 ADD PUSH1 0x40 MSTORE DUP1 ISZERO PUSH2 0x7D5 JUMPI DUP2 PUSH1 0x20 ADD PUSH1 0x20 DUP3 MUL DUP1 CALLDATASIZE DUP4 CALLDATACOPY DUP1 DUP3 ADD SWAP2 POP POP SWAP1 POP JUMPDEST POP SWAP1 POP PUSH1 0x0 DUP1 JUMPDEST PUSH1 0x1 SLOAD DUP2 LT ISZERO PUSH2 0xB05 JUMPI PUSH1 0x0 DUP1 PUSH1 0x0 DUP4 DUP2 MSTORE PUSH1 0x20 ADD SWAP1 DUP2 MSTORE PUSH1 0x20 ADD PUSH1 0x0 KECCAK256 PUSH1 0x40 MLOAD DUP1 PUSH1 0xC0 ADD PUSH1 0x40 MSTORE SWAP1 DUP2 PUSH1 0x0 DUP3 ADD PUSH1 0x0 SWAP1 SLOAD SWAP1 PUSH2 0x100 EXP SWAP1 DIV PUSH20 0xFFFFFFFFFFFFFFFFFFFFFFFFFFFFFFFFFFFFFFFF AND PUSH20 0xFFFFFFFFFFFFFFFFFFFFFFFFFFFFFFFFFFFFFFFF AND PUSH20 0xFFFFFFFFFFFFFFFFFFFFFFFFFFFFFFFFFFFFFFFF AND DUP2 MSTORE PUSH1 0x20 ADD PUSH1 0x1 DUP3 ADD DUP1 SLOAD PUSH2 0x86B SWAP1 PUSH2 0x14D8 JUMP JUMPDEST DUP1 PUSH1 0x1F ADD PUSH1 0x20 DUP1 SWAP2 DIV MUL PUSH1 0x20 ADD PUSH1 0x40 MLOAD SWAP1 DUP2 ADD PUSH1 0x40 MSTORE DUP1 SWAP3 SWAP2 SWAP1 DUP2 DUP2 MSTORE PUSH1 0x20 ADD DUP3 DUP1 SLOAD PUSH2 0x897 SWAP1 PUSH2 0x14D8 JUMP JUMPDEST DUP1 ISZERO PUSH2 0x8E4 JUMPI DUP1 PUSH1 0x1F LT PUSH2 0x8B9 JUMPI PUSH2 0x100 DUP1 DUP4 SLOAD DIV MUL DUP4 MSTORE SWAP2 PUSH1 0x20 ADD SWAP2 PUSH2 0x8E4 JUMP JUMPDEST DUP3 ADD SWAP2 SWAP1 PUSH1 0x0 MSTORE PUSH1 0x20 PUSH1 0x0 KECCAK256 SWAP1 JUMPDEST DUP2 SLOAD DUP2 MSTORE SWAP1 PUSH1 0x1 ADD SWAP1 PUSH1 0x20 ADD DUP1 DUP4 GT PUSH2 0x8C7 JUMPI DUP3 SWAP1 SUB PUSH1 0x1F AND DUP3 ADD SWAP2 JUMPDEST POP POP POP POP POP DUP2 MSTORE PUSH1 0x20 ADD PUSH1 0x2 DUP3 ADD DUP1 SLOAD PUSH2 0x8FD SWAP1 PUSH2 0x14D8 JUMP JUMPDEST DUP1 PUSH1 0x1F ADD PUSH1 0x20 DUP1 SWAP2 DIV MUL PUSH1 0x20 ADD PUSH1 0x40 MLOAD SWAP1 DUP2 ADD PUSH1 0x40 MSTORE DUP1 SWAP3 SWAP2 SWAP1 DUP2 DUP2 MSTORE PUSH1 0x20 ADD DUP3 DUP1 SLOAD PUSH2 0x929 SWAP1 PUSH2 0x14D8 JUMP JUMPDEST DUP1 ISZERO PUSH2 0x976 JUMPI DUP1 PUSH1 0x1F LT PUSH2 0x94B JUMPI PUSH2 0x100 DUP1 DUP4 SLOAD DIV MUL DUP4 MSTORE SWAP2 PUSH1 0x20 ADD SWAP2 PUSH2 0x976 JUMP JUMPDEST DUP3 ADD SWAP2 SWAP1 PUSH1 0x0 MSTORE PUSH1 0x20 PUSH1 0x0 KECCAK256 SWAP1 JUMPDEST DUP2 SLOAD DUP2 MSTORE SWAP1 PUSH1 0x1 ADD SWAP1 PUSH1 0x20 ADD DUP1 DUP4 GT PUSH2 0x959 JUMPI DUP3 SWAP1 SUB PUSH1 0x1F AND DUP3 ADD SWAP2 JUMPDEST POP POP POP POP POP DUP2 MSTORE PUSH1 0x20 ADD PUSH1 0x3 DUP3 ADD DUP1 SLOAD PUSH2 0x98F SWAP1 PUSH2 0x14D8 JUMP JUMPDEST DUP1 PUSH1 0x1F ADD PUSH1 0x20 DUP1 SWAP2 DIV MUL PUSH1 0x20 ADD PUSH1 0x40 MLOAD SWAP1 DUP2 ADD PUSH1 0x40 MSTORE DUP1 SWAP3 SWAP2 SWAP1 DUP2 DUP2 MSTORE PUSH1 0x20 ADD DUP3 DUP1 SLOAD PUSH2 0x9BB SWAP1 PUSH2 0x14D8 JUMP JUMPDEST DUP1 ISZERO PUSH2 0xA08 JUMPI DUP1 PUSH1 0x1F LT PUSH2 0x9DD JUMPI PUSH2 0x100 DUP1 DUP4 SLOAD DIV MUL DUP4 MSTORE SWAP2 PUSH1 0x20 ADD SWAP2 PUSH2 0xA08 JUMP JUMPDEST DUP3 ADD SWAP2 SWAP1 PUSH1 0x0 MSTORE PUSH1 0x20 PUSH1 0x0 KECCAK256 SWAP1 JUMPDEST DUP2 SLOAD DUP2 MSTORE SWAP1 PUSH1 0x1 ADD SWAP1 PUSH1 0x20 ADD DUP1 DUP4 GT PUSH2 0x9EB JUMPI DUP3 SWAP1 SUB PUSH1 0x1F AND DUP3 ADD SWAP2 JUMPDEST POP POP POP POP POP DUP2 MSTORE PUSH1 0x20 ADD PUSH1 0x4 DUP3 ADD DUP1 SLOAD PUSH2 0xA21 SWAP1 PUSH2 0x14D8 JUMP JUMPDEST DUP1 PUSH1 0x1F ADD PUSH1 0x20 DUP1 SWAP2 DIV MUL PUSH1 0x20 ADD PUSH1 0x40 MLOAD SWAP1 DUP2 ADD PUSH1 0x40 MSTORE DUP1 SWAP3 SWAP2 SWAP1 DUP2 DUP2 MSTORE PUSH1 0x20 ADD DUP3 DUP1 SLOAD PUSH2 0xA4D SWAP1 PUSH2 0x14D8 JUMP JUMPDEST DUP1 ISZERO PUSH2 0xA9A JUMPI DUP1 PUSH1 0x1F LT PUSH2 0xA6F JUMPI PUSH2 0x100 DUP1 DUP4 SLOAD DIV MUL DUP4 MSTORE SWAP2 PUSH1 0x20 ADD SWAP2 PUSH2 0xA9A JUMP JUMPDEST DUP3 ADD SWAP2 SWAP1 PUSH1 0x0 MSTORE PUSH1 0x20 PUSH1 0x0 KECCAK256 SWAP1 JUMPDEST DUP2 SLOAD DUP2 MSTORE SWAP1 PUSH1 0x1 ADD SWAP1 PUSH1 0x20 ADD DUP1 DUP4 GT PUSH2 0xA7D JUMPI DUP3 SWAP1 SUB PUSH1 0x1F AND DUP3 ADD SWAP2 JUMPDEST POP POP POP POP POP DUP2 MSTORE PUSH1 0x20 ADD PUSH1 0x5 DUP3 ADD SLOAD DUP2 MSTORE POP POP SWAP1 POP PUSH2 0xABD DUP2 PUSH1 0x20 ADD MLOAD DUP9 PUSH2 0xEC0 JUMP JUMPDEST ISZERO PUSH2 0xAF1 JUMPI DUP2 DUP5 DUP5 DUP2 MLOAD DUP2 LT PUSH2 0xAD6 JUMPI PUSH2 0xAD5 PUSH2 0x1580 JUMP JUMPDEST JUMPDEST PUSH1 0x20 MUL PUSH1 0x20 ADD ADD DUP2 DUP2 MSTORE POP POP DUP3 DUP1 PUSH2 0xAED SWAP1 PUSH2 0x1538 JUMP JUMPDEST SWAP4 POP POP JUMPDEST POP DUP1 DUP1 PUSH2 0xAFD SWAP1 PUSH2 0x1538 JUMP JUMPDEST SWAP2 POP POP PUSH2 0x7DC JUMP JUMPDEST POP DUP2 SWAP4 POP POP POP POP SWAP2 SWAP1 POP JUMP JUMPDEST PUSH1 0x0 PUSH1 0x20 MSTORE DUP1 PUSH1 0x0 MSTORE PUSH1 0x40 PUSH1 0x0 KECCAK256 PUSH1 0x0 SWAP2 POP SWAP1 POP DUP1 PUSH1 0x0 ADD PUSH1 0x0 SWAP1 SLOAD SWAP1 PUSH2 0x100 EXP SWAP1 DIV PUSH20 0xFFFFFFFFFFFFFFFFFFFFFFFFFFFFFFFFFFFFFFFF AND SWAP1 DUP1 PUSH1 0x1 ADD DUP1 SLOAD PUSH2 0xB5A SWAP1 PUSH2 0x14D8 JUMP JUMPDEST DUP1 PUSH1 0x1F ADD PUSH1 0x20 DUP1 SWAP2 DIV MUL PUSH1 0x20 ADD PUSH1 0x40 MLOAD SWAP1 DUP2 ADD PUSH1 0x40 MSTORE DUP1 SWAP3 SWAP2 SWAP1 DUP2 DUP2 MSTORE PUSH1 0x20 ADD DUP3 DUP1 SLOAD PUSH2 0xB86 SWAP1 PUSH2 0x14D8 JUMP JUMPDEST DUP1 ISZERO PUSH2 0xBD3 JUMPI DUP1 PUSH1 0x1F LT PUSH2 0xBA8 JUMPI PUSH2 0x100 DUP1 DUP4 SLOAD DIV MUL DUP4 MSTORE SWAP2 PUSH1 0x20 ADD SWAP2 PUSH2 0xBD3 JUMP JUMPDEST DUP3 ADD SWAP2 SWAP1 PUSH1 0x0 MSTORE PUSH1 0x20 PUSH1 0x0 KECCAK256 SWAP1 JUMPDEST DUP2 SLOAD DUP2 MSTORE SWAP1 PUSH1 0x1 ADD SWAP1 PUSH1 0x20 ADD DUP1 DUP4 GT PUSH2 0xBB6 JUMPI DUP3 SWAP1 SUB PUSH1 0x1F AND DUP3 ADD SWAP2 JUMPDEST POP POP POP POP POP SWAP1 DUP1 PUSH1 0x2 ADD DUP1 SLOAD PUSH2 0xBE8 SWAP1 PUSH2 0x14D8 JUMP JUMPDEST DUP1 PUSH1 0x1F ADD PUSH1 0x20 DUP1 SWAP2 DIV MUL PUSH1 0x20 ADD PUSH1 0x40 MLOAD SWAP1 DUP2 ADD PUSH1 0x40 MSTORE DUP1 SWAP3 SWAP2 SWAP1 DUP2 DUP2 MSTORE PUSH1 0x20 ADD DUP3 DUP1 SLOAD PUSH2 0xC14 SWAP1 PUSH2 0x14D8 JUMP JUMPDEST DUP1 ISZERO PUSH2 0xC61 JUMPI DUP1 PUSH1 0x1F LT PUSH2 0xC36 JUMPI PUSH2 0x100 DUP1 DUP4 SLOAD DIV MUL DUP4 MSTORE SWAP2 PUSH1 0x20 ADD SWAP2 PUSH2 0xC61 JUMP JUMPDEST DUP3 ADD SWAP2 SWAP1 PUSH1 0x0 MSTORE PUSH1 0x20 PUSH1 0x0 KECCAK256 SWAP1 JUMPDEST DUP2 SLOAD DUP2 MSTORE SWAP1 PUSH1 0x1 ADD SWAP1 PUSH1 0x20 ADD DUP1 DUP4 GT PUSH2 0xC44 JUMPI DUP3 SWAP1 SUB PUSH1 0x1F AND DUP3 ADD SWAP2 JUMPDEST POP POP POP POP POP SWAP1 DUP1 PUSH1 0x3 ADD DUP1 SLOAD PUSH2 0xC76 SWAP1 PUSH2 0x14D8 JUMP JUMPDEST DUP1 PUSH1 0x1F ADD PUSH1 0x20 DUP1 SWAP2 DIV MUL PUSH1 0x20 ADD PUSH1 0x40 MLOAD SWAP1 DUP2 ADD PUSH1 0x40 MSTORE DUP1 SWAP3 SWAP2 SWAP1 DUP2 DUP2 MSTORE PUSH1 0x20 ADD DUP3 DUP1 SLOAD PUSH2 0xCA2 SWAP1 PUSH2 0x14D8 JUMP JUMPDEST DUP1 ISZERO PUSH2 0xCEF JUMPI DUP1 PUSH1 0x1F LT PUSH2 0xCC4 JUMPI PUSH2 0x100 DUP1 DUP4 SLOAD DIV MUL DUP4 MSTORE SWAP2 PUSH1 0x20 ADD SWAP2 PUSH2 0xCEF JUMP JUMPDEST DUP3 ADD SWAP2 SWAP1 PUSH1 0x0 MSTORE PUSH1 0x20 PUSH1 0x0 KECCAK256 SWAP1 JUMPDEST DUP2 SLOAD DUP2 MSTORE SWAP1 PUSH1 0x1 ADD SWAP1 PUSH1 0x20 ADD DUP1 DUP4 GT PUSH2 0xCD2 JUMPI DUP3 SWAP1 SUB PUSH1 0x1F AND DUP3 ADD SWAP2 JUMPDEST POP POP POP POP POP SWAP1 DUP1 PUSH1 0x4 ADD DUP1 SLOAD PUSH2 0xD04 SWAP1 PUSH2 0x14D8 JUMP JUMPDEST DUP1 PUSH1 0x1F ADD PUSH1 0x20 DUP1 SWAP2 DIV MUL PUSH1 0x20 ADD PUSH1 0x40 MLOAD SWAP1 DUP2 ADD PUSH1 0x40 MSTORE DUP1 SWAP3 SWAP2 SWAP1 DUP2 DUP2 MSTORE PUSH1 0x20 ADD DUP3 DUP1 SLOAD PUSH2 0xD30 SWAP1 PUSH2 0x14D8 JUMP JUMPDEST DUP1 ISZERO PUSH2 0xD7D JUMPI DUP1 PUSH1 0x1F LT PUSH2 0xD52 JUMPI PUSH2 0x100 DUP1 DUP4 SLOAD DIV MUL DUP4 MSTORE SWAP2 PUSH1 0x20 ADD SWAP2 PUSH2 0xD7D JUMP JUMPDEST DUP3 ADD SWAP2 SWAP1 PUSH1 0x0 MSTORE PUSH1 0x20 PUSH1 0x0 KECCAK256 SWAP1 JUMPDEST DUP2 SLOAD DUP2 MSTORE SWAP1 PUSH1 0x1 ADD SWAP1 PUSH1 0x20 ADD DUP1 DUP4 GT PUSH2 0xD60 JUMPI DUP3 SWAP1 SUB PUSH1 0x1F AND DUP3 ADD SWAP2 JUMPDEST POP POP POP POP POP SWAP1 DUP1 PUSH1 0x5 ADD SLOAD SWAP1 POP DUP7 JUMP JUMPDEST PUSH1 0x1 SLOAD DUP2 JUMP JUMPDEST PUSH1 0x0 TIMESTAMP SWAP1 POP PUSH1 0x0 PUSH1 0x40 MLOAD DUP1 PUSH1 0xC0 ADD PUSH1 0x40 MSTORE DUP1 CALLER PUSH20 0xFFFFFFFFFFFFFFFFFFFFFFFFFFFFFFFFFFFFFFFF AND DUP2 MSTORE PUSH1 0x20 ADD DUP8 DUP2 MSTORE PUSH1 0x20 ADD DUP7 DUP2 MSTORE PUSH1 0x20 ADD DUP6 DUP2 MSTORE PUSH1 0x20 ADD DUP5 DUP2 MSTORE PUSH1 0x20 ADD DUP4 DUP2 MSTORE POP SWAP1 POP DUP1 PUSH1 0x0 DUP1 PUSH1 0x1 SLOAD DUP2 MSTORE PUSH1 0x20 ADD SWAP1 DUP2 MSTORE PUSH1 0x20 ADD PUSH1 0x0 KECCAK256 PUSH1 0x0 DUP3 ADD MLOAD DUP2 PUSH1 0x0 ADD PUSH1 0x0 PUSH2 0x100 EXP DUP2 SLOAD DUP2 PUSH20 0xFFFFFFFFFFFFFFFFFFFFFFFFFFFFFFFFFFFFFFFF MUL NOT AND SWAP1 DUP4 PUSH20 0xFFFFFFFFFFFFFFFFFFFFFFFFFFFFFFFFFFFFFFFF AND MUL OR SWAP1 SSTORE POP PUSH1 0x20 DUP3 ADD MLOAD DUP2 PUSH1 0x1 ADD SWAP1 DUP2 PUSH2 0xE50 SWAP2 SWAP1 PUSH2 0x175B JUMP JUMPDEST POP PUSH1 0x40 DUP3 ADD MLOAD DUP2 PUSH1 0x2 ADD SWAP1 DUP2 PUSH2 0xE66 SWAP2 SWAP1 PUSH2 0x175B JUMP JUMPDEST POP PUSH1 0x60 DUP3 ADD MLOAD DUP2 PUSH1 0x3 ADD SWAP1 DUP2 PUSH2 0xE7C SWAP2 SWAP1 PUSH2 0x175B JUMP JUMPDEST POP PUSH1 0x80 DUP3 ADD MLOAD DUP2 PUSH1 0x4 ADD SWAP1 DUP2 PUSH2 0xE92 SWAP2 SWAP1 PUSH2 0x175B JUMP JUMPDEST POP PUSH1 0xA0 DUP3 ADD MLOAD DUP2 PUSH1 0x5 ADD SSTORE SWAP1 POP POP PUSH1 0x1 PUSH1 0x0 DUP2 SLOAD DUP1 SWAP3 SWAP2 SWAP1 PUSH2 0xEB3 SWAP1 PUSH2 0x1538 JUMP JUMPDEST SWAP2 SWAP1 POP SSTORE POP POP POP POP POP POP POP JUMP JUMPDEST PUSH1 0x0 DUP2 PUSH1 0x40 MLOAD PUSH1 0x20 ADD PUSH2 0xED3 SWAP2 SWAP1 PUSH2 0x1869 JUMP JUMPDEST PUSH1 0x40 MLOAD PUSH1 0x20 DUP2 DUP4 SUB SUB DUP2 MSTORE SWAP1 PUSH1 0x40 MSTORE DUP1 MLOAD SWAP1 PUSH1 0x20 ADD KECCAK256 DUP4 PUSH1 0x40 MLOAD PUSH1 0x20 ADD PUSH2 0xEFA SWAP2 SWAP1 PUSH2 0x1869 JUMP JUMPDEST PUSH1 0x40 MLOAD PUSH1 0x20 DUP2 DUP4 SUB SUB DUP2 MSTORE SWAP1 PUSH1 0x40 MSTORE DUP1 MLOAD SWAP1 PUSH1 0x20 ADD KECCAK256 EQ SWAP1 POP SWAP3 SWAP2 POP POP JUMP JUMPDEST PUSH1 0x0 PUSH1 0x40 MLOAD SWAP1 POP SWAP1 JUMP JUMPDEST PUSH1 0x0 DUP1 REVERT JUMPDEST PUSH1 0x0 DUP1 REVERT JUMPDEST PUSH1 0x0 DUP2 SWAP1 POP SWAP2 SWAP1 POP JUMP JUMPDEST PUSH2 0xF40 DUP2 PUSH2 0xF2D JUMP JUMPDEST DUP2 EQ PUSH2 0xF4B JUMPI PUSH1 0x0 DUP1 REVERT JUMPDEST POP JUMP JUMPDEST PUSH1 0x0 DUP2 CALLDATALOAD SWAP1 POP PUSH2 0xF5D DUP2 PUSH2 0xF37 JUMP JUMPDEST SWAP3 SWAP2 POP POP JUMP JUMPDEST PUSH1 0x0 PUSH1 0x20 DUP3 DUP5 SUB SLT ISZERO PUSH2 0xF79 JUMPI PUSH2 0xF78 PUSH2 0xF23 JUMP JUMPDEST JUMPDEST PUSH1 0x0 PUSH2 0xF87 DUP5 DUP3 DUP6 ADD PUSH2 0xF4E JUMP JUMPDEST SWAP2 POP POP SWAP3 SWAP2 POP POP JUMP JUMPDEST PUSH1 0x0 PUSH20 0xFFFFFFFFFFFFFFFFFFFFFFFFFFFFFFFFFFFFFFFF DUP3 AND SWAP1 POP SWAP2 SWAP1 POP JUMP JUMPDEST PUSH1 0x0 PUSH2 0xFBB DUP3 PUSH2 0xF90 JUMP JUMPDEST SWAP1 POP SWAP2 SWAP1 POP JUMP JUMPDEST PUSH2 0xFCB DUP2 PUSH2 0xFB0 JUMP JUMPDEST DUP3 MSTORE POP POP JUMP JUMPDEST PUSH1 0x0 DUP2 MLOAD SWAP1 POP SWAP2 SWAP1 POP JUMP JUMPDEST PUSH1 0x0 DUP3 DUP3 MSTORE PUSH1 0x20 DUP3 ADD SWAP1 POP SWAP3 SWAP2 POP POP JUMP JUMPDEST PUSH1 0x0 JUMPDEST DUP4 DUP2 LT ISZERO PUSH2 0x100B JUMPI DUP1 DUP3 ADD MLOAD DUP2 DUP5 ADD MSTORE PUSH1 0x20 DUP2 ADD SWAP1 POP PUSH2 0xFF0 JUMP JUMPDEST PUSH1 0x0 DUP5 DUP5 ADD MSTORE POP POP POP POP JUMP JUMPDEST PUSH1 0x0 PUSH1 0x1F NOT PUSH1 0x1F DUP4 ADD AND SWAP1 POP SWAP2 SWAP1 POP JUMP JUMPDEST PUSH1 0x0 PUSH2 0x1033 DUP3 PUSH2 0xFD1 JUMP JUMPDEST PUSH2 0x103D DUP2 DUP6 PUSH2 0xFDC JUMP JUMPDEST SWAP4 POP PUSH2 0x104D DUP2 DUP6 PUSH1 0x20 DUP7 ADD PUSH2 0xFED JUMP JUMPDEST PUSH2 0x1056 DUP2 PUSH2 0x1017 JUMP JUMPDEST DUP5 ADD SWAP2 POP POP SWAP3 SWAP2 POP POP JUMP JUMPDEST PUSH2 0x106A DUP2 PUSH2 0xF2D JUMP JUMPDEST DUP3 MSTORE POP POP JUMP JUMPDEST PUSH1 0x0 PUSH1 0xC0 DUP3 ADD SWAP1 POP PUSH2 0x1085 PUSH1 0x0 DUP4 ADD DUP10 PUSH2 0xFC2 JUMP JUMPDEST DUP2 DUP2 SUB PUSH1 0x20 DUP4 ADD MSTORE PUSH2 0x1097 DUP2 DUP9 PUSH2 0x1028 JUMP JUMPDEST SWAP1 POP DUP2 DUP2 SUB PUSH1 0x40 DUP4 ADD MSTORE PUSH2 0x10AB DUP2 DUP8 PUSH2 0x1028 JUMP JUMPDEST SWAP1 POP DUP2 DUP2 SUB PUSH1 0x60 DUP4 ADD MSTORE PUSH2 0x10BF DUP2 DUP7 PUSH2 0x1028 JUMP JUMPDEST SWAP1 POP DUP2 DUP2 SUB PUSH1 0x80 DUP4 ADD MSTORE PUSH2 0x10D3 DUP2 DUP6 PUSH2 0x1028 JUMP JUMPDEST SWAP1 POP PUSH2 0x10E2 PUSH1 0xA0 DUP4 ADD DUP5 PUSH2 0x1061 JUMP JUMPDEST SWAP8 SWAP7 POP POP POP POP POP POP POP JUMP JUMPDEST PUSH1 0x0 DUP1 REVERT JUMPDEST PUSH1 0x0 DUP1 REVERT JUMPDEST PUSH32 0x4E487B7100000000000000000000000000000000000000000000000000000000 PUSH1 0x0 MSTORE PUSH1 0x41 PUSH1 0x4 MSTORE PUSH1 0x24 PUSH1 0x0 REVERT JUMPDEST PUSH2 0x112F DUP3 PUSH2 0x1017 JUMP JUMPDEST DUP2 ADD DUP2 DUP2 LT PUSH8 0xFFFFFFFFFFFFFFFF DUP3 GT OR ISZERO PUSH2 0x114E JUMPI PUSH2 0x114D PUSH2 0x10F7 JUMP JUMPDEST JUMPDEST DUP1 PUSH1 0x40 MSTORE POP POP POP JUMP JUMPDEST PUSH1 0x0 PUSH2 0x1161 PUSH2 0xF19 JUMP JUMPDEST SWAP1 POP PUSH2 0x116D DUP3 DUP3 PUSH2 0x1126 JUMP JUMPDEST SWAP2 SWAP1 POP JUMP JUMPDEST PUSH1 0x0 PUSH8 0xFFFFFFFFFFFFFFFF DUP3 GT ISZERO PUSH2 0x118D JUMPI PUSH2 0x118C PUSH2 0x10F7 JUMP JUMPDEST JUMPDEST PUSH2 0x1196 DUP3 PUSH2 0x1017 JUMP JUMPDEST SWAP1 POP PUSH1 0x20 DUP2 ADD SWAP1 POP SWAP2 SWAP1 POP JUMP JUMPDEST DUP3 DUP2 DUP4 CALLDATACOPY PUSH1 0x0 DUP4 DUP4 ADD MSTORE POP POP POP JUMP JUMPDEST PUSH1 0x0 PUSH2 0x11C5 PUSH2 0x11C0 DUP5 PUSH2 0x1172 JUMP JUMPDEST PUSH2 0x1157 JUMP JUMPDEST SWAP1 POP DUP3 DUP2 MSTORE PUSH1 0x20 DUP2 ADD DUP5 DUP5 DUP5 ADD GT ISZERO PUSH2 0x11E1 JUMPI PUSH2 0x11E0 PUSH2 0x10F2 JUMP JUMPDEST JUMPDEST PUSH2 0x11EC DUP5 DUP3 DUP6 PUSH2 0x11A3 JUMP JUMPDEST POP SWAP4 SWAP3 POP POP POP JUMP JUMPDEST PUSH1 0x0 DUP3 PUSH1 0x1F DUP4 ADD SLT PUSH2 0x1209 JUMPI PUSH2 0x1208 PUSH2 0x10ED JUMP JUMPDEST JUMPDEST DUP2 CALLDATALOAD PUSH2 0x1219 DUP5 DUP3 PUSH1 0x20 DUP7 ADD PUSH2 0x11B2 JUMP JUMPDEST SWAP2 POP POP SWAP3 SWAP2 POP POP JUMP JUMPDEST PUSH1 0x0 PUSH1 0x20 DUP3 DUP5 SUB SLT ISZERO PUSH2 0x1238 JUMPI PUSH2 0x1237 PUSH2 0xF23 JUMP JUMPDEST JUMPDEST PUSH1 0x0 DUP3 ADD CALLDATALOAD PUSH8 0xFFFFFFFFFFFFFFFF DUP2 GT ISZERO PUSH2 0x1256 JUMPI PUSH2 0x1255 PUSH2 0xF28 JUMP JUMPDEST JUMPDEST PUSH2 0x1262 DUP5 DUP3 DUP6 ADD PUSH2 0x11F4 JUMP JUMPDEST SWAP2 POP POP SWAP3 SWAP2 POP POP JUMP JUMPDEST PUSH1 0x0 DUP2 MLOAD SWAP1 POP SWAP2 SWAP1 POP JUMP JUMPDEST PUSH1 0x0 DUP3 DUP3 MSTORE PUSH1 0x20 DUP3 ADD SWAP1 POP SWAP3 SWAP2 POP POP JUMP JUMPDEST PUSH1 0x0 DUP2 SWAP1 POP PUSH1 0x20 DUP3 ADD SWAP1 POP SWAP2 SWAP1 POP JUMP JUMPDEST PUSH2 0x12A0 DUP2 PUSH2 0xF2D JUMP JUMPDEST DUP3 MSTORE POP POP JUMP JUMPDEST PUSH1 0x0 PUSH2 0x12B2 DUP4 DUP4 PUSH2 0x1297 JUMP JUMPDEST PUSH1 0x20 DUP4 ADD SWAP1 POP SWAP3 SWAP2 POP POP JUMP JUMPDEST PUSH1 0x0 PUSH1 0x20 DUP3 ADD SWAP1 POP SWAP2 SWAP1 POP JUMP JUMPDEST PUSH1 0x0 PUSH2 0x12D6 DUP3 PUSH2 0x126B JUMP JUMPDEST PUSH2 0x12E0 DUP2 DUP6 PUSH2 0x1276 JUMP JUMPDEST SWAP4 POP PUSH2 0x12EB DUP4 PUSH2 0x1287 JUMP JUMPDEST DUP1 PUSH1 0x0 JUMPDEST DUP4 DUP2 LT ISZERO PUSH2 0x131C JUMPI DUP2 MLOAD PUSH2 0x1303 DUP9 DUP3 PUSH2 0x12A6 JUMP JUMPDEST SWAP8 POP PUSH2 0x130E DUP4 PUSH2 0x12BE JUMP JUMPDEST SWAP3 POP POP PUSH1 0x1 DUP2 ADD SWAP1 POP PUSH2 0x12EF JUMP JUMPDEST POP DUP6 SWAP4 POP POP POP POP SWAP3 SWAP2 POP POP JUMP JUMPDEST PUSH1 0x0 PUSH1 0x20 DUP3 ADD SWAP1 POP DUP2 DUP2 SUB PUSH1 0x0 DUP4 ADD MSTORE PUSH2 0x1343 DUP2 DUP5 PUSH2 0x12CB JUMP JUMPDEST SWAP1 POP SWAP3 SWAP2 POP POP JUMP JUMPDEST PUSH1 0x0 PUSH1 0x20 DUP3 ADD SWAP1 POP PUSH2 0x1360 PUSH1 0x0 DUP4 ADD DUP5 PUSH2 0x1061 JUMP JUMPDEST SWAP3 SWAP2 POP POP JUMP JUMPDEST PUSH1 0x0 DUP1 PUSH1 0x0 DUP1 PUSH1 0x80 DUP6 DUP8 SUB SLT ISZERO PUSH2 0x1380 JUMPI PUSH2 0x137F PUSH2 0xF23 JUMP JUMPDEST JUMPDEST PUSH1 0x0 DUP6 ADD CALLDATALOAD PUSH8 0xFFFFFFFFFFFFFFFF DUP2 GT ISZERO PUSH2 0x139E JUMPI PUSH2 0x139D PUSH2 0xF28 JUMP JUMPDEST JUMPDEST PUSH2 0x13AA DUP8 DUP3 DUP9 ADD PUSH2 0x11F4 JUMP JUMPDEST SWAP5 POP POP PUSH1 0x20 DUP6 ADD CALLDATALOAD PUSH8 0xFFFFFFFFFFFFFFFF DUP2 GT ISZERO PUSH2 0x13CB JUMPI PUSH2 0x13CA PUSH2 0xF28 JUMP JUMPDEST JUMPDEST PUSH2 0x13D7 DUP8 DUP3 DUP9 ADD PUSH2 0x11F4 JUMP JUMPDEST SWAP4 POP POP PUSH1 0x40 DUP6 ADD CALLDATALOAD PUSH8 0xFFFFFFFFFFFFFFFF DUP2 GT ISZERO PUSH2 0x13F8 JUMPI PUSH2 0x13F7 PUSH2 0xF28 JUMP JUMPDEST JUMPDEST PUSH2 0x1404 DUP8 DUP3 DUP9 ADD PUSH2 0x11F4 JUMP JUMPDEST SWAP3 POP POP PUSH1 0x60 DUP6 ADD CALLDATALOAD PUSH8 0xFFFFFFFFFFFFFFFF DUP2 GT ISZERO PUSH2 0x1425 JUMPI PUSH2 0x1424 PUSH2 0xF28 JUMP JUMPDEST JUMPDEST PUSH2 0x1431 DUP8 DUP3 DUP9 ADD PUSH2 0x11F4 JUMP JUMPDEST SWAP2 POP POP SWAP3 SWAP6 SWAP2 SWAP5 POP SWAP3 POP JUMP JUMPDEST PUSH32 0x496E76616C696420696E64657800000000000000000000000000000000000000 PUSH1 0x0 DUP3 ADD MSTORE POP JUMP JUMPDEST PUSH1 0x0 PUSH2 0x1473 PUSH1 0xD DUP4 PUSH2 0xFDC JUMP JUMPDEST SWAP2 POP PUSH2 0x147E DUP3 PUSH2 0x143D JUMP JUMPDEST PUSH1 0x20 DUP3 ADD SWAP1 POP SWAP2 SWAP1 POP JUMP JUMPDEST PUSH1 0x0 PUSH1 0x20 DUP3 ADD SWAP1 POP DUP2 DUP2 SUB PUSH1 0x0 DUP4 ADD MSTORE PUSH2 0x14A2 DUP2 PUSH2 0x1466 JUMP JUMPDEST SWAP1 POP SWAP2 SWAP1 POP JUMP JUMPDEST PUSH32 0x4E487B7100000000000000000000000000000000000000000000000000000000 PUSH1 0x0 MSTORE PUSH1 0x22 PUSH1 0x4 MSTORE PUSH1 0x24 PUSH1 0x0 REVERT JUMPDEST PUSH1 0x0 PUSH1 0x2 DUP3 DIV SWAP1 POP PUSH1 0x1 DUP3 AND DUP1 PUSH2 0x14F0 JUMPI PUSH1 0x7F DUP3 AND SWAP2 POP JUMPDEST PUSH1 0x20 DUP3 LT DUP2 SUB PUSH2 0x1503 JUMPI PUSH2 0x1502 PUSH2 0x14A9 JUMP JUMPDEST JUMPDEST POP SWAP2 SWAP1 POP JUMP JUMPDEST PUSH32 0x4E487B7100000000000000000000000000000000000000000000000000000000 PUSH1 0x0 MSTORE PUSH1 0x11 PUSH1 0x4 MSTORE PUSH1 0x24 PUSH1 0x0 REVERT JUMPDEST PUSH1 0x0 PUSH2 0x1543 DUP3 PUSH2 0xF2D JUMP JUMPDEST SWAP2 POP PUSH32 0xFFFFFFFFFFFFFFFFFFFFFFFFFFFFFFFFFFFFFFFFFFFFFFFFFFFFFFFFFFFFFFFF DUP3 SUB PUSH2 0x1575 JUMPI PUSH2 0x1574 PUSH2 0x1509 JUMP JUMPDEST JUMPDEST PUSH1 0x1 DUP3 ADD SWAP1 POP SWAP2 SWAP1 POP JUMP JUMPDEST PUSH32 0x4E487B7100000000000000000000000000000000000000000000000000000000 PUSH1 0x0 MSTORE PUSH1 0x32 PUSH1 0x4 MSTORE PUSH1 0x24 PUSH1 0x0 REVERT JUMPDEST PUSH1 0x0 DUP2 SWAP1 POP DUP2 PUSH1 0x0 MSTORE PUSH1 0x20 PUSH1 0x0 KECCAK256 SWAP1 POP SWAP2 SWAP1 POP JUMP JUMPDEST PUSH1 0x0 PUSH1 0x20 PUSH1 0x1F DUP4 ADD DIV SWAP1 POP SWAP2 SWAP1 POP JUMP JUMPDEST PUSH1 0x0 DUP3 DUP3 SHL SWAP1 POP SWAP3 SWAP2 POP POP JUMP JUMPDEST PUSH1 0x0 PUSH1 0x8 DUP4 MUL PUSH2 0x1611 PUSH32 0xFFFFFFFFFFFFFFFFFFFFFFFFFFFFFFFFFFFFFFFFFFFFFFFFFFFFFFFFFFFFFFFF DUP3 PUSH2 0x15D4 JUMP JUMPDEST PUSH2 0x161B DUP7 DUP4 PUSH2 0x15D4 JUMP JUMPDEST SWAP6 POP DUP1 NOT DUP5 AND SWAP4 POP DUP1 DUP7 AND DUP5 OR SWAP3 POP POP POP SWAP4 SWAP3 POP POP POP JUMP JUMPDEST PUSH1 0x0 DUP2 SWAP1 POP SWAP2 SWAP1 POP JUMP JUMPDEST PUSH1 0x0 PUSH2 0x1658 PUSH2 0x1653 PUSH2 0x164E DUP5 PUSH2 0xF2D JUMP JUMPDEST PUSH2 0x1633 JUMP JUMPDEST PUSH2 0xF2D JUMP JUMPDEST SWAP1 POP SWAP2 SWAP1 POP JUMP JUMPDEST PUSH1 0x0 DUP2 SWAP1 POP SWAP2 SWAP1 POP JUMP JUMPDEST PUSH2 0x1672 DUP4 PUSH2 0x163D JUMP JUMPDEST PUSH2 0x1686 PUSH2 0x167E DUP3 PUSH2 0x165F JUMP JUMPDEST DUP5 DUP5 SLOAD PUSH2 0x15E1 JUMP JUMPDEST DUP3 SSTORE POP POP POP POP JUMP JUMPDEST PUSH1 0x0 SWAP1 JUMP JUMPDEST PUSH2 0x169B PUSH2 0x168E JUMP JUMPDEST PUSH2 0x16A6 DUP2 DUP5 DUP5 PUSH2 0x1669 JUMP JUMPDEST POP POP POP JUMP JUMPDEST JUMPDEST DUP2 DUP2 LT ISZERO PUSH2 0x16CA JUMPI PUSH2 0x16BF PUSH1 0x0 DUP3 PUSH2 0x1693 JUMP JUMPDEST PUSH1 0x1 DUP2 ADD SWAP1 POP PUSH2 0x16AC JUMP JUMPDEST POP POP JUMP JUMPDEST PUSH1 0x1F DUP3 GT ISZERO PUSH2 0x170F JUMPI PUSH2 0x16E0 DUP2 PUSH2 0x15AF JUMP JUMPDEST PUSH2 0x16E9 DUP5 PUSH2 0x15C4 JUMP JUMPDEST DUP2 ADD PUSH1 0x20 DUP6 LT ISZERO PUSH2 0x16F8 JUMPI DUP2 SWAP1 POP JUMPDEST PUSH2 0x170C PUSH2 0x1704 DUP6 PUSH2 0x15C4 JUMP JUMPDEST DUP4 ADD DUP3 PUSH2 0x16AB JUMP JUMPDEST POP POP JUMPDEST POP POP POP JUMP JUMPDEST PUSH1 0x0 DUP3 DUP3 SHR SWAP1 POP SWAP3 SWAP2 POP POP JUMP JUMPDEST PUSH1 0x0 PUSH2 0x1732 PUSH1 0x0 NOT DUP5 PUSH1 0x8 MUL PUSH2 0x1714 JUMP JUMPDEST NOT DUP1 DUP4 AND SWAP2 POP POP SWAP3 SWAP2 POP POP JUMP JUMPDEST PUSH1 0x0 PUSH2 0x174B DUP4 DUP4 PUSH2 0x1721 JUMP JUMPDEST SWAP2 POP DUP3 PUSH1 0x2 MUL DUP3 OR SWAP1 POP SWAP3 SWAP2 POP POP JUMP JUMPDEST PUSH2 0x1764 DUP3 PUSH2 0xFD1 JUMP JUMPDEST PUSH8 0xFFFFFFFFFFFFFFFF DUP2 GT ISZERO PUSH2 0x177D JUMPI PUSH2 0x177C PUSH2 0x10F7 JUMP JUMPDEST JUMPDEST PUSH2 0x1787 DUP3 SLOAD PUSH2 0x14D8 JUMP JUMPDEST PUSH2 0x1792 DUP3 DUP3 DUP6 PUSH2 0x16CE JUMP JUMPDEST PUSH1 0x0 PUSH1 0x20 SWAP1 POP PUSH1 0x1F DUP4 GT PUSH1 0x1 DUP2 EQ PUSH2 0x17C5 JUMPI PUSH1 0x0 DUP5 ISZERO PUSH2 0x17B3 JUMPI DUP3 DUP8 ADD MLOAD SWAP1 POP JUMPDEST PUSH2 0x17BD DUP6 DUP3 PUSH2 0x173F JUMP JUMPDEST DUP7 SSTORE POP PUSH2 0x1825 JUMP JUMPDEST PUSH1 0x1F NOT DUP5 AND PUSH2 0x17D3 DUP7 PUSH2 0x15AF JUMP JUMPDEST PUSH1 0x0 JUMPDEST DUP3 DUP2 LT ISZERO PUSH2 0x17FB JUMPI DUP5 DUP10 ADD MLOAD DUP3 SSTORE PUSH1 0x1 DUP3 ADD SWAP2 POP PUSH1 0x20 DUP6 ADD SWAP5 POP PUSH1 0x20 DUP2 ADD SWAP1 POP PUSH2 0x17D6 JUMP JUMPDEST DUP7 DUP4 LT ISZERO PUSH2 0x1818 JUMPI DUP5 DUP10 ADD MLOAD PUSH2 0x1814 PUSH1 0x1F DUP10 AND DUP3 PUSH2 0x1721 JUMP JUMPDEST DUP4 SSTORE POP JUMPDEST PUSH1 0x1 PUSH1 0x2 DUP9 MUL ADD DUP9 SSTORE POP POP POP JUMPDEST POP POP POP POP POP POP JUMP JUMPDEST PUSH1 0x0 DUP2 SWAP1 POP SWAP3 SWAP2 POP POP JUMP JUMPDEST PUSH1 0x0 PUSH2 0x1843 DUP3 PUSH2 0xFD1 JUMP JUMPDEST PUSH2 0x184D DUP2 DUP6 PUSH2 0x182D JUMP JUMPDEST SWAP4 POP PUSH2 0x185D DUP2 DUP6 PUSH1 0x20 DUP7 ADD PUSH2 0xFED JUMP JUMPDEST DUP1 DUP5 ADD SWAP2 POP POP SWAP3 SWAP2 POP POP JUMP JUMPDEST PUSH1 0x0 PUSH2 0x1875 DUP3 DUP5 PUSH2 0x1838 JUMP JUMPDEST SWAP2 POP DUP2 SWAP1 POP SWAP3 SWAP2 POP POP JUMP INVALID LOG2 PUSH5 0x6970667358 0x22 SLT KECCAK256 RETURN 0xB4 PUSH32 0x3421C8D163E60AC915E8870C4BEFB58F798D572C3E67A90A5C858EF16464736F PUSH13 0x63430008120033000000000000 "
				},
				"gasEstimates": {
					"creation": {
						"codeDepositCost": "1265200",
						"executionCost": "1315",
						"totalCost": "1266515"
					},
					"external": {
						"getModelByIndex(uint256)": "infinite",
						"getModelsByType(string)": "infinite",
						"modelCount()": "2473",
						"models(uint256)": "infinite",
						"registerModel(string,string,string,string)": "infinite"
					},
					"internal": {
						"compareStrings(string memory,string memory)": "infinite"
					}
				},
				"methodIdentifiers": {
					"getModelByIndex(uint256)": "4a23f10e",
					"getModelsByType(string)": "4d5af350",
					"modelCount()": "c6a645fe",
					"models(uint256)": "6a030ca9",
					"registerModel(string,string,string,string)": "c6b959a3"
				}
			},
			"storageLayout": {
				"storage": [
					{
						"astId": 19,
						"contract": "contracts/AIModelRegistry.sol:AIModelRegistry",
						"label": "models",
						"offset": 0,
						"slot": "0",
						"type": "t_mapping(t_uint256,t_struct(AIModel)14_storage)"
					},
					{
						"astId": 21,
						"contract": "contracts/AIModelRegistry.sol:AIModelRegistry",
						"label": "modelCount",
						"offset": 0,
						"slot": "1",
						"type": "t_uint256"
					}
				],
				"types": {
					"t_address": {
						"encoding": "inplace",
						"label": "address",
						"numberOfBytes": "20"
					},
					"t_mapping(t_uint256,t_struct(AIModel)14_storage)": {
						"encoding": "mapping",
						"key": "t_uint256",
						"label": "mapping(uint256 => struct AIModelRegistry.AIModel)",
						"numberOfBytes": "32",
						"value": "t_struct(AIModel)14_storage"
					},
					"t_string_storage": {
						"encoding": "bytes",
						"label": "string",
						"numberOfBytes": "32"
					},
					"t_struct(AIModel)14_storage": {
						"encoding": "inplace",
						"label": "struct AIModelRegistry.AIModel",
						"members": [
							{
								"astId": 3,
								"contract": "contracts/AIModelRegistry.sol:AIModelRegistry",
								"label": "clientAddress",
								"offset": 0,
								"slot": "0",
								"type": "t_address"
							},
							{
								"astId": 5,
								"contract": "contracts/AIModelRegistry.sol:AIModelRegistry",
								"label": "modelType",
								"offset": 0,
								"slot": "1",
								"type": "t_string_storage"
							},
							{
								"astId": 7,
								"contract": "contracts/AIModelRegistry.sol:AIModelRegistry",
								"label": "hash1",
								"offset": 0,
								"slot": "2",
								"type": "t_string_storage"
							},
							{
								"astId": 9,
								"contract": "contracts/AIModelRegistry.sol:AIModelRegistry",
								"label": "hash2",
								"offset": 0,
								"slot": "3",
								"type": "t_string_storage"
							},
							{
								"astId": 11,
								"contract": "contracts/AIModelRegistry.sol:AIModelRegistry",
								"label": "hash3",
								"offset": 0,
								"slot": "4",
								"type": "t_string_storage"
							},
							{
								"astId": 13,
								"contract": "contracts/AIModelRegistry.sol:AIModelRegistry",
								"label": "timestamp",
								"offset": 0,
								"slot": "5",
								"type": "t_uint256"
							}
						],
						"numberOfBytes": "192"
					},
					"t_uint256": {
						"encoding": "inplace",
						"label": "uint256",
						"numberOfBytes": "32"
					}
				}
			},
			"userdoc": {
				"kind": "user",
				"methods": {},
				"version": 1
			}
		}
	}
}